{
  "address": "0x40fa0a360818b04b9975680746dC0B7092105A0c",
  "abi": [
    {
      "inputs": [],
      "stateMutability": "nonpayable",
      "type": "constructor"
    },
    {
      "anonymous": false,
      "inputs": [
        {
          "indexed": false,
          "internalType": "uint16",
          "name": "chainId",
          "type": "uint16"
        },
        {
          "indexed": false,
          "internalType": "bytes32",
          "name": "gateway",
          "type": "bytes32"
        }
      ],
      "name": "GatewayAddressUpdated",
      "type": "event"
    },
    {
      "anonymous": false,
      "inputs": [
        {
          "indexed": false,
          "internalType": "uint8",
          "name": "version",
          "type": "uint8"
        }
      ],
      "name": "Initialized",
      "type": "event"
    },
    {
      "anonymous": false,
      "inputs": [
        {
          "indexed": false,
          "internalType": "uint256",
          "name": "mintingLimit",
          "type": "uint256"
        }
      ],
      "name": "MintingLimitUpdated",
      "type": "event"
    },
    {
      "anonymous": false,
      "inputs": [
        {
          "indexed": true,
          "internalType": "address",
          "name": "previousOwner",
          "type": "address"
        },
        {
          "indexed": true,
          "internalType": "address",
          "name": "newOwner",
          "type": "address"
        }
      ],
      "name": "OwnershipTransferred",
      "type": "event"
    },
    {
      "anonymous": false,
      "inputs": [
        {
          "indexed": false,
          "internalType": "address",
          "name": "depositor",
          "type": "address"
        },
        {
          "indexed": false,
          "internalType": "uint256",
          "name": "amount",
          "type": "uint256"
        }
      ],
      "name": "WormholeTbtcDeposited",
      "type": "event"
    },
    {
      "anonymous": false,
      "inputs": [
        {
          "indexed": false,
          "internalType": "address",
          "name": "receiver",
          "type": "address"
        },
        {
          "indexed": false,
          "internalType": "uint256",
          "name": "amount",
          "type": "uint256"
        }
      ],
      "name": "WormholeTbtcReceived",
      "type": "event"
    },
    {
      "anonymous": false,
      "inputs": [
        {
          "indexed": false,
          "internalType": "uint256",
          "name": "amount",
          "type": "uint256"
        },
        {
          "indexed": false,
          "internalType": "uint16",
          "name": "recipientChain",
          "type": "uint16"
        },
        {
          "indexed": false,
          "internalType": "bytes32",
          "name": "gateway",
          "type": "bytes32"
        },
        {
          "indexed": false,
          "internalType": "bytes32",
          "name": "recipient",
          "type": "bytes32"
        },
        {
          "indexed": false,
          "internalType": "uint256",
          "name": "arbiterFee",
          "type": "uint256"
        },
        {
          "indexed": false,
          "internalType": "uint32",
          "name": "nonce",
          "type": "uint32"
        }
      ],
      "name": "WormholeTbtcSent",
      "type": "event"
    },
    {
      "inputs": [],
      "name": "bridge",
      "outputs": [
        {
          "internalType": "contract IWormholeTokenBridge",
          "name": "",
          "type": "address"
        }
      ],
      "stateMutability": "view",
      "type": "function"
    },
    {
      "inputs": [],
      "name": "bridgeToken",
      "outputs": [
        {
          "internalType": "contract IERC20Upgradeable",
          "name": "",
          "type": "address"
        }
      ],
      "stateMutability": "view",
      "type": "function"
    },
    {
      "inputs": [
        {
          "internalType": "bytes32",
          "name": "_address",
          "type": "bytes32"
        }
      ],
      "name": "fromWormholeAddress",
      "outputs": [
        {
          "internalType": "address",
          "name": "",
          "type": "address"
        }
      ],
      "stateMutability": "pure",
      "type": "function"
    },
    {
      "inputs": [
        {
          "internalType": "uint16",
          "name": "",
          "type": "uint16"
        }
      ],
      "name": "gateways",
      "outputs": [
        {
          "internalType": "bytes32",
          "name": "",
          "type": "bytes32"
        }
      ],
      "stateMutability": "view",
      "type": "function"
    },
    {
      "inputs": [
        {
          "internalType": "contract IWormholeTokenBridge",
          "name": "_bridge",
          "type": "address"
        },
        {
          "internalType": "contract IERC20Upgradeable",
          "name": "_bridgeToken",
          "type": "address"
        },
        {
          "internalType": "contract L2TBTC",
          "name": "_tbtc",
          "type": "address"
        }
      ],
      "name": "initialize",
      "outputs": [],
      "stateMutability": "nonpayable",
      "type": "function"
    },
    {
      "inputs": [],
      "name": "mintedAmount",
      "outputs": [
        {
          "internalType": "uint256",
          "name": "",
          "type": "uint256"
        }
      ],
      "stateMutability": "view",
      "type": "function"
    },
    {
      "inputs": [],
      "name": "mintingLimit",
      "outputs": [
        {
          "internalType": "uint256",
          "name": "",
          "type": "uint256"
        }
      ],
      "stateMutability": "view",
      "type": "function"
    },
    {
      "inputs": [],
      "name": "owner",
      "outputs": [
        {
          "internalType": "address",
          "name": "",
          "type": "address"
        }
      ],
      "stateMutability": "view",
      "type": "function"
    },
    {
      "inputs": [
        {
          "internalType": "bytes",
          "name": "encodedVm",
          "type": "bytes"
        }
      ],
      "name": "receiveTbtc",
      "outputs": [],
      "stateMutability": "nonpayable",
      "type": "function"
    },
    {
      "inputs": [],
      "name": "renounceOwnership",
      "outputs": [],
      "stateMutability": "nonpayable",
      "type": "function"
    },
    {
      "inputs": [
        {
          "internalType": "uint256",
          "name": "amount",
          "type": "uint256"
        },
        {
          "internalType": "uint16",
          "name": "recipientChain",
          "type": "uint16"
        },
        {
          "internalType": "bytes32",
          "name": "recipient",
          "type": "bytes32"
        },
        {
          "internalType": "uint256",
          "name": "arbiterFee",
          "type": "uint256"
        },
        {
          "internalType": "uint32",
          "name": "nonce",
          "type": "uint32"
        }
      ],
      "name": "sendTbtc",
      "outputs": [
        {
          "internalType": "uint64",
          "name": "",
          "type": "uint64"
        }
      ],
      "stateMutability": "payable",
      "type": "function"
    },
    {
      "inputs": [
        {
          "internalType": "uint256",
          "name": "amount",
          "type": "uint256"
        },
        {
          "internalType": "uint16",
          "name": "recipientNativeChain",
          "type": "uint16"
        },
        {
          "internalType": "bytes32",
          "name": "recipient",
          "type": "bytes32"
        },
        {
          "internalType": "uint32",
          "name": "nonce",
          "type": "uint32"
        },
        {
          "internalType": "bytes",
          "name": "payload",
          "type": "bytes"
        }
      ],
      "name": "sendTbtcWithPayloadToNativeChain",
      "outputs": [
        {
          "internalType": "uint64",
          "name": "",
          "type": "uint64"
        }
      ],
      "stateMutability": "payable",
      "type": "function"
    },
    {
      "inputs": [],
      "name": "tbtc",
      "outputs": [
        {
          "internalType": "contract L2TBTC",
          "name": "",
          "type": "address"
        }
      ],
      "stateMutability": "view",
      "type": "function"
    },
    {
      "inputs": [
        {
          "internalType": "address",
          "name": "_address",
          "type": "address"
        }
      ],
      "name": "toWormholeAddress",
      "outputs": [
        {
          "internalType": "bytes32",
          "name": "",
          "type": "bytes32"
        }
      ],
      "stateMutability": "pure",
      "type": "function"
    },
    {
      "inputs": [
        {
          "internalType": "address",
          "name": "newOwner",
          "type": "address"
        }
      ],
      "name": "transferOwnership",
      "outputs": [],
      "stateMutability": "nonpayable",
      "type": "function"
    },
    {
      "inputs": [
        {
          "internalType": "uint16",
          "name": "chainId",
          "type": "uint16"
        },
        {
          "internalType": "bytes32",
          "name": "gateway",
          "type": "bytes32"
        }
      ],
      "name": "updateGatewayAddress",
      "outputs": [],
      "stateMutability": "nonpayable",
      "type": "function"
    },
    {
      "inputs": [
        {
          "internalType": "uint256",
          "name": "_mintingLimit",
          "type": "uint256"
        }
      ],
      "name": "updateMintingLimit",
      "outputs": [],
      "stateMutability": "nonpayable",
      "type": "function"
    }
  ],
  "transactionHash": "0x3393bbc9c47ee3c38b2645170cae682812343fd14835a4b48a826050b46b6b75",
  "args": [],
  "numDeployments": 1,
  "solcInputHash": "a24e666157626f92b8e363a10b968cd1",
  "bytecode": "0x608060405234801561001057600080fd5b5061001961001e565b6100de565b600054610100900460ff161561008a5760405162461bcd60e51b815260206004820152602760248201527f496e697469616c697a61626c653a20636f6e747261637420697320696e697469604482015266616c697a696e6760c81b606482015260840160405180910390fd5b60005460ff90811610156100dc576000805460ff191660ff9081179091556040519081527f7f26b83ff96e1f2b6a682f133852f6798a09c465da95921460cefb38474024989060200160405180910390a15b565b61223c80620000ee6000396000f3fe60806040526004361061010e5760003560e01c80638da5cb5b116100a5578063e1308b3311610074578063f2fde38b11610059578063f2fde38b146102fd578063f4734b0c1461031d578063f69785f31461033d57600080fd5b8063e1308b33146102bd578063e78cea92146102dd57600080fd5b80638da5cb5b1461022b578063b4ccd86814610249578063c0c53b8b14610276578063ca05f9851461029657600080fd5b806349072f12116100e157806349072f12146101c05780635d21a596146101d6578063715018a6146101f657806375b1beaa1461020b57600080fd5b80630b575fe6146101135780632d3802421461014e57806331f01ed714610172578063363da98e1461019e575b600080fd5b34801561011f57600080fd5b5061013161012e366004611b69565b90565b6040516001600160a01b0390911681526020015b60405180910390f35b34801561015a57600080fd5b50610164609c5481565b604051908152602001610145565b610185610180366004611bf4565b610350565b60405167ffffffffffffffff9091168152602001610145565b3480156101aa57600080fd5b506101be6101b9366004611b69565b6107c7565b005b3480156101cc57600080fd5b50610164609b5481565b3480156101e257600080fd5b506101be6101f1366004611c6e565b61080a565b34801561020257600080fd5b506101be610c02565b34801561021757600080fd5b506101be610226366004611cb0565b610c16565b34801561023757600080fd5b506033546001600160a01b0316610131565b34801561025557600080fd5b50610164610264366004611cdc565b609a6020526000908152604090205481565b34801561028257600080fd5b506101be610291366004611d15565b610c71565b3480156102a257600080fd5b506101646102b1366004611d60565b6001600160a01b031690565b3480156102c957600080fd5b50609954610131906001600160a01b031681565b3480156102e957600080fd5b50609754610131906001600160a01b031681565b34801561030957600080fd5b506101be610318366004611d60565b610f2c565b34801561032957600080fd5b50609854610131906001600160a01b031681565b61018561034b366004611d7d565b610fbc565b600061035a6113db565b61ffff86166000908152609a6020526040902054156103e65760405162461bcd60e51b815260206004820152602c60248201527f4e6f20576f726d686f6c6520744254432067617465776179206f6e207468652060448201527f6e617469766520636861696e000000000000000000000000000000000000000060648201526084015b60405180910390fd5b846104335760405162461bcd60e51b815260206004820152601960248201527f30783020726563697069656e74206e6f7420616c6c6f7765640000000000000060448201526064016103dd565b866000036104835760405162461bcd60e51b815260206004820152601460248201527f416d6f756e74206d757374206e6f74206265203000000000000000000000000060448201526064016103dd565b61048c87611434565b9650866000036104de5760405162461bcd60e51b815260206004820152601860248201527f416d6f756e7420746f6f206c6f7720746f20627269646765000000000000000060448201526064016103dd565b6098546040516370a0823160e01b815230600482015288916001600160a01b0316906370a0823190602401602060405180830381865afa158015610526573d6000803e3d6000fd5b505050506040513d601f19601f8201168201806040525081019061054a9190611dcf565b10156105be5760405162461bcd60e51b815260206004820152603160248201527f4e6f7420656e6f75676820776f726d686f6c65207442544320696e207468652060448201527f6761746577617920746f2062726964676500000000000000000000000000000060648201526084016103dd565b6040805188815261ffff88166020820152600081830181905260608201889052608082015263ffffffff861660a082015290517ffcdb8efef11d13bb0ebc515477ece314fdac305aeba3d6d9d371838bbe2435cf9181900360c00190a186609c5410156106935760405162461bcd60e51b815260206004820152603760248201527f4c32576f726d686f6c65476174657761793a20616d6f756e7420746f2073656e60448201527f642065786365656473206d696e74656420616d6f756e7400000000000000000060648201526084016103dd565b86609c60008282546106a59190611dfe565b909155505060995460405163079cc67960e41b8152336004820152602481018990526001600160a01b03909116906379cc679090604401600060405180830381600087803b1580156106f657600080fd5b505af115801561070a573d6000803e3d6000fd5b505060975460985461072b93506001600160a01b039081169250168961145c565b6097546098546040516362d2f5ed60e11b81526001600160a01b039283169263c5a5ebda92349261076e92909116908c908c908c908c908c908c90600401611e3a565b60206040518083038185885af115801561078c573d6000803e3d6000fd5b50505050506040513d601f19601f820116820180604052508101906107b19190611e8c565b90506107bd6001606555565b9695505050505050565b6107cf611616565b609b8190556040518181527f876c61ade8d7fbb62356eefa0f1cb0d6d95fc5269dbe8d0d636051daa88d73999060200160405180910390a150565b6108126113db565b6098546040516370a0823160e01b81523060048201526000916001600160a01b0316906370a0823190602401602060405180830381865afa15801561085b573d6000803e3d6000fd5b505050506040513d601f19601f8201168201806040525081019061087f9190611dcf565b6097546040517fc3f511c10000000000000000000000000000000000000000000000000000000081529192506000916001600160a01b039091169063c3f511c1906108d09087908790600401611eb6565b6000604051808303816000875af11580156108ef573d6000803e3d6000fd5b505050506040513d6000823e601f3d908101601f191682016040526109179190810190611fac565b6098546040516370a0823160e01b81523060048201529192506000916001600160a01b03909116906370a0823190602401602060405180830381865afa158015610965573d6000803e3d6000fd5b505050506040513d601f19601f820116820180604052508101906109899190611dcf565b905060006109978483611dfe565b9050600081116109e95760405162461bcd60e51b815260206004820152601360248201527f4e6f2074425443207472616e736665727265640000000000000000000000000060448201526064016103dd565b6097546040517fea63738d000000000000000000000000000000000000000000000000000000008152600091610a8b916001600160a01b039091169063ea63738d90610a3990889060040161200d565b600060405180830381865afa158015610a56573d6000803e3d6000fd5b505050506040513d6000823e601f3d908101601f19168201604052610a7e919081019061203c565b60e0015161012e90612105565b90506001600160a01b038116610ae35760405162461bcd60e51b815260206004820152601860248201527f307830207265636569766572206e6f7420616c6c6f776564000000000000000060448201526064016103dd565b609b5482609c54610af4919061212c565b1115610b1657609854610b11906001600160a01b03168284611670565b610bad565b81609c6000828254610b28919061212c565b90915550506099546040517f40c10f190000000000000000000000000000000000000000000000000000000081526001600160a01b03838116600483015260248201859052909116906340c10f1990604401600060405180830381600087803b158015610b9457600080fd5b505af1158015610ba8573d6000803e3d6000fd5b505050505b604080516001600160a01b0383168152602081018490527fc7f080a0d33152d54d5972f0bac2d7984089c4849e2af42bca1a572728d339d7910160405180910390a15050505050610bfe6001606555565b5050565b610c0a611616565b610c1460006116b9565b565b610c1e611616565b61ffff82166000818152609a6020908152604091829020849055815192835282018390527f1b29e2aa7a790fb04e7d6d73bf7ca63e2b4b1ffe0354fe94b4739c91f1a15359910160405180910390a15050565b600054610100900460ff1615808015610c915750600054600160ff909116105b80610cab5750303b158015610cab575060005460ff166001145b610d1d5760405162461bcd60e51b815260206004820152602e60248201527f496e697469616c697a61626c653a20636f6e747261637420697320616c72656160448201527f647920696e697469616c697a656400000000000000000000000000000000000060648201526084016103dd565b6000805460ff191660011790558015610d40576000805461ff0019166101001790555b610d48611718565b610d5061178b565b6001600160a01b038416610dcc5760405162461bcd60e51b815260206004820152602760248201527f576f726d686f6c65206272696467652061646472657373206d757374206e6f7460448201527f206265203078300000000000000000000000000000000000000000000000000060648201526084016103dd565b6001600160a01b038316610e2e5760405162461bcd60e51b8152602060048201526024808201527f42726964676520746f6b656e2061646472657373206d757374206e6f742062656044820152630203078360e41b60648201526084016103dd565b6001600160a01b038216610e905760405162461bcd60e51b8152602060048201526024808201527f4c325442544320746f6b656e2061646472657373206d757374206e6f742062656044820152630203078360e41b60648201526084016103dd565b609780546001600160a01b0380871673ffffffffffffffffffffffffffffffffffffffff1992831617909255609880548684169083161790556099805492851692909116919091179055600019609b558015610f26576000805461ff0019169055604051600181527f7f26b83ff96e1f2b6a682f133852f6798a09c465da95921460cefb38474024989060200160405180910390a15b50505050565b610f34611616565b6001600160a01b038116610fb05760405162461bcd60e51b815260206004820152602660248201527f4f776e61626c653a206e6577206f776e657220697320746865207a65726f206160448201527f646472657373000000000000000000000000000000000000000000000000000060648201526084016103dd565b610fb9816116b9565b50565b6000610fc66113db565b836110135760405162461bcd60e51b815260206004820152601960248201527f30783020726563697069656e74206e6f7420616c6c6f7765640000000000000060448201526064016103dd565b856000036110635760405162461bcd60e51b815260206004820152601460248201527f416d6f756e74206d757374206e6f74206265203000000000000000000000000060448201526064016103dd565b61106c86611434565b9550856000036110be5760405162461bcd60e51b815260206004820152601860248201527f416d6f756e7420746f6f206c6f7720746f20627269646765000000000000000060448201526064016103dd565b6098546040516370a0823160e01b815230600482015287916001600160a01b0316906370a0823190602401602060405180830381865afa158015611106573d6000803e3d6000fd5b505050506040513d601f19601f8201168201806040525081019061112a9190611dcf565b101561119e5760405162461bcd60e51b815260206004820152603160248201527f4e6f7420656e6f75676820776f726d686f6c65207442544320696e207468652060448201527f6761746577617920746f2062726964676500000000000000000000000000000060648201526084016103dd565b61ffff85166000818152609a60209081526040918290205482518a815291820193909352908101829052606081018690526080810185905263ffffffff841660a08201527ffcdb8efef11d13bb0ebc515477ece314fdac305aeba3d6d9d371838bbe2435cf9060c00160405180910390a186609c60008282546112219190611dfe565b909155505060995460405163079cc67960e41b8152336004820152602481018990526001600160a01b03909116906379cc679090604401600060405180830381600087803b15801561127257600080fd5b505af1158015611286573d6000803e3d6000fd5b50506097546098546112a793506001600160a01b039081169250168961145c565b8061136d576097546098546040517f0f5287b00000000000000000000000000000000000000000000000000000000081526001600160a01b039182166004820152602481018a905261ffff89166044820152606481018890526084810187905263ffffffff861660a4820152911690630f5287b090349060c4015b60206040518083038185885af1158015611340573d6000803e3d6000fd5b50505050506040513d601f19601f820116820180604052508101906113659190611e8c565b9150506113c8565b6097546098546040805160208082018a905282518083039091018152818301928390526362d2f5ed60e11b9092526001600160a01b039384169363c5a5ebda9334936113229392909116918d918d9189918c9160440161213f565b6113d26001606555565b95945050505050565b60026065540361142d5760405162461bcd60e51b815260206004820152601f60248201527f5265656e7472616e637947756172643a207265656e7472616e742063616c6c0060448201526064016103dd565b6002606555565b60006114456402540be4008361218f565b91506114566402540be400836121b1565b92915050565b8015806114ef57506040517fdd62ed3e0000000000000000000000000000000000000000000000000000000081523060048201526001600160a01b03838116602483015284169063dd62ed3e90604401602060405180830381865afa1580156114c9573d6000803e3d6000fd5b505050506040513d601f19601f820116820180604052508101906114ed9190611dcf565b155b6115615760405162461bcd60e51b815260206004820152603660248201527f5361666545524332303a20617070726f76652066726f6d206e6f6e2d7a65726f60448201527f20746f206e6f6e2d7a65726f20616c6c6f77616e63650000000000000000000060648201526084016103dd565b6040516001600160a01b03831660248201526044810182905261160a9084907f095ea7b300000000000000000000000000000000000000000000000000000000906064015b60408051601f198184030181529190526020810180517bffffffffffffffffffffffffffffffffffffffffffffffffffffffff167fffffffff00000000000000000000000000000000000000000000000000000000909316929092179091526117fe565b505050565b6001606555565b6033546001600160a01b03163314610c145760405162461bcd60e51b815260206004820181905260248201527f4f776e61626c653a2063616c6c6572206973206e6f7420746865206f776e657260448201526064016103dd565b6040516001600160a01b03831660248201526044810182905261160a9084907fa9059cbb00000000000000000000000000000000000000000000000000000000906064016115a6565b603380546001600160a01b0383811673ffffffffffffffffffffffffffffffffffffffff19831681179093556040519116919082907f8be0079c531659141344cd1fd0a4f28419497f9722a3daafe3b4186f6b6457e090600090a35050565b600054610100900460ff166117835760405162461bcd60e51b815260206004820152602b60248201527f496e697469616c697a61626c653a20636f6e7472616374206973206e6f74206960448201526a6e697469616c697a696e6760a81b60648201526084016103dd565b610c146118e3565b600054610100900460ff166117f65760405162461bcd60e51b815260206004820152602b60248201527f496e697469616c697a61626c653a20636f6e7472616374206973206e6f74206960448201526a6e697469616c697a696e6760a81b60648201526084016103dd565b610c14611957565b6000611853826040518060400160405280602081526020017f5361666545524332303a206c6f772d6c6576656c2063616c6c206661696c6564815250856001600160a01b03166119c29092919063ffffffff16565b80519091501561160a578080602001905181019061187191906121c8565b61160a5760405162461bcd60e51b815260206004820152602a60248201527f5361666545524332303a204552433230206f7065726174696f6e20646964206e60448201527f6f7420737563636565640000000000000000000000000000000000000000000060648201526084016103dd565b600054610100900460ff1661194e5760405162461bcd60e51b815260206004820152602b60248201527f496e697469616c697a61626c653a20636f6e7472616374206973206e6f74206960448201526a6e697469616c697a696e6760a81b60648201526084016103dd565b610c14336116b9565b600054610100900460ff1661160f5760405162461bcd60e51b815260206004820152602b60248201527f496e697469616c697a61626c653a20636f6e7472616374206973206e6f74206960448201526a6e697469616c697a696e6760a81b60648201526084016103dd565b60606119d184846000856119d9565b949350505050565b606082471015611a515760405162461bcd60e51b815260206004820152602660248201527f416464726573733a20696e73756666696369656e742062616c616e636520666f60448201527f722063616c6c000000000000000000000000000000000000000000000000000060648201526084016103dd565b600080866001600160a01b03168587604051611a6d91906121ea565b60006040518083038185875af1925050503d8060008114611aaa576040519150601f19603f3d011682016040523d82523d6000602084013e611aaf565b606091505b5091509150611ac087838387611acb565b979650505050505050565b60608315611b3a578251600003611b33576001600160a01b0385163b611b335760405162461bcd60e51b815260206004820152601d60248201527f416464726573733a2063616c6c20746f206e6f6e2d636f6e747261637400000060448201526064016103dd565b50816119d1565b6119d18383815115611b4f5781518083602001fd5b8060405162461bcd60e51b81526004016103dd919061200d565b600060208284031215611b7b57600080fd5b5035919050565b61ffff81168114610fb957600080fd5b803563ffffffff81168114611ba657600080fd5b919050565b60008083601f840112611bbd57600080fd5b50813567ffffffffffffffff811115611bd557600080fd5b602083019150836020828501011115611bed57600080fd5b9250929050565b60008060008060008060a08789031215611c0d57600080fd5b863595506020870135611c1f81611b82565b945060408701359350611c3460608801611b92565b9250608087013567ffffffffffffffff811115611c5057600080fd5b611c5c89828a01611bab565b979a9699509497509295939492505050565b60008060208385031215611c8157600080fd5b823567ffffffffffffffff811115611c9857600080fd5b611ca485828601611bab565b90969095509350505050565b60008060408385031215611cc357600080fd5b8235611cce81611b82565b946020939093013593505050565b600060208284031215611cee57600080fd5b8135611cf981611b82565b9392505050565b6001600160a01b0381168114610fb957600080fd5b600080600060608486031215611d2a57600080fd5b8335611d3581611d00565b92506020840135611d4581611d00565b91506040840135611d5581611d00565b809150509250925092565b600060208284031215611d7257600080fd5b8135611cf981611d00565b600080600080600060a08688031215611d9557600080fd5b853594506020860135611da781611b82565b93506040860135925060608601359150611dc360808701611b92565b90509295509295909350565b600060208284031215611de157600080fd5b5051919050565b634e487b7160e01b600052601160045260246000fd5b8181038181111561145657611456611de8565b81835281816020850137506000828201602090810191909152601f909101601f19169091010190565b6001600160a01b038816815286602082015261ffff8616604082015284606082015263ffffffff8416608082015260c060a08201526000611e7f60c083018486611e11565b9998505050505050505050565b600060208284031215611e9e57600080fd5b815167ffffffffffffffff81168114611cf957600080fd5b6020815260006119d1602083018486611e11565b634e487b7160e01b600052604160045260246000fd5b604051610100810167ffffffffffffffff81118282101715611f0457611f04611eca565b60405290565b60005b83811015611f25578181015183820152602001611f0d565b50506000910152565b600082601f830112611f3f57600080fd5b815167ffffffffffffffff80821115611f5a57611f5a611eca565b604051601f8301601f19908116603f01168101908282118183101715611f8257611f82611eca565b81604052838152866020858801011115611f9b57600080fd5b6107bd846020830160208901611f0a565b600060208284031215611fbe57600080fd5b815167ffffffffffffffff811115611fd557600080fd5b6119d184828501611f2e565b60008151808452611ff9816020860160208601611f0a565b601f01601f19169290920160200192915050565b602081526000611cf96020830184611fe1565b805160ff81168114611ba657600080fd5b8051611ba681611b82565b60006020828403121561204e57600080fd5b815167ffffffffffffffff8082111561206657600080fd5b90830190610100828603121561207b57600080fd5b612083611ee0565b61208c83612020565b815260208301516020820152604083015160408201526120ae60608401612031565b6060820152608083015160808201526120c960a08401612031565b60a082015260c083015160c082015260e0830151828111156120ea57600080fd5b6120f687828601611f2e565b60e08301525095945050505050565b80516020808301519190811015612126576000198160200360031b1b821691505b50919050565b8082018082111561145657611456611de8565b6001600160a01b038716815285602082015261ffff8516604082015283606082015263ffffffff8316608082015260c060a0820152600061218360c0830184611fe1565b98975050505050505050565b6000826121ac57634e487b7160e01b600052601260045260246000fd5b500490565b808202811582820484141761145657611456611de8565b6000602082840312156121da57600080fd5b81518015158114611cf957600080fd5b600082516121fc818460208701611f0a565b919091019291505056fea2646970667358221220a980e3ee7b8c177c2ea46ed6b994a7191861d6bc1954a8addf13602899b8632364736f6c63430008110033",
  "devdoc": {
    "details": "This contract is intended solely for testing purposes. As it currently      stands in the implementation of L2WormholeGateway.sol, there are no      reserved storage gap slots available, thereby limiting the upgradability      to a child contract only.",
    "kind": "dev",
    "methods": {
      "constructor": {
        "custom:oz-upgrades-unsafe-allow": "constructor"
      },
      "fromWormholeAddress(bytes32)": {
        "params": {
          "_address": "The address to convert."
        }
      },
      "owner()": {
        "details": "Returns the address of the current owner."
      },
      "receiveTbtc(bytes)": {
        "details": "Requirements:      - The receiver of Wormhole tBTC should be the L2WormholeGateway        contract.      - The receiver of the canonical tBTC should be abi-encoded in the        payload.      - The receiver of the canonical tBTC must not be the zero address.      The Wormhole Token Bridge contract has protection against redeeming      the same VAA again. When a Token Bridge VAA is redeemed, its      message body hash is stored in a map. This map is used to check      whether the hash has already been set in this map. For this reason,      this function does not have to be nonReentrant in theory. However,      to make this function non-dependent on Wormhole Bridge implementation,      we are making it nonReentrant anyway.",
        "params": {
          "encodedVm": "A byte array containing a Wormhole VAA signed by the        guardians."
        }
      },
      "renounceOwnership()": {
        "details": "Leaves the contract without owner. It will not be possible to call `onlyOwner` functions anymore. Can only be called by the current owner. NOTE: Renouncing ownership will leave the contract without an owner, thereby removing any functionality that is only available to the owner."
      },
      "sendTbtc(uint256,uint16,bytes32,uint256,uint32)": {
        "details": "Requirements:      - The sender must have at least `amount` of the canonical tBTC and        it has to be approved for L2WormholeGateway.      - The L2WormholeGateway must have at least `amount` of the wormhole        tBTC.      - The recipient must not be 0x0.      - The amount to transfer must not be 0,      - The amount to transfer must be >= 10^10 (1e18 precision).      Depending if Wormhole tBTC gateway is registered on the target      chain, this function uses transfer or transfer with payload over      the Wormhole bridge.",
        "params": {
          "amount": "The amount of tBTC to be sent.",
          "arbiterFee": "The Wormhole arbiter fee. Ignored if sending                   tBTC to chain with Wormhole tBTC gateway.",
          "nonce": "The Wormhole nonce used to batch messages together.",
          "recipient": "The address of the recipient in the Wormhole format.",
          "recipientChain": "The Wormhole recipient chain ID."
        },
        "returns": {
          "_0": "The Wormhole sequence number."
        }
      },
      "sendTbtcWithPayloadToNativeChain(uint256,uint16,bytes32,uint32,bytes)": {
        "details": "Requirements:      - The native chain doesn't have a Wormhole tBTC gateway, so the token        minted by Wormhole should be considered canonical.      - The sender must have at least `amount` of the canonical tBTC and        it has to be approved for L2WormholeGateway.      - The L2WormholeGateway must have at least `amount` of the wormhole        tBTC.      - The recipient must not be 0x0.      - The amount to transfer must not be 0,      - The amount to transfer must be >= 10^10 (1e18 precision).      This function uses `transferTokensWithPayload` to send tBTC directly      to the `recipient` contract address on the recipient chain. The `arbiterFee` is      not applicable and implicitly 0.",
        "params": {
          "amount": "The amount of tBTC to be sent.",
          "nonce": "The Wormhole nonce used to batch messages together.",
          "payload": "The arbitrary data to be passed to and processed by the `recipient`                contract on the recipient chain.",
          "recipient": "The Wormhole-formatted address of the target contract on the recipient chain                  that will receive the tokens and process the payload.",
          "recipientNativeChain": "The Wormhole chain ID of the recipient chain."
        },
        "returns": {
          "_0": "The Wormhole sequence number."
        }
      },
      "toWormholeAddress(address)": {
        "params": {
          "_address": "The address to convert."
        }
      },
      "transferOwnership(address)": {
        "details": "Transfers ownership of the contract to a new account (`newOwner`). Can only be called by the current owner."
      },
      "updateGatewayAddress(uint16,bytes32)": {
        "details": "Use toWormholeAddress function to convert between Ethereum and      Wormhole address formats.",
        "params": {
          "chainId": "Wormhole ID of the chain.",
          "gateway": "Address of tBTC gateway on the given chain in a Wormhole                format."
        }
      },
      "updateMintingLimit(uint256)": {
        "params": {
          "_mintingLimit": "The new minting limit."
        }
      }
    },
    "version": 1
  },
  "userdoc": {
    "kind": "user",
    "methods": {
      "bridge()": {
        "notice": "Reference to the Wormhole Token Bridge contract."
      },
      "bridgeToken()": {
        "notice": "Wormhole tBTC token representation."
      },
      "fromWormholeAddress(bytes32)": {
        "notice": "Converts Wormhole address into Ethereum format."
      },
      "gateways(uint16)": {
        "notice": "Maps Wormhole chain ID to the Wormhole tBTC gateway address on         that chain. For example, this chain's ID should be mapped to         this contract's address. If there is no Wormhole tBTC gateway         address on the given chain, there is no entry in this mapping.         The mapping holds addresses in a Wormhole-specific format, where         Ethereum address is left-padded with zeros."
      },
      "mintedAmount()": {
        "notice": "The amount of tBTC minted by this contract. tBTC burned by this         contract decreases this amount."
      },
      "mintingLimit()": {
        "notice": "Minting limit for this gateway. Useful for early days of testing         the system. The gateway can not mint more canonical tBTC than         this limit."
      },
      "receiveTbtc(bytes)": {
        "notice": "This function is called when the user redeems their token on L2.         The contract receives Wormhole tBTC representation and mints the         canonical tBTC for the user.         If the tBTC minting limit has been reached by this contract,         instead of minting tBTC the receiver address receives Wormhole         tBTC representation."
      },
      "sendTbtc(uint256,uint16,bytes32,uint256,uint32)": {
        "notice": "This function is called when the user sends their token from L2.         The contract burns the canonical tBTC from the user and sends         wormhole tBTC representation over the bridge.         Keep in mind that when multiple bridges receive a minting         authority on the canonical tBTC, this function may not be able         to send all amounts of tBTC through the Wormhole bridge. The         capability of Wormhole Bridge to send tBTC from the chain is         limited to the amount of tBTC bridged through Wormhole to that         chain."
      },
      "sendTbtcWithPayloadToNativeChain(uint256,uint16,bytes32,uint32,bytes)": {
        "notice": "This function is called when the user sends their token from L2.         The contract burns the canonical tBTC from the user and sends         wormhole tBTC representation over the bridge.         Keep in mind that when multiple bridges receive a minting         authority on the canonical tBTC, this function may not be able         to send all amounts of tBTC through the Wormhole bridge. The         capability of Wormhole Bridge to send tBTC from the chain is         limited to the amount of tBTC bridged through Wormhole to that         chain."
      },
      "tbtc()": {
        "notice": "Canonical tBTC token."
      },
      "toWormholeAddress(address)": {
        "notice": "Converts Ethereum address into Wormhole format."
      },
      "updateGatewayAddress(uint16,bytes32)": {
        "notice": "Lets the governance to update the tBTC gateway address on the         chain with the given Wormhole ID."
      },
      "updateMintingLimit(uint256)": {
        "notice": "Lets the governance to update the tBTC minting limit for this         contract."
      }
    },
    "notice": "Wormhole gateway for L2 Base - upgraded version.",
    "version": 1
  },
  "storageLayout": {
    "storage": [
      {
        "astId": 5826,
        "contract": "contracts/wormhole/BaseWormholeGatewayUpgraded.sol:BaseWormholeGatewayUpgraded",
        "label": "_initialized",
        "offset": 0,
        "slot": "0",
        "type": "t_uint8"
      },
      {
        "astId": 5829,
        "contract": "contracts/wormhole/BaseWormholeGatewayUpgraded.sol:BaseWormholeGatewayUpgraded",
        "label": "_initializing",
        "offset": 1,
        "slot": "0",
        "type": "t_bool"
      },
      {
        "astId": 7916,
        "contract": "contracts/wormhole/BaseWormholeGatewayUpgraded.sol:BaseWormholeGatewayUpgraded",
        "label": "__gap",
        "offset": 0,
        "slot": "1",
        "type": "t_array(t_uint256)50_storage"
      },
      {
        "astId": 5698,
        "contract": "contracts/wormhole/BaseWormholeGatewayUpgraded.sol:BaseWormholeGatewayUpgraded",
        "label": "_owner",
        "offset": 0,
        "slot": "51",
        "type": "t_address"
      },
      {
        "astId": 5818,
        "contract": "contracts/wormhole/BaseWormholeGatewayUpgraded.sol:BaseWormholeGatewayUpgraded",
        "label": "__gap",
        "offset": 0,
        "slot": "52",
        "type": "t_array(t_uint256)49_storage"
      },
      {
        "astId": 6129,
        "contract": "contracts/wormhole/BaseWormholeGatewayUpgraded.sol:BaseWormholeGatewayUpgraded",
        "label": "_status",
        "offset": 0,
        "slot": "101",
        "type": "t_uint256"
      },
      {
        "astId": 6187,
        "contract": "contracts/wormhole/BaseWormholeGatewayUpgraded.sol:BaseWormholeGatewayUpgraded",
        "label": "__gap",
        "offset": 0,
        "slot": "102",
        "type": "t_array(t_uint256)49_storage"
      },
      {
        "astId": 12852,
        "contract": "contracts/wormhole/BaseWormholeGatewayUpgraded.sol:BaseWormholeGatewayUpgraded",
        "label": "bridge",
        "offset": 0,
        "slot": "151",
        "type": "t_contract(IWormholeTokenBridge)12837"
      },
      {
        "astId": 12856,
        "contract": "contracts/wormhole/BaseWormholeGatewayUpgraded.sol:BaseWormholeGatewayUpgraded",
        "label": "bridgeToken",
        "offset": 0,
        "slot": "152",
        "type": "t_contract(IERC20Upgradeable)6878"
      },
      {
        "astId": 12860,
        "contract": "contracts/wormhole/BaseWormholeGatewayUpgraded.sol:BaseWormholeGatewayUpgraded",
        "label": "tbtc",
        "offset": 0,
        "slot": "153",
        "type": "t_contract(L2TBTC)4999"
      },
      {
        "astId": 12865,
        "contract": "contracts/wormhole/BaseWormholeGatewayUpgraded.sol:BaseWormholeGatewayUpgraded",
        "label": "gateways",
        "offset": 0,
        "slot": "154",
        "type": "t_mapping(t_uint16,t_bytes32)"
      },
      {
        "astId": 12868,
        "contract": "contracts/wormhole/BaseWormholeGatewayUpgraded.sol:BaseWormholeGatewayUpgraded",
        "label": "mintingLimit",
        "offset": 0,
        "slot": "155",
        "type": "t_uint256"
      },
      {
        "astId": 12871,
        "contract": "contracts/wormhole/BaseWormholeGatewayUpgraded.sol:BaseWormholeGatewayUpgraded",
        "label": "mintedAmount",
        "offset": 0,
        "slot": "156",
        "type": "t_uint256"
      }
    ],
    "types": {
      "t_address": {
        "encoding": "inplace",
        "label": "address",
        "numberOfBytes": "20"
      },
      "t_array(t_uint256)49_storage": {
        "base": "t_uint256",
        "encoding": "inplace",
        "label": "uint256[49]",
        "numberOfBytes": "1568"
      },
      "t_array(t_uint256)50_storage": {
        "base": "t_uint256",
        "encoding": "inplace",
        "label": "uint256[50]",
        "numberOfBytes": "1600"
      },
      "t_bool": {
        "encoding": "inplace",
        "label": "bool",
        "numberOfBytes": "1"
      },
      "t_bytes32": {
        "encoding": "inplace",
        "label": "bytes32",
        "numberOfBytes": "32"
      },
      "t_contract(IERC20Upgradeable)6878": {
        "encoding": "inplace",
        "label": "contract IERC20Upgradeable",
        "numberOfBytes": "20"
      },
      "t_contract(IWormholeTokenBridge)12837": {
        "encoding": "inplace",
        "label": "contract IWormholeTokenBridge",
        "numberOfBytes": "20"
      },
      "t_contract(L2TBTC)4999": {
        "encoding": "inplace",
        "label": "contract L2TBTC",
        "numberOfBytes": "20"
      },
      "t_mapping(t_uint16,t_bytes32)": {
        "encoding": "mapping",
        "key": "t_uint16",
        "label": "mapping(uint16 => bytes32)",
        "numberOfBytes": "32",
        "value": "t_bytes32"
      },
      "t_uint16": {
        "encoding": "inplace",
        "label": "uint16",
        "numberOfBytes": "2"
      },
      "t_uint256": {
        "encoding": "inplace",
        "label": "uint256",
        "numberOfBytes": "32"
      },
      "t_uint8": {
        "encoding": "inplace",
        "label": "uint8",
        "numberOfBytes": "1"
      }
    }
  }
}