{
  "address": "0xcBCFA3eb5E067173b262ACe62f9dD87f1D2Cc0Cf",
  "abi": [
    {
      "inputs": [
        {
          "internalType": "contract Bridge",
          "name": "_bridge",
          "type": "address"
        },
        {
          "internalType": "uint256",
          "name": "_governanceDelay",
          "type": "uint256"
        }
      ],
      "stateMutability": "nonpayable",
      "type": "constructor"
    },
    {
      "anonymous": false,
      "inputs": [
        {
          "indexed": false,
          "internalType": "address",
          "name": "newBridgeGovernance",
          "type": "address"
        },
        {
          "indexed": false,
          "internalType": "uint256",
          "name": "timestamp",
          "type": "uint256"
        }
      ],
      "name": "BridgeGovernanceTransferStarted",
      "type": "event"
    },
    {
      "anonymous": false,
      "inputs": [
        {
          "indexed": false,
          "internalType": "uint64",
          "name": "newDepositDustThreshold",
          "type": "uint64"
        },
        {
          "indexed": false,
          "internalType": "uint256",
          "name": "timestamp",
          "type": "uint256"
        }
      ],
      "name": "DepositDustThresholdUpdateStarted",
      "type": "event"
    },
    {
      "anonymous": false,
      "inputs": [
        {
          "indexed": false,
          "internalType": "uint64",
          "name": "depositDustThreshold",
          "type": "uint64"
        }
      ],
      "name": "DepositDustThresholdUpdated",
      "type": "event"
    },
    {
      "anonymous": false,
      "inputs": [
        {
          "indexed": false,
          "internalType": "uint32",
          "name": "newDepositRevealAheadPeriod",
          "type": "uint32"
        },
        {
          "indexed": false,
          "internalType": "uint256",
          "name": "timestamp",
          "type": "uint256"
        }
      ],
      "name": "DepositRevealAheadPeriodUpdateStarted",
      "type": "event"
    },
    {
      "anonymous": false,
      "inputs": [
        {
          "indexed": false,
          "internalType": "uint32",
          "name": "depositRevealAheadPeriod",
          "type": "uint32"
        }
      ],
      "name": "DepositRevealAheadPeriodUpdated",
      "type": "event"
    },
    {
      "anonymous": false,
      "inputs": [
        {
          "indexed": false,
          "internalType": "uint64",
          "name": "depositTreasuryFeeDivisor",
          "type": "uint64"
        },
        {
          "indexed": false,
          "internalType": "uint256",
          "name": "timestamp",
          "type": "uint256"
        }
      ],
      "name": "DepositTreasuryFeeDivisorUpdateStarted",
      "type": "event"
    },
    {
      "anonymous": false,
      "inputs": [
        {
          "indexed": false,
          "internalType": "uint64",
          "name": "depositTreasuryFeeDivisor",
          "type": "uint64"
        }
      ],
      "name": "DepositTreasuryFeeDivisorUpdated",
      "type": "event"
    },
    {
      "anonymous": false,
      "inputs": [
        {
          "indexed": false,
          "internalType": "uint64",
          "name": "newDepositTxMaxFee",
          "type": "uint64"
        },
        {
          "indexed": false,
          "internalType": "uint256",
          "name": "timestamp",
          "type": "uint256"
        }
      ],
      "name": "DepositTxMaxFeeUpdateStarted",
      "type": "event"
    },
    {
      "anonymous": false,
      "inputs": [
        {
          "indexed": false,
          "internalType": "uint64",
          "name": "depositTxMaxFee",
          "type": "uint64"
        }
      ],
      "name": "DepositTxMaxFeeUpdated",
      "type": "event"
    },
    {
      "anonymous": false,
      "inputs": [
        {
          "indexed": false,
          "internalType": "uint32",
          "name": "newFraudChallengeDefeatTimeout",
          "type": "uint32"
        },
        {
          "indexed": false,
          "internalType": "uint256",
          "name": "timestamp",
          "type": "uint256"
        }
      ],
      "name": "FraudChallengeDefeatTimeoutUpdateStarted",
      "type": "event"
    },
    {
      "anonymous": false,
      "inputs": [
        {
          "indexed": false,
          "internalType": "uint32",
          "name": "fraudChallengeDefeatTimeout",
          "type": "uint32"
        }
      ],
      "name": "FraudChallengeDefeatTimeoutUpdated",
      "type": "event"
    },
    {
      "anonymous": false,
      "inputs": [
        {
          "indexed": false,
          "internalType": "uint96",
          "name": "newFraudChallengeDepositAmount",
          "type": "uint96"
        },
        {
          "indexed": false,
          "internalType": "uint256",
          "name": "timestamp",
          "type": "uint256"
        }
      ],
      "name": "FraudChallengeDepositAmountUpdateStarted",
      "type": "event"
    },
    {
      "anonymous": false,
      "inputs": [
        {
          "indexed": false,
          "internalType": "uint96",
          "name": "fraudChallengeDepositAmount",
          "type": "uint96"
        }
      ],
      "name": "FraudChallengeDepositAmountUpdated",
      "type": "event"
    },
    {
      "anonymous": false,
      "inputs": [
        {
          "indexed": false,
          "internalType": "uint32",
          "name": "newFraudNotifierRewardMultiplier",
          "type": "uint32"
        },
        {
          "indexed": false,
          "internalType": "uint256",
          "name": "timestamp",
          "type": "uint256"
        }
      ],
      "name": "FraudNotifierRewardMultiplierUpdateStarted",
      "type": "event"
    },
    {
      "anonymous": false,
      "inputs": [
        {
          "indexed": false,
          "internalType": "uint32",
          "name": "fraudNotifierRewardMultiplier",
          "type": "uint32"
        }
      ],
      "name": "FraudNotifierRewardMultiplierUpdated",
      "type": "event"
    },
    {
      "anonymous": false,
      "inputs": [
        {
          "indexed": false,
          "internalType": "uint96",
          "name": "newFraudSlashingAmount",
          "type": "uint96"
        },
        {
          "indexed": false,
          "internalType": "uint256",
          "name": "timestamp",
          "type": "uint256"
        }
      ],
      "name": "FraudSlashingAmountUpdateStarted",
      "type": "event"
    },
    {
      "anonymous": false,
      "inputs": [
        {
          "indexed": false,
          "internalType": "uint96",
          "name": "fraudSlashingAmount",
          "type": "uint96"
        }
      ],
      "name": "FraudSlashingAmountUpdated",
      "type": "event"
    },
    {
      "anonymous": false,
      "inputs": [
        {
          "indexed": false,
          "internalType": "uint32",
          "name": "newMovedFundsSweepTimeoutNotifierRewardMultiplier",
          "type": "uint32"
        },
        {
          "indexed": false,
          "internalType": "uint256",
          "name": "timestamp",
          "type": "uint256"
        }
      ],
      "name": "MovedFundsSweepTimeoutNotifierRewardMultiplierUpdateStarted",
      "type": "event"
    },
    {
      "anonymous": false,
      "inputs": [
        {
          "indexed": false,
          "internalType": "uint32",
          "name": "movedFundsSweepTimeoutNotifierRewardMultiplier",
          "type": "uint32"
        }
      ],
      "name": "MovedFundsSweepTimeoutNotifierRewardMultiplierUpdated",
      "type": "event"
    },
    {
      "anonymous": false,
      "inputs": [
        {
          "indexed": false,
          "internalType": "uint96",
          "name": "newMovedFundsSweepTimeoutSlashingAmount",
          "type": "uint96"
        },
        {
          "indexed": false,
          "internalType": "uint256",
          "name": "timestamp",
          "type": "uint256"
        }
      ],
      "name": "MovedFundsSweepTimeoutSlashingAmountUpdateStarted",
      "type": "event"
    },
    {
      "anonymous": false,
      "inputs": [
        {
          "indexed": false,
          "internalType": "uint96",
          "name": "movedFundsSweepTimeoutSlashingAmount",
          "type": "uint96"
        }
      ],
      "name": "MovedFundsSweepTimeoutSlashingAmountUpdated",
      "type": "event"
    },
    {
      "anonymous": false,
      "inputs": [
        {
          "indexed": false,
          "internalType": "uint32",
          "name": "newMovedFundsSweepTimeout",
          "type": "uint32"
        },
        {
          "indexed": false,
          "internalType": "uint256",
          "name": "timestamp",
          "type": "uint256"
        }
      ],
      "name": "MovedFundsSweepTimeoutUpdateStarted",
      "type": "event"
    },
    {
      "anonymous": false,
      "inputs": [
        {
          "indexed": false,
          "internalType": "uint32",
          "name": "movedFundsSweepTimeout",
          "type": "uint32"
        }
      ],
      "name": "MovedFundsSweepTimeoutUpdated",
      "type": "event"
    },
    {
      "anonymous": false,
      "inputs": [
        {
          "indexed": false,
          "internalType": "uint64",
          "name": "newMovedFundsSweepTxMaxTotalFee",
          "type": "uint64"
        },
        {
          "indexed": false,
          "internalType": "uint256",
          "name": "timestamp",
          "type": "uint256"
        }
      ],
      "name": "MovedFundsSweepTxMaxTotalFeeUpdateStarted",
      "type": "event"
    },
    {
      "anonymous": false,
      "inputs": [
        {
          "indexed": false,
          "internalType": "uint64",
          "name": "movedFundsSweepTxMaxTotalFee",
          "type": "uint64"
        }
      ],
      "name": "MovedFundsSweepTxMaxTotalFeeUpdated",
      "type": "event"
    },
    {
      "anonymous": false,
      "inputs": [
        {
          "indexed": false,
          "internalType": "uint16",
          "name": "newMovingFundsCommitmentGasOffset",
          "type": "uint16"
        },
        {
          "indexed": false,
          "internalType": "uint256",
          "name": "timestamp",
          "type": "uint256"
        }
      ],
      "name": "MovingFundsCommitmentGasOffsetUpdateStarted",
      "type": "event"
    },
    {
      "anonymous": false,
      "inputs": [
        {
          "indexed": false,
          "internalType": "uint16",
          "name": "movingFundsCommitmentGasOffset",
          "type": "uint16"
        }
      ],
      "name": "MovingFundsCommitmentGasOffsetUpdated",
      "type": "event"
    },
    {
      "anonymous": false,
      "inputs": [
        {
          "indexed": false,
          "internalType": "uint64",
          "name": "newMovingFundsDustThreshold",
          "type": "uint64"
        },
        {
          "indexed": false,
          "internalType": "uint256",
          "name": "timestamp",
          "type": "uint256"
        }
      ],
      "name": "MovingFundsDustThresholdUpdateStarted",
      "type": "event"
    },
    {
      "anonymous": false,
      "inputs": [
        {
          "indexed": false,
          "internalType": "uint64",
          "name": "movingFundsDustThreshold",
          "type": "uint64"
        }
      ],
      "name": "MovingFundsDustThresholdUpdated",
      "type": "event"
    },
    {
      "anonymous": false,
      "inputs": [
        {
          "indexed": false,
          "internalType": "uint32",
          "name": "newMovingFundsTimeoutNotifierRewardMultiplier",
          "type": "uint32"
        },
        {
          "indexed": false,
          "internalType": "uint256",
          "name": "timestamp",
          "type": "uint256"
        }
      ],
      "name": "MovingFundsTimeoutNotifierRewardMultiplierUpdateStarted",
      "type": "event"
    },
    {
      "anonymous": false,
      "inputs": [
        {
          "indexed": false,
          "internalType": "uint32",
          "name": "movingFundsTimeoutNotifierRewardMultiplier",
          "type": "uint32"
        }
      ],
      "name": "MovingFundsTimeoutNotifierRewardMultiplierUpdated",
      "type": "event"
    },
    {
      "anonymous": false,
      "inputs": [
        {
          "indexed": false,
          "internalType": "uint32",
          "name": "newMovingFundsTimeoutResetDelay",
          "type": "uint32"
        },
        {
          "indexed": false,
          "internalType": "uint256",
          "name": "timestamp",
          "type": "uint256"
        }
      ],
      "name": "MovingFundsTimeoutResetDelayUpdateStarted",
      "type": "event"
    },
    {
      "anonymous": false,
      "inputs": [
        {
          "indexed": false,
          "internalType": "uint32",
          "name": "movingFundsTimeoutResetDelay",
          "type": "uint32"
        }
      ],
      "name": "MovingFundsTimeoutResetDelayUpdated",
      "type": "event"
    },
    {
      "anonymous": false,
      "inputs": [
        {
          "indexed": false,
          "internalType": "uint96",
          "name": "newMovingFundsTimeoutSlashingAmount",
          "type": "uint96"
        },
        {
          "indexed": false,
          "internalType": "uint256",
          "name": "timestamp",
          "type": "uint256"
        }
      ],
      "name": "MovingFundsTimeoutSlashingAmountUpdateStarted",
      "type": "event"
    },
    {
      "anonymous": false,
      "inputs": [
        {
          "indexed": false,
          "internalType": "uint96",
          "name": "movingFundsTimeoutSlashingAmount",
          "type": "uint96"
        }
      ],
      "name": "MovingFundsTimeoutSlashingAmountUpdated",
      "type": "event"
    },
    {
      "anonymous": false,
      "inputs": [
        {
          "indexed": false,
          "internalType": "uint32",
          "name": "newMovingFundsTimeout",
          "type": "uint32"
        },
        {
          "indexed": false,
          "internalType": "uint256",
          "name": "timestamp",
          "type": "uint256"
        }
      ],
      "name": "MovingFundsTimeoutUpdateStarted",
      "type": "event"
    },
    {
      "anonymous": false,
      "inputs": [
        {
          "indexed": false,
          "internalType": "uint32",
          "name": "movingFundsTimeout",
          "type": "uint32"
        }
      ],
      "name": "MovingFundsTimeoutUpdated",
      "type": "event"
    },
    {
      "anonymous": false,
      "inputs": [
        {
          "indexed": false,
          "internalType": "uint64",
          "name": "newMovingFundsTxMaxTotalFee",
          "type": "uint64"
        },
        {
          "indexed": false,
          "internalType": "uint256",
          "name": "timestamp",
          "type": "uint256"
        }
      ],
      "name": "MovingFundsTxMaxTotalFeeUpdateStarted",
      "type": "event"
    },
    {
      "anonymous": false,
      "inputs": [
        {
          "indexed": false,
          "internalType": "uint64",
          "name": "movingFundsTxMaxTotalFee",
          "type": "uint64"
        }
      ],
      "name": "MovingFundsTxMaxTotalFeeUpdated",
      "type": "event"
    },
    {
      "anonymous": false,
      "inputs": [
        {
          "indexed": true,
          "internalType": "address",
          "name": "previousOwner",
          "type": "address"
        },
        {
          "indexed": true,
          "internalType": "address",
          "name": "newOwner",
          "type": "address"
        }
      ],
      "name": "OwnershipTransferred",
      "type": "event"
    },
    {
      "anonymous": false,
      "inputs": [
        {
          "indexed": false,
          "internalType": "uint64",
          "name": "newRedemptionDustThreshold",
          "type": "uint64"
        },
        {
          "indexed": false,
          "internalType": "uint256",
          "name": "timestamp",
          "type": "uint256"
        }
      ],
      "name": "RedemptionDustThresholdUpdateStarted",
      "type": "event"
    },
    {
      "anonymous": false,
      "inputs": [
        {
          "indexed": false,
          "internalType": "uint64",
          "name": "redemptionDustThreshold",
          "type": "uint64"
        }
      ],
      "name": "RedemptionDustThresholdUpdated",
      "type": "event"
    },
    {
      "anonymous": false,
      "inputs": [
        {
          "indexed": false,
          "internalType": "uint32",
          "name": "newRedemptionTimeoutNotifierRewardMultiplier",
          "type": "uint32"
        },
        {
          "indexed": false,
          "internalType": "uint256",
          "name": "timestamp",
          "type": "uint256"
        }
      ],
      "name": "RedemptionTimeoutNotifierRewardMultiplierUpdateStarted",
      "type": "event"
    },
    {
      "anonymous": false,
      "inputs": [
        {
          "indexed": false,
          "internalType": "uint32",
          "name": "redemptionTimeoutNotifierRewardMultiplier",
          "type": "uint32"
        }
      ],
      "name": "RedemptionTimeoutNotifierRewardMultiplierUpdated",
      "type": "event"
    },
    {
      "anonymous": false,
      "inputs": [
        {
          "indexed": false,
          "internalType": "uint96",
          "name": "newRedemptionTimeoutSlashingAmount",
          "type": "uint96"
        },
        {
          "indexed": false,
          "internalType": "uint256",
          "name": "timestamp",
          "type": "uint256"
        }
      ],
      "name": "RedemptionTimeoutSlashingAmountUpdateStarted",
      "type": "event"
    },
    {
      "anonymous": false,
      "inputs": [
        {
          "indexed": false,
          "internalType": "uint96",
          "name": "redemptionTimeoutSlashingAmount",
          "type": "uint96"
        }
      ],
      "name": "RedemptionTimeoutSlashingAmountUpdated",
      "type": "event"
    },
    {
      "anonymous": false,
      "inputs": [
        {
          "indexed": false,
          "internalType": "uint32",
          "name": "newRedemptionTimeout",
          "type": "uint32"
        },
        {
          "indexed": false,
          "internalType": "uint256",
          "name": "timestamp",
          "type": "uint256"
        }
      ],
      "name": "RedemptionTimeoutUpdateStarted",
      "type": "event"
    },
    {
      "anonymous": false,
      "inputs": [
        {
          "indexed": false,
          "internalType": "uint32",
          "name": "redemptionTimeout",
          "type": "uint32"
        }
      ],
      "name": "RedemptionTimeoutUpdated",
      "type": "event"
    },
    {
      "anonymous": false,
      "inputs": [
        {
          "indexed": false,
          "internalType": "uint64",
          "name": "newRedemptionTreasuryFeeDivisor",
          "type": "uint64"
        },
        {
          "indexed": false,
          "internalType": "uint256",
          "name": "timestamp",
          "type": "uint256"
        }
      ],
      "name": "RedemptionTreasuryFeeDivisorUpdateStarted",
      "type": "event"
    },
    {
      "anonymous": false,
      "inputs": [
        {
          "indexed": false,
          "internalType": "uint64",
          "name": "redemptionTreasuryFeeDivisor",
          "type": "uint64"
        }
      ],
      "name": "RedemptionTreasuryFeeDivisorUpdated",
      "type": "event"
    },
    {
      "anonymous": false,
      "inputs": [
        {
          "indexed": false,
          "internalType": "uint64",
          "name": "newRedemptionTxMaxFee",
          "type": "uint64"
        },
        {
          "indexed": false,
          "internalType": "uint256",
          "name": "timestamp",
          "type": "uint256"
        }
      ],
      "name": "RedemptionTxMaxFeeUpdateStarted",
      "type": "event"
    },
    {
      "anonymous": false,
      "inputs": [
        {
          "indexed": false,
          "internalType": "uint64",
          "name": "redemptionTxMaxFee",
          "type": "uint64"
        }
      ],
      "name": "RedemptionTxMaxFeeUpdated",
      "type": "event"
    },
    {
      "anonymous": false,
      "inputs": [
        {
          "indexed": false,
          "internalType": "uint64",
          "name": "newRedemptionTxMaxTotalFee",
          "type": "uint64"
        },
        {
          "indexed": false,
          "internalType": "uint256",
          "name": "timestamp",
          "type": "uint256"
        }
      ],
      "name": "RedemptionTxMaxTotalFeeUpdateStarted",
      "type": "event"
    },
    {
      "anonymous": false,
      "inputs": [
        {
          "indexed": false,
          "internalType": "uint64",
          "name": "redemptionTxMaxTotalFee",
          "type": "uint64"
        }
      ],
      "name": "RedemptionTxMaxTotalFeeUpdated",
      "type": "event"
    },
    {
      "anonymous": false,
      "inputs": [
        {
          "indexed": false,
          "internalType": "address",
          "name": "newTreasury",
          "type": "address"
        },
        {
          "indexed": false,
          "internalType": "uint256",
          "name": "timestamp",
          "type": "uint256"
        }
      ],
      "name": "TreasuryUpdateStarted",
      "type": "event"
    },
    {
      "anonymous": false,
      "inputs": [
        {
          "indexed": false,
          "internalType": "address",
          "name": "treasury",
          "type": "address"
        }
      ],
      "name": "TreasuryUpdated",
      "type": "event"
    },
    {
      "anonymous": false,
      "inputs": [
        {
          "indexed": false,
          "internalType": "uint32",
          "name": "newWalletClosingPeriod",
          "type": "uint32"
        },
        {
          "indexed": false,
          "internalType": "uint256",
          "name": "timestamp",
          "type": "uint256"
        }
      ],
      "name": "WalletClosingPeriodUpdateStarted",
      "type": "event"
    },
    {
      "anonymous": false,
      "inputs": [
        {
          "indexed": false,
          "internalType": "uint32",
          "name": "walletClosingPeriod",
          "type": "uint32"
        }
      ],
      "name": "WalletClosingPeriodUpdated",
      "type": "event"
    },
    {
      "anonymous": false,
      "inputs": [
        {
          "indexed": false,
          "internalType": "uint64",
          "name": "newWalletClosureMinBtcBalance",
          "type": "uint64"
        },
        {
          "indexed": false,
          "internalType": "uint256",
          "name": "timestamp",
          "type": "uint256"
        }
      ],
      "name": "WalletClosureMinBtcBalanceUpdateStarted",
      "type": "event"
    },
    {
      "anonymous": false,
      "inputs": [
        {
          "indexed": false,
          "internalType": "uint64",
          "name": "walletClosureMinBtcBalance",
          "type": "uint64"
        }
      ],
      "name": "WalletClosureMinBtcBalanceUpdated",
      "type": "event"
    },
    {
      "anonymous": false,
      "inputs": [
        {
          "indexed": false,
          "internalType": "uint64",
          "name": "newWalletCreationMaxBtcBalance",
          "type": "uint64"
        },
        {
          "indexed": false,
          "internalType": "uint256",
          "name": "timestamp",
          "type": "uint256"
        }
      ],
      "name": "WalletCreationMaxBtcBalanceUpdateStarted",
      "type": "event"
    },
    {
      "anonymous": false,
      "inputs": [
        {
          "indexed": false,
          "internalType": "uint64",
          "name": "walletCreationMaxBtcBalance",
          "type": "uint64"
        }
      ],
      "name": "WalletCreationMaxBtcBalanceUpdated",
      "type": "event"
    },
    {
      "anonymous": false,
      "inputs": [
        {
          "indexed": false,
          "internalType": "uint64",
          "name": "newWalletCreationMinBtcBalance",
          "type": "uint64"
        },
        {
          "indexed": false,
          "internalType": "uint256",
          "name": "timestamp",
          "type": "uint256"
        }
      ],
      "name": "WalletCreationMinBtcBalanceUpdateStarted",
      "type": "event"
    },
    {
      "anonymous": false,
      "inputs": [
        {
          "indexed": false,
          "internalType": "uint64",
          "name": "walletCreationMinBtcBalance",
          "type": "uint64"
        }
      ],
      "name": "WalletCreationMinBtcBalanceUpdated",
      "type": "event"
    },
    {
      "anonymous": false,
      "inputs": [
        {
          "indexed": false,
          "internalType": "uint32",
          "name": "newWalletCreationPeriod",
          "type": "uint32"
        },
        {
          "indexed": false,
          "internalType": "uint256",
          "name": "timestamp",
          "type": "uint256"
        }
      ],
      "name": "WalletCreationPeriodUpdateStarted",
      "type": "event"
    },
    {
      "anonymous": false,
      "inputs": [
        {
          "indexed": false,
          "internalType": "uint32",
          "name": "walletCreationPeriod",
          "type": "uint32"
        }
      ],
      "name": "WalletCreationPeriodUpdated",
      "type": "event"
    },
    {
      "anonymous": false,
      "inputs": [
        {
          "indexed": false,
          "internalType": "uint32",
          "name": "newWalletMaxAge",
          "type": "uint32"
        },
        {
          "indexed": false,
          "internalType": "uint256",
          "name": "timestamp",
          "type": "uint256"
        }
      ],
      "name": "WalletMaxAgeUpdateStarted",
      "type": "event"
    },
    {
      "anonymous": false,
      "inputs": [
        {
          "indexed": false,
          "internalType": "uint32",
          "name": "walletMaxAge",
          "type": "uint32"
        }
      ],
      "name": "WalletMaxAgeUpdated",
      "type": "event"
    },
    {
      "anonymous": false,
      "inputs": [
        {
          "indexed": false,
          "internalType": "uint64",
          "name": "newWalletMaxBtcTransfer",
          "type": "uint64"
        },
        {
          "indexed": false,
          "internalType": "uint256",
          "name": "timestamp",
          "type": "uint256"
        }
      ],
      "name": "WalletMaxBtcTransferUpdateStarted",
      "type": "event"
    },
    {
      "anonymous": false,
      "inputs": [
        {
          "indexed": false,
          "internalType": "uint64",
          "name": "walletMaxBtcTransfer",
          "type": "uint64"
        }
      ],
      "name": "WalletMaxBtcTransferUpdated",
      "type": "event"
    },
    {
      "inputs": [
        {
          "internalType": "address",
          "name": "_newBridgeGovernance",
          "type": "address"
        }
      ],
      "name": "beginBridgeGovernanceTransfer",
      "outputs": [],
      "stateMutability": "nonpayable",
      "type": "function"
    },
    {
      "inputs": [
        {
          "internalType": "uint64",
          "name": "_newDepositDustThreshold",
          "type": "uint64"
        }
      ],
      "name": "beginDepositDustThresholdUpdate",
      "outputs": [],
      "stateMutability": "nonpayable",
      "type": "function"
    },
    {
      "inputs": [
        {
          "internalType": "uint32",
          "name": "_newDepositRevealAheadPeriod",
          "type": "uint32"
        }
      ],
      "name": "beginDepositRevealAheadPeriodUpdate",
      "outputs": [],
      "stateMutability": "nonpayable",
      "type": "function"
    },
    {
      "inputs": [
        {
          "internalType": "uint64",
          "name": "_newDepositTreasuryFeeDivisor",
          "type": "uint64"
        }
      ],
      "name": "beginDepositTreasuryFeeDivisorUpdate",
      "outputs": [],
      "stateMutability": "nonpayable",
      "type": "function"
    },
    {
      "inputs": [
        {
          "internalType": "uint64",
          "name": "_newDepositTxMaxFee",
          "type": "uint64"
        }
      ],
      "name": "beginDepositTxMaxFeeUpdate",
      "outputs": [],
      "stateMutability": "nonpayable",
      "type": "function"
    },
    {
      "inputs": [
        {
          "internalType": "uint32",
          "name": "_newFraudChallengeDefeatTimeout",
          "type": "uint32"
        }
      ],
      "name": "beginFraudChallengeDefeatTimeoutUpdate",
      "outputs": [],
      "stateMutability": "nonpayable",
      "type": "function"
    },
    {
      "inputs": [
        {
          "internalType": "uint96",
          "name": "_newFraudChallengeDepositAmount",
          "type": "uint96"
        }
      ],
      "name": "beginFraudChallengeDepositAmountUpdate",
      "outputs": [],
      "stateMutability": "nonpayable",
      "type": "function"
    },
    {
      "inputs": [
        {
          "internalType": "uint32",
          "name": "_newFraudNotifierRewardMultiplier",
          "type": "uint32"
        }
      ],
      "name": "beginFraudNotifierRewardMultiplierUpdate",
      "outputs": [],
      "stateMutability": "nonpayable",
      "type": "function"
    },
    {
      "inputs": [
        {
          "internalType": "uint96",
          "name": "_newFraudSlashingAmount",
          "type": "uint96"
        }
      ],
      "name": "beginFraudSlashingAmountUpdate",
      "outputs": [],
      "stateMutability": "nonpayable",
      "type": "function"
    },
    {
      "inputs": [
        {
          "internalType": "uint256",
          "name": "_newGovernanceDelay",
          "type": "uint256"
        }
      ],
      "name": "beginGovernanceDelayUpdate",
      "outputs": [],
      "stateMutability": "nonpayable",
      "type": "function"
    },
    {
      "inputs": [
        {
          "internalType": "uint32",
          "name": "_newMovedFundsSweepTimeoutNotifierRewardMultiplier",
          "type": "uint32"
        }
      ],
      "name": "beginMovedFundsSweepTimeoutNotifierRewardMultiplierUpdate",
      "outputs": [],
      "stateMutability": "nonpayable",
      "type": "function"
    },
    {
      "inputs": [
        {
          "internalType": "uint96",
          "name": "_newMovedFundsSweepTimeoutSlashingAmount",
          "type": "uint96"
        }
      ],
      "name": "beginMovedFundsSweepTimeoutSlashingAmountUpdate",
      "outputs": [],
      "stateMutability": "nonpayable",
      "type": "function"
    },
    {
      "inputs": [
        {
          "internalType": "uint32",
          "name": "_newMovedFundsSweepTimeout",
          "type": "uint32"
        }
      ],
      "name": "beginMovedFundsSweepTimeoutUpdate",
      "outputs": [],
      "stateMutability": "nonpayable",
      "type": "function"
    },
    {
      "inputs": [
        {
          "internalType": "uint64",
          "name": "_newMovedFundsSweepTxMaxTotalFee",
          "type": "uint64"
        }
      ],
      "name": "beginMovedFundsSweepTxMaxTotalFeeUpdate",
      "outputs": [],
      "stateMutability": "nonpayable",
      "type": "function"
    },
    {
      "inputs": [
        {
          "internalType": "uint16",
          "name": "_newMovingFundsCommitmentGasOffset",
          "type": "uint16"
        }
      ],
      "name": "beginMovingFundsCommitmentGasOffsetUpdate",
      "outputs": [],
      "stateMutability": "nonpayable",
      "type": "function"
    },
    {
      "inputs": [
        {
          "internalType": "uint64",
          "name": "_newMovingFundsDustThreshold",
          "type": "uint64"
        }
      ],
      "name": "beginMovingFundsDustThresholdUpdate",
      "outputs": [],
      "stateMutability": "nonpayable",
      "type": "function"
    },
    {
      "inputs": [
        {
          "internalType": "uint32",
          "name": "_newMovingFundsTimeoutNotifierRewardMultiplier",
          "type": "uint32"
        }
      ],
      "name": "beginMovingFundsTimeoutNotifierRewardMultiplierUpdate",
      "outputs": [],
      "stateMutability": "nonpayable",
      "type": "function"
    },
    {
      "inputs": [
        {
          "internalType": "uint32",
          "name": "_newMovingFundsTimeoutResetDelay",
          "type": "uint32"
        }
      ],
      "name": "beginMovingFundsTimeoutResetDelayUpdate",
      "outputs": [],
      "stateMutability": "nonpayable",
      "type": "function"
    },
    {
      "inputs": [
        {
          "internalType": "uint96",
          "name": "_newMovingFundsTimeoutSlashingAmount",
          "type": "uint96"
        }
      ],
      "name": "beginMovingFundsTimeoutSlashingAmountUpdate",
      "outputs": [],
      "stateMutability": "nonpayable",
      "type": "function"
    },
    {
      "inputs": [
        {
          "internalType": "uint32",
          "name": "_newMovingFundsTimeout",
          "type": "uint32"
        }
      ],
      "name": "beginMovingFundsTimeoutUpdate",
      "outputs": [],
      "stateMutability": "nonpayable",
      "type": "function"
    },
    {
      "inputs": [
        {
          "internalType": "uint64",
          "name": "_newMovingFundsTxMaxTotalFee",
          "type": "uint64"
        }
      ],
      "name": "beginMovingFundsTxMaxTotalFeeUpdate",
      "outputs": [],
      "stateMutability": "nonpayable",
      "type": "function"
    },
    {
      "inputs": [
        {
          "internalType": "uint64",
          "name": "_newRedemptionDustThreshold",
          "type": "uint64"
        }
      ],
      "name": "beginRedemptionDustThresholdUpdate",
      "outputs": [],
      "stateMutability": "nonpayable",
      "type": "function"
    },
    {
      "inputs": [
        {
          "internalType": "uint32",
          "name": "_newRedemptionTimeoutNotifierRewardMultiplier",
          "type": "uint32"
        }
      ],
      "name": "beginRedemptionTimeoutNotifierRewardMultiplierUpdate",
      "outputs": [],
      "stateMutability": "nonpayable",
      "type": "function"
    },
    {
      "inputs": [
        {
          "internalType": "uint96",
          "name": "_newRedemptionTimeoutSlashingAmount",
          "type": "uint96"
        }
      ],
      "name": "beginRedemptionTimeoutSlashingAmountUpdate",
      "outputs": [],
      "stateMutability": "nonpayable",
      "type": "function"
    },
    {
      "inputs": [
        {
          "internalType": "uint32",
          "name": "_newRedemptionTimeout",
          "type": "uint32"
        }
      ],
      "name": "beginRedemptionTimeoutUpdate",
      "outputs": [],
      "stateMutability": "nonpayable",
      "type": "function"
    },
    {
      "inputs": [
        {
          "internalType": "uint64",
          "name": "_newRedemptionTreasuryFeeDivisor",
          "type": "uint64"
        }
      ],
      "name": "beginRedemptionTreasuryFeeDivisorUpdate",
      "outputs": [],
      "stateMutability": "nonpayable",
      "type": "function"
    },
    {
      "inputs": [
        {
          "internalType": "uint64",
          "name": "_newRedemptionTxMaxFee",
          "type": "uint64"
        }
      ],
      "name": "beginRedemptionTxMaxFeeUpdate",
      "outputs": [],
      "stateMutability": "nonpayable",
      "type": "function"
    },
    {
      "inputs": [
        {
          "internalType": "uint64",
          "name": "_newRedemptionTxMaxTotalFee",
          "type": "uint64"
        }
      ],
      "name": "beginRedemptionTxMaxTotalFeeUpdate",
      "outputs": [],
      "stateMutability": "nonpayable",
      "type": "function"
    },
    {
      "inputs": [
        {
          "internalType": "address",
          "name": "_newTreasury",
          "type": "address"
        }
      ],
      "name": "beginTreasuryUpdate",
      "outputs": [],
      "stateMutability": "nonpayable",
      "type": "function"
    },
    {
      "inputs": [
        {
          "internalType": "uint32",
          "name": "_newWalletClosingPeriod",
          "type": "uint32"
        }
      ],
      "name": "beginWalletClosingPeriodUpdate",
      "outputs": [],
      "stateMutability": "nonpayable",
      "type": "function"
    },
    {
      "inputs": [
        {
          "internalType": "uint64",
          "name": "_newWalletClosureMinBtcBalance",
          "type": "uint64"
        }
      ],
      "name": "beginWalletClosureMinBtcBalanceUpdate",
      "outputs": [],
      "stateMutability": "nonpayable",
      "type": "function"
    },
    {
      "inputs": [
        {
          "internalType": "uint64",
          "name": "_newWalletCreationMaxBtcBalance",
          "type": "uint64"
        }
      ],
      "name": "beginWalletCreationMaxBtcBalanceUpdate",
      "outputs": [],
      "stateMutability": "nonpayable",
      "type": "function"
    },
    {
      "inputs": [
        {
          "internalType": "uint64",
          "name": "_newWalletCreationMinBtcBalance",
          "type": "uint64"
        }
      ],
      "name": "beginWalletCreationMinBtcBalanceUpdate",
      "outputs": [],
      "stateMutability": "nonpayable",
      "type": "function"
    },
    {
      "inputs": [
        {
          "internalType": "uint32",
          "name": "_newWalletCreationPeriod",
          "type": "uint32"
        }
      ],
      "name": "beginWalletCreationPeriodUpdate",
      "outputs": [],
      "stateMutability": "nonpayable",
      "type": "function"
    },
    {
      "inputs": [
        {
          "internalType": "uint32",
          "name": "_newWalletMaxAge",
          "type": "uint32"
        }
      ],
      "name": "beginWalletMaxAgeUpdate",
      "outputs": [],
      "stateMutability": "nonpayable",
      "type": "function"
    },
    {
      "inputs": [
        {
          "internalType": "uint64",
          "name": "_newWalletMaxBtcTransfer",
          "type": "uint64"
        }
      ],
      "name": "beginWalletMaxBtcTransferUpdate",
      "outputs": [],
      "stateMutability": "nonpayable",
      "type": "function"
    },
    {
      "inputs": [],
      "name": "bridgeGovernanceTransferChangeInitiated",
      "outputs": [
        {
          "internalType": "uint256",
          "name": "",
          "type": "uint256"
        }
      ],
      "stateMutability": "view",
      "type": "function"
    },
    {
      "inputs": [],
      "name": "finalizeBridgeGovernanceTransfer",
      "outputs": [],
      "stateMutability": "nonpayable",
      "type": "function"
    },
    {
      "inputs": [],
      "name": "finalizeDepositDustThresholdUpdate",
      "outputs": [],
      "stateMutability": "nonpayable",
      "type": "function"
    },
    {
      "inputs": [],
      "name": "finalizeDepositRevealAheadPeriodUpdate",
      "outputs": [],
      "stateMutability": "nonpayable",
      "type": "function"
    },
    {
      "inputs": [],
      "name": "finalizeDepositTreasuryFeeDivisorUpdate",
      "outputs": [],
      "stateMutability": "nonpayable",
      "type": "function"
    },
    {
      "inputs": [],
      "name": "finalizeDepositTxMaxFeeUpdate",
      "outputs": [],
      "stateMutability": "nonpayable",
      "type": "function"
    },
    {
      "inputs": [],
      "name": "finalizeFraudChallengeDefeatTimeoutUpdate",
      "outputs": [],
      "stateMutability": "nonpayable",
      "type": "function"
    },
    {
      "inputs": [],
      "name": "finalizeFraudChallengeDepositAmountUpdate",
      "outputs": [],
      "stateMutability": "nonpayable",
      "type": "function"
    },
    {
      "inputs": [],
      "name": "finalizeFraudNotifierRewardMultiplierUpdate",
      "outputs": [],
      "stateMutability": "nonpayable",
      "type": "function"
    },
    {
      "inputs": [],
      "name": "finalizeFraudSlashingAmountUpdate",
      "outputs": [],
      "stateMutability": "nonpayable",
      "type": "function"
    },
    {
      "inputs": [],
      "name": "finalizeGovernanceDelayUpdate",
      "outputs": [],
      "stateMutability": "nonpayable",
      "type": "function"
    },
    {
      "inputs": [],
      "name": "finalizeMovedFundsSweepTimeoutNotifierRewardMultiplierUpdate",
      "outputs": [],
      "stateMutability": "nonpayable",
      "type": "function"
    },
    {
      "inputs": [],
      "name": "finalizeMovedFundsSweepTimeoutSlashingAmountUpdate",
      "outputs": [],
      "stateMutability": "nonpayable",
      "type": "function"
    },
    {
      "inputs": [],
      "name": "finalizeMovedFundsSweepTimeoutUpdate",
      "outputs": [],
      "stateMutability": "nonpayable",
      "type": "function"
    },
    {
      "inputs": [],
      "name": "finalizeMovedFundsSweepTxMaxTotalFeeUpdate",
      "outputs": [],
      "stateMutability": "nonpayable",
      "type": "function"
    },
    {
      "inputs": [],
      "name": "finalizeMovingFundsCommitmentGasOffsetUpdate",
      "outputs": [],
      "stateMutability": "nonpayable",
      "type": "function"
    },
    {
      "inputs": [],
      "name": "finalizeMovingFundsDustThresholdUpdate",
      "outputs": [],
      "stateMutability": "nonpayable",
      "type": "function"
    },
    {
      "inputs": [],
      "name": "finalizeMovingFundsTimeoutNotifierRewardMultiplierUpdate",
      "outputs": [],
      "stateMutability": "nonpayable",
      "type": "function"
    },
    {
      "inputs": [],
      "name": "finalizeMovingFundsTimeoutResetDelayUpdate",
      "outputs": [],
      "stateMutability": "nonpayable",
      "type": "function"
    },
    {
      "inputs": [],
      "name": "finalizeMovingFundsTimeoutSlashingAmountUpdate",
      "outputs": [],
      "stateMutability": "nonpayable",
      "type": "function"
    },
    {
      "inputs": [],
      "name": "finalizeMovingFundsTimeoutUpdate",
      "outputs": [],
      "stateMutability": "nonpayable",
      "type": "function"
    },
    {
      "inputs": [],
      "name": "finalizeMovingFundsTxMaxTotalFeeUpdate",
      "outputs": [],
      "stateMutability": "nonpayable",
      "type": "function"
    },
    {
      "inputs": [],
      "name": "finalizeRedemptionDustThresholdUpdate",
      "outputs": [],
      "stateMutability": "nonpayable",
      "type": "function"
    },
    {
      "inputs": [],
      "name": "finalizeRedemptionTimeoutNotifierRewardMultiplierUpdate",
      "outputs": [],
      "stateMutability": "nonpayable",
      "type": "function"
    },
    {
      "inputs": [],
      "name": "finalizeRedemptionTimeoutSlashingAmountUpdate",
      "outputs": [],
      "stateMutability": "nonpayable",
      "type": "function"
    },
    {
      "inputs": [],
      "name": "finalizeRedemptionTimeoutUpdate",
      "outputs": [],
      "stateMutability": "nonpayable",
      "type": "function"
    },
    {
      "inputs": [],
      "name": "finalizeRedemptionTreasuryFeeDivisorUpdate",
      "outputs": [],
      "stateMutability": "nonpayable",
      "type": "function"
    },
    {
      "inputs": [],
      "name": "finalizeRedemptionTxMaxFeeUpdate",
      "outputs": [],
      "stateMutability": "nonpayable",
      "type": "function"
    },
    {
      "inputs": [],
      "name": "finalizeRedemptionTxMaxTotalFeeUpdate",
      "outputs": [],
      "stateMutability": "nonpayable",
      "type": "function"
    },
    {
      "inputs": [],
      "name": "finalizeTreasuryUpdate",
      "outputs": [],
      "stateMutability": "nonpayable",
      "type": "function"
    },
    {
      "inputs": [],
      "name": "finalizeWalletClosingPeriodUpdate",
      "outputs": [],
      "stateMutability": "nonpayable",
      "type": "function"
    },
    {
      "inputs": [],
      "name": "finalizeWalletClosureMinBtcBalanceUpdate",
      "outputs": [],
      "stateMutability": "nonpayable",
      "type": "function"
    },
    {
      "inputs": [],
      "name": "finalizeWalletCreationMaxBtcBalanceUpdate",
      "outputs": [],
      "stateMutability": "nonpayable",
      "type": "function"
    },
    {
      "inputs": [],
      "name": "finalizeWalletCreationMinBtcBalanceUpdate",
      "outputs": [],
      "stateMutability": "nonpayable",
      "type": "function"
    },
    {
      "inputs": [],
      "name": "finalizeWalletCreationPeriodUpdate",
      "outputs": [],
      "stateMutability": "nonpayable",
      "type": "function"
    },
    {
      "inputs": [],
      "name": "finalizeWalletMaxAgeUpdate",
      "outputs": [],
      "stateMutability": "nonpayable",
      "type": "function"
    },
    {
      "inputs": [],
      "name": "finalizeWalletMaxBtcTransferUpdate",
      "outputs": [],
      "stateMutability": "nonpayable",
      "type": "function"
    },
    {
      "inputs": [
        {
          "internalType": "uint256",
          "name": "",
          "type": "uint256"
        }
      ],
      "name": "governanceDelays",
      "outputs": [
        {
          "internalType": "uint256",
          "name": "",
          "type": "uint256"
        }
      ],
      "stateMutability": "view",
      "type": "function"
    },
    {
      "inputs": [],
      "name": "owner",
      "outputs": [
        {
          "internalType": "address",
          "name": "",
          "type": "address"
        }
      ],
      "stateMutability": "view",
      "type": "function"
    },
    {
      "inputs": [],
      "name": "renounceOwnership",
      "outputs": [],
      "stateMutability": "nonpayable",
      "type": "function"
    },
    {
      "inputs": [
        {
          "internalType": "address",
          "name": "rebateStaking",
          "type": "address"
        }
      ],
      "name": "setRebateStaking",
      "outputs": [],
      "stateMutability": "nonpayable",
      "type": "function"
    },
    {
      "inputs": [
        {
          "internalType": "address",
          "name": "redemptionWatchtower",
          "type": "address"
        }
      ],
      "name": "setRedemptionWatchtower",
      "outputs": [],
      "stateMutability": "nonpayable",
      "type": "function"
    },
    {
      "inputs": [
        {
          "internalType": "address",
          "name": "spvMaintainer",
          "type": "address"
        },
        {
          "internalType": "bool",
          "name": "isTrusted",
          "type": "bool"
        }
      ],
      "name": "setSpvMaintainerStatus",
      "outputs": [],
      "stateMutability": "nonpayable",
      "type": "function"
    },
    {
      "inputs": [
        {
          "internalType": "address",
          "name": "vault",
          "type": "address"
        },
        {
          "internalType": "bool",
          "name": "isTrusted",
          "type": "bool"
        }
      ],
      "name": "setVaultStatus",
      "outputs": [],
      "stateMutability": "nonpayable",
      "type": "function"
    },
    {
      "inputs": [
        {
          "internalType": "address",
          "name": "newOwner",
          "type": "address"
        }
      ],
      "name": "transferOwnership",
      "outputs": [],
      "stateMutability": "nonpayable",
      "type": "function"
    }
  ],
  "transactionHash": "0x6c51d7e1acb6ecca54b75754ce7b5eccf703d7de0334c87602c96dddcd80b767",
  "args": [
    "0x5e4861a80B55f035D899f66772117F00FA0E8e7B",
    172800
  ],
  "numDeployments": 3,
  "solcInputHash": "83e2712ad8d40b8b01e625532cfc8cf8",
  "bytecode": "0x60806040523480156200001157600080fd5b5060405162004e7638038062004e768339810160408190526200003491620000ba565b6200003f336200006a565b604580546001600160a01b0319166001600160a01b0384161790558060466000015550620000f69050565b600080546001600160a01b038381166001600160a01b0319831681178455604051919092169283917f8be0079c531659141344cd1fd0a4f28419497f9722a3daafe3b4186f6b6457e09190a35050565b60008060408385031215620000ce57600080fd5b82516001600160a01b0381168114620000e657600080fd5b6020939093015192949293505050565b614d7080620001066000396000f3fe608060405234801561001057600080fd5b506004361061048b5760003560e01c806368fcf2a811610262578063be26ebad11610151578063dc46f09d116100ce578063f2fde38b11610092578063f2fde38b146108c9578063f44c0f33146108dc578063f604f5d3146108e4578063f9f06a9a146108ec578063fabcb8fa146108f4578063fcbf9be71461090757600080fd5b8063dc46f09d14610880578063dd6d0e6814610893578063e7c7c8c81461089b578063f00b17d4146108ae578063f039ee9a146108b657600080fd5b8063ca73c46211610115578063ca73c4621461082c578063caf0bc8f1461083f578063d1234d9514610852578063d25cb94614610865578063da7767981461087857600080fd5b8063be26ebad146107ee578063c1104a2d14610801578063c63cba4614610814578063c789663b1461081c578063c79fb0111461082457600080fd5b80638c382a53116101df57806397fd27fc116101a357806397fd27fc1461079a5780639b64dab8146107ad578063a8550725146107b5578063aa4d9ccc146107c8578063b372e403146107db57600080fd5b80638c382a53146107535780638da5cb5b1461075c57806390464a4414610777578063961312ce1461078a57806397845cc41461079257600080fd5b80637256fde9116102265780637256fde91461070a5780637318814c1461071257806380b2f2db1461072557806385082d2c1461072d5780638b18a5051461074057600080fd5b806368fcf2a8146106ae5780636a57a28b146106d4578063715018a6146106e757806371c96758146106ef57806371e7b693146106f757600080fd5b80634078dde01161037e578063541d6987116102fb578063605da053116102bf578063605da0531461067057806360d712fc14610678578063625391f91461068b5780636263b883146106935780636636b655146106a657600080fd5b8063541d6987146106325780635e3ef2c7146106455780635f2b2d0d1461064d5780635faa6fa0146106605780636015124b1461066857600080fd5b806348dd7d661161034257806348dd7d66146105d35780634abef7d4146105e65780634cf19dde146105f95780634e216f5f1461060c5780634f5bfd2a1461061f57600080fd5b80634078dde01461058a57806340c9ac421461059d57806343b327c3146105b0578063471c169f146105c357806348075367146105cb57600080fd5b806324d6fa9d1161040c5780632eb97687116103d05780632eb976871461054c5780632f65b50f1461055457806337fa5d511461055c5780633860c3571461056f5780633a1e363d1461057757600080fd5b806324d6fa9d1461051957806326825a9d1461052157806326c23dda1461052957806329d8c91d146105315780632df793c71461054457600080fd5b8063128643371161045357806312864337146104d057806315566135146104e35780631b3d4e63146104eb5780631fb738bb146104f357806322f1d80a1461050657600080fd5b806301a1f86f146104905780630403ac24146104a557806305a1d322146104ad5780630a303cd2146104b557806311f08c3e146104c8575b600080fd5b6104a361049e3660046147b1565b61090f565b005b6104a361098d565b6104a3610b49565b6104a36104c33660046147e7565b610cc6565b6104a3610d12565b6104a36104de366004614819565b610ea3565b6104a3610ef2565b6104a3611072565b6104a3610501366004614819565b6111f6565b6104a36105143660046147b1565b611245565b6104a3611294565b6104a36113ed565b6104a36114af565b6104a361053f3660046147e7565b61160a565b6104a3611656565b6104a361179b565b6104a361191b565b6104a361056a366004614836565b611a79565b6104a3611a8a565b6104a36105853660046147b1565b611bd6565b6104a36105983660046147b1565b611c25565b6104a36105ab3660046147b1565b611c74565b6104a36105be3660046147b1565b611cc3565b6104a3611d11565b6104a3611e6b565b6104a36105e13660046147b1565b611fb0565b6104a36105f43660046147e7565b611fff565b6104a36106073660046147e7565b61204b565b6104a361061a3660046147b1565b612097565b6104a361062d3660046147e7565b6120e6565b6104a36106403660046147e7565b612132565b6104a361217e565b6104a361065b36600461486b565b6122f9565b6104a361236d565b6104a36124c8565b6104a3612645565b6104a361068636600461486b565b61276c565b6104a36127ae565b6104a36106a13660046147b1565b612904565b6104a3612953565b6106c16106bc366004614836565b612aae565b6040519081526020015b60405180910390f35b6104a36106e23660046147b1565b612ac5565b6104a3612b14565b6104a3612b28565b6104a36107053660046147e7565b612c6d565b6104a3612cb9565b6104a36107203660046147e7565b612e36565b6104a3612e82565b6104a361073b366004614819565b612fcb565b6104a361074e3660046148a7565b61301a565b6106c160495481565b6000546040516001600160a01b0390911681526020016106cb565b6104a36107853660046148d2565b613083565b6104a36130cd565b6104a3613215565b6104a36107a83660046147e7565b613370565b6104a36133bc565b6104a36107c33660046147e7565b61353c565b6104a36107d63660046147e7565b613588565b6104a36107e93660046147b1565b6135d3565b6104a36107fc3660046148a7565b613622565b6104a361080f3660046147b1565b613686565b6104a36136d5565b6104a3613855565b6104a36139af565b6104a361083a3660046148a7565b613b2f565b6104a361084d3660046148a7565b613b69565b6104a3610860366004614819565b613bb8565b6104a36108733660046147b1565b613c07565b6104a3613c56565b6104a361088e3660046147e7565b613d17565b6104a3613d63565b6104a36108a93660046147e7565b613ebc565b6104a3613f08565b6104a36108c4366004614819565b614061565b6104a36108d73660046148a7565b6140b0565b6104a3614129565b6104a36142a6565b6104a36143ef565b6104a36109023660046147b1565b61454a565b6104a3614599565b6109176146f2565b6040516340834c5960e11b8152600160048201526001600160401b038216602482015273ce4b16b81A28d785FEEB7b1D56a9B97d450D34439063810698b2906044015b60006040518083038186803b15801561097257600080fd5b505af4158015610986573d6000803e3d6000fd5b5050505050565b6109956146f2565b600080600080600080600080600080604560009054906101000a90046001600160a01b03166001600160a01b031663be05abe36040518163ffffffff1660e01b815260040161016060405180830381865afa1580156109f8573d6000803e3d6000fd5b505050506040513d601f19601f82011682018060405250810190610a1c9190614905565b5099509950995099509950995099509950995099506000601760140160009054906101000a900463ffffffff169050601773ce4b16b81A28d785FEEB7b1D56a9B97d450D3443637d105c799091610a7260465490565b6040516001600160e01b031960e085901b1681526004810192909252602482015260440160006040518083038186803b158015610aae57600080fd5b505af4158015610ac2573d6000803e3d6000fd5b505060455460405163c3b5ffc960e01b81526001600160a01b03909116925063c3b5ffc99150610b0a908e908e908e908e908e908e908e908e908e908e908e906004016149eb565b600060405180830381600087803b158015610b2457600080fd5b505af1158015610b38573d6000803e3d6000fd5b505050505050505050505050505050565b610b516146f2565b600080600080600080600080600080604560009054906101000a90046001600160a01b03166001600160a01b031663be05abe36040518163ffffffff1660e01b815260040161016060405180830381865afa158015610bb4573d6000803e3d6000fd5b505050506040513d601f19601f82011682018060405250810190610bd89190614905565b9a509a5050995099509950995099509950995099506000601760100160009054906101000a900463ffffffff169050601773ce4b16b81A28d785FEEB7b1D56a9B97d450D3443638c0fc65a9091610c2e60465490565b6040516001600160e01b031960e085901b1681526004810192909252602482015260440160006040518083038186803b158015610c6a57600080fd5b505af4158015610c7e573d6000803e3d6000fd5b505060455460405163c3b5ffc960e01b81526001600160a01b03909116925063c3b5ffc99150610b0a908e908e908e908e908e908e908e908e908c908f908f906004016149eb565b610cce6146f2565b604051630587584360e21b8152602d600482015263ffffffff8216602482015273ce4b16b81A28d785FEEB7b1D56a9B97d450D34439063161d610c9060440161095a565b610d1a6146f2565b600080600080600080604560009054906101000a90046001600160a01b03166001600160a01b0316636e70ce416040518163ffffffff1660e01b815260040160e060405180830381865afa158015610d76573d6000803e3d6000fd5b505050506040513d601f19601f82011682018060405250810190610d9a9190614a65565b50601554959b5093995091975095509350915063ffffffff1673ce4b16b81A28d785FEEB7b1D56a9B97d450D344363728bd45d6009610dd860465490565b6040516001600160e01b031960e085901b1681526004810192909252602482015260440160006040518083038186803b158015610e1457600080fd5b505af4158015610e28573d6000803e3d6000fd5b505060455460405163b5da217160e01b81526001600160a01b03909116925063b5da21719150610e68908a908a908a908a908a908a908a90600401614b01565b600060405180830381600087803b158015610e8257600080fd5b505af1158015610e96573d6000803e3d6000fd5b5050505050505050505050565b610eab6146f2565b604051632fc22b3f60e21b8152603b60048201526001600160601b038216602482015273ce4b16b81A28d785FEEB7b1D56a9B97d450D34439063bf08acfc9060440161095a565b610efa6146f2565b600080600080600080600080600080604560009054906101000a90046001600160a01b03166001600160a01b031663be05abe36040518163ffffffff1660e01b815260040161016060405180830381865afa158015610f5d573d6000803e3d6000fd5b505050506040513d601f19601f82011682018060405250810190610f819190614905565b9a509a509a5050995099509950995099509950995060006017600e0160009054906101000a90046001600160401b03169050601773ce4b16b81A28d785FEEB7b1D56a9B97d450D3443634569ab889091610fda60465490565b6040516001600160e01b031960e085901b1681526004810192909252602482015260440160006040518083038186803b15801561101657600080fd5b505af415801561102a573d6000803e3d6000fd5b505060455460405163c3b5ffc960e01b81526001600160a01b03909116925063c3b5ffc99150610b0a908e908e908e908e908e908e908e908b908f908f908f906004016149eb565b61107a6146f2565b6000806000604560009054906101000a90046001600160a01b03166001600160a01b03166375b922d16040518163ffffffff1660e01b8152600401608060405180830381865afa1580156110d2573d6000803e3d6000fd5b505050506040513d601f19601f820116820180604052508101906110f69190614b50565b603b805493975091955093506001600160601b03909116915073ce4b16b81A28d785FEEB7b1D56a9B97d450D344390638f2ca6459061113460465490565b6040516001600160e01b031960e085901b1681526004810192909252602482015260440160006040518083038186803b15801561117057600080fd5b505af4158015611184573d6000803e3d6000fd5b505060455460405163dc49117b60e01b81526001600160a01b03909116925063dc49117b91506111be908490889088908890600401614baf565b600060405180830381600087803b1580156111d857600080fd5b505af11580156111ec573d6000803e3d6000fd5b5050505050505050565b6111fe6146f2565b604051632eed92d760e21b8152600960048201526001600160601b038216602482015273ce4b16b81A28d785FEEB7b1D56a9B97d450D34439063bbb64b5c9060440161095a565b61124d6146f2565b6040516374b0fecf60e11b8152602d60048201526001600160401b038216602482015273ce4b16b81A28d785FEEB7b1D56a9B97d450D34439063e961fd9e9060440161095a565b61129c6146f2565b600080600080600080604560009054906101000a90046001600160a01b03166001600160a01b03166361ccf97a6040518163ffffffff1660e01b815260040160e060405180830381865afa1580156112f8573d6000803e3d6000fd5b505050506040513d601f19601f8201168201806040525081019061131c9190614bdf565b603554969c50949a509298509096509094509092505063ffffffff1673ce4b16b81A28d785FEEB7b1D56a9B97d450D34436305be330f602d61135d60465490565b6040516001600160e01b031960e085901b1681526004810192909252602482015260440160006040518083038186803b15801561139957600080fd5b505af41580156113ad573d6000803e3d6000fd5b505060455460405163883d6a1160e01b81526001600160a01b03909116925063883d6a119150610e68908a908a908a908a9088908b908b90600401614c5a565b6113f56146f2565b6048546114405760405162461bcd60e51b815260206004820152601460248201527310da185b99d9481b9bdd081a5b9a5d1a585d195960621b60448201526064015b60405180910390fd5b6046546048546114509042614ca1565b1161149d5760405162461bcd60e51b815260206004820181905260248201527f476f7665726e616e63652064656c617920686173206e6f7420656c61707365646044820152606401611437565b60478054604655600090819055604855565b6114b76146f2565b600080600080600080604560009054906101000a90046001600160a01b03166001600160a01b03166361ccf97a6040518163ffffffff1660e01b815260040160e060405180830381865afa158015611513573d6000803e3d6000fd5b505050506040513d601f19601f820116820180604052508101906115379190614bdf565b603354969c50949a509298509650909450909250506001600160401b031673ce4b16b81A28d785FEEB7b1D56a9B97d450D3443633861f138602d61157a60465490565b6040516001600160e01b031960e085901b1681526004810192909252602482015260440160006040518083038186803b1580156115b657600080fd5b505af41580156115ca573d6000803e3d6000fd5b505060455460405163883d6a1160e01b81526001600160a01b03909116925063883d6a119150610e68908a908a908a9087908b908b908b90600401614c5a565b6116126146f2565b604051639707e9ad60e01b81526017600482015263ffffffff8216602482015273ce4b16b81A28d785FEEB7b1D56a9B97d450D344390639707e9ad9060440161095a565b61165e6146f2565b6000806000604560009054906101000a90046001600160a01b03166001600160a01b031663c42b64d06040518163ffffffff1660e01b8152600401608060405180830381865afa1580156116b6573d6000803e3d6000fd5b505050506040513d601f19601f820116820180604052508101906116da9190614cc8565b50600754929550909350915063ffffffff1673ce4b16b81A28d785FEEB7b1D56a9B97d450D3443632520e8bf600161171160465490565b6040516001600160e01b031960e085901b1681526004810192909252602482015260440160006040518083038186803b15801561174d57600080fd5b505af4158015611761573d6000803e3d6000fd5b5050604554604051633832650760e01b81526001600160a01b039091169250633832650791506111be908790879087908790600401614d0b565b6117a36146f2565b600080600080600080600080600080604560009054906101000a90046001600160a01b03166001600160a01b031663be05abe36040518163ffffffff1660e01b815260040161016060405180830381865afa158015611806573d6000803e3d6000fd5b505050506040513d601f19601f8201168201806040525081019061182a9190614905565b9a509a509a509a509a509a509a509a509a505099506000601760020160009054906101000a90046001600160401b03169050601773ce4b16b81A28d785FEEB7b1D56a9B97d450D344363d6964b97909161188360465490565b6040516001600160e01b031960e085901b1681526004810192909252602482015260440160006040518083038186803b1580156118bf57600080fd5b505af41580156118d3573d6000803e3d6000fd5b505060455460405163c3b5ffc960e01b81526001600160a01b03909116925063c3b5ffc99150610b0a908e9085908f908f908f908f908f908f908f908f908f906004016149eb565b6119236146f2565b600080600080600080604560009054906101000a90046001600160a01b03166001600160a01b0316636e70ce416040518163ffffffff1660e01b815260040160e060405180830381865afa15801561197f573d6000803e3d6000fd5b505050506040513d601f19601f820116820180604052508101906119a39190614a65565b60098054969d50949b50929950909750955093506001600160401b03909116915073ce4b16b81A28d785FEEB7b1D56a9B97d450D34439063ec9f4760906119e960465490565b6040516001600160e01b031960e085901b1681526004810192909252602482015260440160006040518083038186803b158015611a2557600080fd5b505af4158015611a39573d6000803e3d6000fd5b505060455460405163b5da217160e01b81526001600160a01b03909116925063b5da21719150610e689084908b908b908b908b908b908b90600401614b01565b611a816146f2565b60475542604855565b611a926146f2565b6000806000604560009054906101000a90046001600160a01b03166001600160a01b031663c42b64d06040518163ffffffff1660e01b8152600401608060405180830381865afa158015611aea573d6000803e3d6000fd5b505050506040513d601f19601f82011682018060405250810190611b0e9190614cc8565b6001805493975091955093506001600160401b03909116915073ce4b16b81A28d785FEEB7b1D56a9B97d450D34439063ae25638390611b4c60465490565b6040516001600160e01b031960e085901b1681526004810192909252602482015260440160006040518083038186803b158015611b8857600080fd5b505af4158015611b9c573d6000803e3d6000fd5b5050604554604051633832650760e01b81526001600160a01b039091169250633832650791506111be908490889088908890600401614d0b565b611bde6146f2565b6040516368af502160e01b8152600960048201526001600160401b038216602482015273ce4b16b81A28d785FEEB7b1D56a9B97d450D3443906368af50219060440161095a565b611c2d6146f2565b604051630ac6330760e11b8152600160048201526001600160401b038216602482015273ce4b16b81A28d785FEEB7b1D56a9B97d450D34439063158c660e9060440161095a565b611c7c6146f2565b6040516319de06fb60e31b8152600160048201526001600160401b038216602482015273ce4b16b81A28d785FEEB7b1D56a9B97d450D34439063cef037d89060440161095a565b611ccb6146f2565b604051620f049d60ea1b8152600960048201526001600160401b038216602482015273ce4b16b81A28d785FEEB7b1D56a9B97d450D344390633c1274009060440161095a565b611d196146f2565b600080600080600080604560009054906101000a90046001600160a01b03166001600160a01b0316636e70ce416040518163ffffffff1660e01b815260040160e060405180830381865afa158015611d75573d6000803e3d6000fd5b505050506040513d601f19601f82011682018060405250810190611d999190614a65565b600d54969c50949a5091985096509450909250506001600160401b031673ce4b16b81A28d785FEEB7b1D56a9B97d450D3443639232db3f6009611ddb60465490565b6040516001600160e01b031960e085901b1681526004810192909252602482015260440160006040518083038186803b158015611e1757600080fd5b505af4158015611e2b573d6000803e3d6000fd5b505060455460405163b5da217160e01b81526001600160a01b03909116925063b5da21719150610e68908a908a9086908b908b908b908b90600401614b01565b611e736146f2565b6000806000604560009054906101000a90046001600160a01b03166001600160a01b03166375b922d16040518163ffffffff1660e01b8152600401608060405180830381865afa158015611ecb573d6000803e3d6000fd5b505050506040513d601f19601f82011682018060405250810190611eef9190614b50565b50604154929550909350915063ffffffff1673ce4b16b81A28d785FEEB7b1D56a9B97d450D3443630c4e5686603b611f2660465490565b6040516001600160e01b031960e085901b1681526004810192909252602482015260440160006040518083038186803b158015611f6257600080fd5b505af4158015611f76573d6000803e3d6000fd5b505060455460405163dc49117b60e01b81526001600160a01b03909116925063dc49117b91506111be908790879087908790600401614baf565b611fb86146f2565b604051633964f6cb60e11b8152601760048201526001600160401b038216602482015273ce4b16b81A28d785FEEB7b1D56a9B97d450D3443906372c9ed969060440161095a565b6120076146f2565b604051636312276d60e11b81526017600482015263ffffffff8216602482015273ce4b16b81A28d785FEEB7b1D56a9B97d450D34439063c6244eda9060440161095a565b6120536146f2565b604051632d453d5760e01b8152603b600482015263ffffffff8216602482015273ce4b16b81A28d785FEEB7b1D56a9B97d450D344390632d453d579060440161095a565b61209f6146f2565b6040516377b3952360e11b8152600960048201526001600160401b038216602482015273ce4b16b81A28d785FEEB7b1D56a9B97d450D34439063ef672a469060440161095a565b6120ee6146f2565b60405163382c42c560e11b8152603b600482015263ffffffff8216602482015273ce4b16b81A28d785FEEB7b1D56a9B97d450D344390637058858a9060440161095a565b61213a6146f2565b60405163730d3c4360e11b81526009600482015263ffffffff8216602482015273ce4b16b81A28d785FEEB7b1D56a9B97d450D34439063e61a78869060440161095a565b6121866146f2565b600080600080600080600080600080604560009054906101000a90046001600160a01b03166001600160a01b031663be05abe36040518163ffffffff1660e01b815260040161016060405180830381865afa1580156121e9573d6000803e3d6000fd5b505050506040513d601f19601f8201168201806040525081019061220d9190614905565b9a509a509a509a505099509950995099509950995060006017600c0160009054906101000a900461ffff169050601773ce4b16b81A28d785FEEB7b1D56a9B97d450D344363d7e1b317909161226160465490565b6040516001600160e01b031960e085901b1681526004810192909252602482015260440160006040518083038186803b15801561229d57600080fd5b505af41580156122b1573d6000803e3d6000fd5b505060455460405163c3b5ffc960e01b81526001600160a01b03909116925063c3b5ffc99150610b0a908e908e908e908e908e908e908a908f908f908f908f906004016149eb565b6123016146f2565b604554604051635f2b2d0d60e01b81526001600160a01b038481166004830152831515602483015290911690635f2b2d0d906044015b600060405180830381600087803b15801561235157600080fd5b505af1158015612365573d6000803e3d6000fd5b505050505050565b6123756146f2565b600080600080600080604560009054906101000a90046001600160a01b03166001600160a01b0316636e70ce416040518163ffffffff1660e01b815260040160e060405180830381865afa1580156123d1573d6000803e3d6000fd5b505050506040513d601f19601f820116820180604052508101906123f59190614a65565b600f54969c50949a509298509650909450909250506001600160401b031673ce4b16b81A28d785FEEB7b1D56a9B97d450D3443638a346d4d600961243860465490565b6040516001600160e01b031960e085901b1681526004810192909252602482015260440160006040518083038186803b15801561247457600080fd5b505af4158015612488573d6000803e3d6000fd5b505060455460405163b5da217160e01b81526001600160a01b03909116925063b5da21719150610e68908a908a908a9087908b908b908b90600401614b01565b6124d06146f2565b600080600080600080600080600080604560009054906101000a90046001600160a01b03166001600160a01b031663be05abe36040518163ffffffff1660e01b815260040161016060405180830381865afa158015612533573d6000803e3d6000fd5b505050506040513d601f19601f820116820180604052508101906125579190614905565b9a509a509a509a509a50509950995099509950995060006017600a0160009054906101000a900463ffffffff169050601773ce4b16b81A28d785FEEB7b1D56a9B97d450D3443631b3f064f90916125ad60465490565b6040516001600160e01b031960e085901b1681526004810192909252602482015260440160006040518083038186803b1580156125e957600080fd5b505af41580156125fd573d6000803e3d6000fd5b505060455460405163c3b5ffc960e01b81526001600160a01b03909116925063c3b5ffc99150610b0a908e908e908e908e908e9089908f908f908f908f908f906004016149eb565b61264d6146f2565b6000604954116126965760405162461bcd60e51b815260206004820152601460248201527310da185b99d9481b9bdd081a5b9a5d1a585d195960621b6044820152606401611437565b6046546049546126a69042614ca1565b10156126f45760405162461bcd60e51b815260206004820181905260248201527f476f7665726e616e63652064656c617920686173206e6f7420656c61707365646044820152606401611437565b604554604a546040516334e2fffd60e21b81526001600160a01b03918216600482015291169063d38bfff490602401600060405180830381600087803b15801561273d57600080fd5b505af1158015612751573d6000803e3d6000fd5b505060006049555050604a80546001600160a01b0319169055565b6127746146f2565b604554604051631835c4bf60e21b81526001600160a01b0384811660048301528315156024830152909116906360d712fc90604401612337565b6127b66146f2565b600080600080600080604560009054906101000a90046001600160a01b03166001600160a01b03166361ccf97a6040518163ffffffff1660e01b815260040160e060405180830381865afa158015612812573d6000803e3d6000fd5b505050506040513d601f19601f820116820180604052508101906128369190614bdf565b50603954959b5093995091975095509350915063ffffffff1673ce4b16b81A28d785FEEB7b1D56a9B97d450D344363dbf83803602d61287460465490565b6040516001600160e01b031960e085901b1681526004810192909252602482015260440160006040518083038186803b1580156128b057600080fd5b505af41580156128c4573d6000803e3d6000fd5b505060455460405163883d6a1160e01b81526001600160a01b03909116925063883d6a119150610e68908a908a908a908a908a908a908a90600401614c5a565b61290c6146f2565b6040516323d4f60160e21b8152601760048201526001600160401b038216602482015273ce4b16b81A28d785FEEB7b1D56a9B97d450D344390638f53d8049060440161095a565b61295b6146f2565b600080600080600080604560009054906101000a90046001600160a01b03166001600160a01b0316636e70ce416040518163ffffffff1660e01b815260040160e060405180830381865afa1580156129b7573d6000803e3d6000fd5b505050506040513d601f19601f820116820180604052508101906129db9190614a65565b601354969c50949a509298509096509450909250506001600160601b031673ce4b16b81A28d785FEEB7b1D56a9B97d450D344363f818e43c6009612a1e60465490565b6040516001600160e01b031960e085901b1681526004810192909252602482015260440160006040518083038186803b158015612a5a57600080fd5b505af4158015612a6e573d6000803e3d6000fd5b505060455460405163b5da217160e01b81526001600160a01b03909116925063b5da21719150610e68908a908a908a908a908a9089908b90600401614b01565b60468160038110612abe57600080fd5b0154905081565b612acd6146f2565b60405163f543e37d60e01b8152602d60048201526001600160401b038216602482015273ce4b16b81A28d785FEEB7b1D56a9B97d450D34439063f543e37d9060440161095a565b612b1c6146f2565b612b26600061474c565b565b612b306146f2565b6000806000604560009054906101000a90046001600160a01b03166001600160a01b03166375b922d16040518163ffffffff1660e01b8152600401608060405180830381865afa158015612b88573d6000803e3d6000fd5b505050506040513d601f19601f82011682018060405250810190612bac9190614b50565b603d5493965090945092505063ffffffff1673ce4b16b81A28d785FEEB7b1D56a9B97d450D344363d2a27c33603b612be360465490565b6040516001600160e01b031960e085901b1681526004810192909252602482015260440160006040518083038186803b158015612c1f57600080fd5b505af4158015612c33573d6000803e3d6000fd5b505060455460405163dc49117b60e01b81526001600160a01b03909116925063dc49117b91506111be908790859088908890600401614baf565b612c756146f2565b6040516353cf6f6560e01b81526001600482015263ffffffff8216602482015273ce4b16b81A28d785FEEB7b1D56a9B97d450D3443906353cf6f659060440161095a565b612cc16146f2565b600080600080600080600080600080604560009054906101000a90046001600160a01b03166001600160a01b031663be05abe36040518163ffffffff1660e01b815260040161016060405180830381865afa158015612d24573d6000803e3d6000fd5b505050506040513d601f19601f82011682018060405250810190612d489190614905565b9a509a509a509a509a509a509a509a5050995099506000601760040160009054906101000a900463ffffffff169050601773ce4b16b81A28d785FEEB7b1D56a9B97d450D34436351a3d06e9091612d9e60465490565b6040516001600160e01b031960e085901b1681526004810192909252602482015260440160006040518083038186803b158015612dda57600080fd5b505af4158015612dee573d6000803e3d6000fd5b505060455460405163c3b5ffc960e01b81526001600160a01b03909116925063c3b5ffc99150610b0a908e908e9086908f908f908f908f908f908f908f908f906004016149eb565b612e3e6146f2565b60405163126e077960e31b81526017600482015263ffffffff8216602482015273ce4b16b81A28d785FEEB7b1D56a9B97d450D3443906393703bc89060440161095a565b612e8a6146f2565b6000806000604560009054906101000a90046001600160a01b03166001600160a01b031663c42b64d06040518163ffffffff1660e01b8152600401608060405180830381865afa158015612ee2573d6000803e3d6000fd5b505050506040513d601f19601f82011682018060405250810190612f069190614cc8565b600554939650919450909250506001600160401b031673ce4b16b81A28d785FEEB7b1D56a9B97d450D34436368decba26001612f4160465490565b6040516001600160e01b031960e085901b1681526004810192909252602482015260440160006040518083038186803b158015612f7d57600080fd5b505af4158015612f91573d6000803e3d6000fd5b5050604554604051633832650760e01b81526001600160a01b039091169250633832650791506111be908790879086908890600401614d0b565b612fd36146f2565b6040516322b8310d60e21b8152601760048201526001600160601b038216602482015273ce4b16b81A28d785FEEB7b1D56a9B97d450D344390638ae0c4349060440161095a565b6130226146f2565b604a80546001600160a01b0319166001600160a01b0383169081179091554260498190556040805192835260208301919091527f24973178c1aef0f16b3490f7b45109bb38df71d627a7ed575597447150837881910160405180910390a150565b61308b6146f2565b6040516336cdaf1960e11b81526017600482015261ffff8216602482015273ce4b16b81A28d785FEEB7b1D56a9B97d450D344390636d9b5e329060440161095a565b6130d56146f2565b6000806000604560009054906101000a90046001600160a01b03166001600160a01b031663c42b64d06040518163ffffffff1660e01b8152600401608060405180830381865afa15801561312d573d6000803e3d6000fd5b505050506040513d601f19601f820116820180604052508101906131519190614cc8565b6003549396509094509250506001600160401b031673ce4b16b81A28d785FEEB7b1D56a9B97d450D344363362c2372600161318b60465490565b6040516001600160e01b031960e085901b1681526004810192909252602482015260440160006040518083038186803b1580156131c757600080fd5b505af41580156131db573d6000803e3d6000fd5b5050604554604051633832650760e01b81526001600160a01b039091169250633832650791506111be908790859088908890600401614d0b565b61321d6146f2565b600080600080600080604560009054906101000a90046001600160a01b03166001600160a01b03166361ccf97a6040518163ffffffff1660e01b815260040160e060405180830381865afa158015613279573d6000803e3d6000fd5b505050506040513d601f19601f8201168201806040525081019061329d9190614bdf565b602d8054969d50949b509299509097509550935063ffffffff909116915073ce4b16b81A28d785FEEB7b1D56a9B97d450D34439063a62029f6906132e060465490565b6040516001600160e01b031960e085901b1681526004810192909252602482015260440160006040518083038186803b15801561331c57600080fd5b505af4158015613330573d6000803e3d6000fd5b505060455460405163883d6a1160e01b81526001600160a01b03909116925063883d6a119150610e689084908b908b908b908b908b908b90600401614c5a565b6133786146f2565b604051631323ffb160e11b81526017600482015263ffffffff8216602482015273ce4b16b81A28d785FEEB7b1D56a9B97d450D344390632647ff629060440161095a565b6133c46146f2565b600080600080600080600080600080604560009054906101000a90046001600160a01b03166001600160a01b031663be05abe36040518163ffffffff1660e01b815260040161016060405180830381865afa158015613427573d6000803e3d6000fd5b505050506040513d601f19601f8201168201806040525081019061344b9190614905565b9a50509950995099509950995099509950995099506000601760120160009054906101000a90046001600160601b03169050601773ce4b16b81A28d785FEEB7b1D56a9B97d450D3443636d5be9be90916134a460465490565b6040516001600160e01b031960e085901b1681526004810192909252602482015260440160006040518083038186803b1580156134e057600080fd5b505af41580156134f4573d6000803e3d6000fd5b505060455460405163c3b5ffc960e01b81526001600160a01b03909116925063c3b5ffc99150610b0a908e908e908e908e908e908e908e908e908e908d908f906004016149eb565b6135446146f2565b60405163a6b0e7bd60e01b81526017600482015263ffffffff8216602482015273ce4b16b81A28d785FEEB7b1D56a9B97d450D34439063a6b0e7bd9060440161095a565b6135906146f2565b604051620c4fa760ea1b8152602d600482015263ffffffff8216602482015273ce4b16b81A28d785FEEB7b1D56a9B97d450D34439063313e9c009060440161095a565b6135db6146f2565b6040516391346cbb60e01b8152602d60048201526001600160401b038216602482015273ce4b16b81A28d785FEEB7b1D56a9B97d450D3443906391346cbb9060440161095a565b61362a6146f2565b60455460405163be26ebad60e01b81526001600160a01b0383811660048301529091169063be26ebad906024015b600060405180830381600087803b15801561367257600080fd5b505af1158015610986573d6000803e3d6000fd5b61368e6146f2565b6040516304b8e2eb60e01b8152602d60048201526001600160401b038216602482015273ce4b16b81A28d785FEEB7b1D56a9B97d450D3443906304b8e2eb9060440161095a565b6136dd6146f2565b600080600080600080600080600080604560009054906101000a90046001600160a01b03166001600160a01b031663be05abe36040518163ffffffff1660e01b815260040161016060405180830381865afa158015613740573d6000803e3d6000fd5b505050506040513d601f19601f820116820180604052508101906137649190614905565b9a509a509a509a509a509a509a509a509a509a50506000601760000160009054906101000a90046001600160401b03169050601773ce4b16b81A28d785FEEB7b1D56a9B97d450D3443630b5a08ed90916137bd60465490565b6040516001600160e01b031960e085901b1681526004810192909252602482015260440160006040518083038186803b1580156137f957600080fd5b505af415801561380d573d6000803e3d6000fd5b505060455460405163c3b5ffc960e01b81526001600160a01b03909116925063c3b5ffc99150610b0a9084908f908f908f908f908f908f908f908f908f908f906004016149eb565b61385d6146f2565b600080600080600080604560009054906101000a90046001600160a01b03166001600160a01b03166361ccf97a6040518163ffffffff1660e01b815260040160e060405180830381865afa1580156138b9573d6000803e3d6000fd5b505050506040513d601f19601f820116820180604052508101906138dd9190614bdf565b603154969c50949a5091985096509450909250506001600160401b031673ce4b16b81A28d785FEEB7b1D56a9B97d450D344363f08cac39602d61391f60465490565b6040516001600160e01b031960e085901b1681526004810192909252602482015260440160006040518083038186803b15801561395b57600080fd5b505af415801561396f573d6000803e3d6000fd5b505060455460405163883d6a1160e01b81526001600160a01b03909116925063883d6a119150610e68908a908a9086908b908b908b908b90600401614c5a565b6139b76146f2565b600080600080600080600080600080604560009054906101000a90046001600160a01b03166001600160a01b031663be05abe36040518163ffffffff1660e01b815260040161016060405180830381865afa158015613a1a573d6000803e3d6000fd5b505050506040513d601f19601f82011682018060405250810190613a3e9190614905565b9a509a509a509a509a509a505099509950995099506000601760080160009054906101000a90046001600160601b03169050601773ce4b16b81A28d785FEEB7b1D56a9B97d450D344363ffbe06279091613a9760465490565b6040516001600160e01b031960e085901b1681526004810192909252602482015260440160006040518083038186803b158015613ad357600080fd5b505af4158015613ae7573d6000803e3d6000fd5b505060455460405163c3b5ffc960e01b81526001600160a01b03909116925063c3b5ffc99150610b0a908e908e908e908e9088908f908f908f908f908f908f906004016149eb565b613b376146f2565b604554604051636539e23160e11b81526001600160a01b0383811660048301529091169063ca73c46290602401613658565b613b716146f2565b604051630b56b11560e41b8152604360048201526001600160a01b038216602482015273ce4b16b81A28d785FEEB7b1D56a9B97d450D34439063b56b11509060440161095a565b613bc06146f2565b604051638a397dd760e01b8152603b60048201526001600160601b038216602482015273ce4b16b81A28d785FEEB7b1D56a9B97d450D344390638a397dd79060440161095a565b613c0f6146f2565b6040516301d2d6f160e51b8152601760048201526001600160401b038216602482015273ce4b16b81A28d785FEEB7b1D56a9B97d450D344390633a5ade209060440161095a565b613c5e6146f2565b604380546001600160a01b03169073ce4b16b81A28d785FEEB7b1D56a9B97d450D344390634a46b83390613c9160465490565b6040516001600160e01b031960e085901b1681526004810192909252602482015260440160006040518083038186803b158015613ccd57600080fd5b505af4158015613ce1573d6000803e3d6000fd5b5050604554604051637f51bb1f60e01b81526001600160a01b0385811660048301529091169250637f51bb1f9150602401613658565b613d1f6146f2565b60405163e37b9e1b60e01b8152602d600482015263ffffffff8216602482015273ce4b16b81A28d785FEEB7b1D56a9B97d450D34439063e37b9e1b9060440161095a565b613d6b6146f2565b600080600080600080604560009054906101000a90046001600160a01b03166001600160a01b0316636e70ce416040518163ffffffff1660e01b815260040160e060405180830381865afa158015613dc7573d6000803e3d6000fd5b505050506040513d601f19601f82011682018060405250810190613deb9190614a65565b601154969c50949a509298509096509094509092505063ffffffff1673ce4b16b81A28d785FEEB7b1D56a9B97d450D344363a48814a56009613e2c60465490565b6040516001600160e01b031960e085901b1681526004810192909252602482015260440160006040518083038186803b158015613e6857600080fd5b505af4158015613e7c573d6000803e3d6000fd5b505060455460405163b5da217160e01b81526001600160a01b03909116925063b5da21719150610e68908a908a908a908a9088908b908b90600401614b01565b613ec46146f2565b6040516383eb9c5960e01b81526009600482015263ffffffff8216602482015273ce4b16b81A28d785FEEB7b1D56a9B97d450D3443906383eb9c599060440161095a565b613f106146f2565b600080600080600080604560009054906101000a90046001600160a01b03166001600160a01b0316636e70ce416040518163ffffffff1660e01b815260040160e060405180830381865afa158015613f6c573d6000803e3d6000fd5b505050506040513d601f19601f82011682018060405250810190613f909190614a65565b600b54969c50939a50919850965094509250506001600160401b031673ce4b16b81A28d785FEEB7b1D56a9B97d450D344363c4faa8676009613fd160465490565b6040516001600160e01b031960e085901b1681526004810192909252602482015260440160006040518083038186803b15801561400d57600080fd5b505af4158015614021573d6000803e3d6000fd5b505060455460405163b5da217160e01b81526001600160a01b03909116925063b5da21719150610e68908a9085908b908b908b908b908b90600401614b01565b6140696146f2565b60405163128c836760e21b8152601760048201526001600160601b038216602482015273ce4b16b81A28d785FEEB7b1D56a9B97d450D344390634a320d9c9060440161095a565b6140b86146f2565b6001600160a01b03811661411d5760405162461bcd60e51b815260206004820152602660248201527f4f776e61626c653a206e6577206f776e657220697320746865207a65726f206160448201526564647265737360d01b6064820152608401611437565b6141268161474c565b50565b6141316146f2565b600080600080600080600080600080604560009054906101000a90046001600160a01b03166001600160a01b031663be05abe36040518163ffffffff1660e01b815260040161016060405180830381865afa158015614194573d6000803e3d6000fd5b505050506040513d601f19601f820116820180604052508101906141b89190614905565b9a509a509a509a509a509a509a50509950995099506000601760060160009054906101000a900463ffffffff169050601773ce4b16b81A28d785FEEB7b1D56a9B97d450D344363dcce6cc8909161420e60465490565b6040516001600160e01b031960e085901b1681526004810192909252602482015260440160006040518083038186803b15801561424a57600080fd5b505af415801561425e573d6000803e3d6000fd5b505060455460405163c3b5ffc960e01b81526001600160a01b03909116925063c3b5ffc99150610b0a908e908e908e9087908f908f908f908f908f908f908f906004016149eb565b6142ae6146f2565b6000806000604560009054906101000a90046001600160a01b03166001600160a01b03166375b922d16040518163ffffffff1660e01b8152600401608060405180830381865afa158015614306573d6000803e3d6000fd5b505050506040513d601f19601f8201168201806040525081019061432a9190614b50565b603f54939650919450909250506001600160601b031673ce4b16b81A28d785FEEB7b1D56a9B97d450D344363a9e31763603b61436560465490565b6040516001600160e01b031960e085901b1681526004810192909252602482015260440160006040518083038186803b1580156143a157600080fd5b505af41580156143b5573d6000803e3d6000fd5b505060455460405163dc49117b60e01b81526001600160a01b03909116925063dc49117b91506111be908790879086908890600401614baf565b6143f76146f2565b600080600080600080604560009054906101000a90046001600160a01b03166001600160a01b03166361ccf97a6040518163ffffffff1660e01b815260040160e060405180830381865afa158015614453573d6000803e3d6000fd5b505050506040513d601f19601f820116820180604052508101906144779190614bdf565b603754969c50949a509298509096509450909250506001600160401b031673ce4b16b81A28d785FEEB7b1D56a9B97d450D344363af11623a602d6144ba60465490565b6040516001600160e01b031960e085901b1681526004810192909252602482015260440160006040518083038186803b1580156144f657600080fd5b505af415801561450a573d6000803e3d6000fd5b505060455460405163883d6a1160e01b81526001600160a01b03909116925063883d6a119150610e68908a908a908a908a908a9089908b90600401614c5a565b6145526146f2565b60405163baa9397360e01b8152600960048201526001600160401b038216602482015273ce4b16b81A28d785FEEB7b1D56a9B97d450D34439063baa939739060440161095a565b6145a16146f2565b600080600080600080604560009054906101000a90046001600160a01b03166001600160a01b03166361ccf97a6040518163ffffffff1660e01b815260040160e060405180830381865afa1580156145fd573d6000803e3d6000fd5b505050506040513d601f19601f820116820180604052508101906146219190614bdf565b602f54969c50939a50919850965094509250506001600160401b031673ce4b16b81A28d785FEEB7b1D56a9B97d450D34436381f5c03a602d61466260465490565b6040516001600160e01b031960e085901b1681526004810192909252602482015260440160006040518083038186803b15801561469e57600080fd5b505af41580156146b2573d6000803e3d6000fd5b505060455460405163883d6a1160e01b81526001600160a01b03909116925063883d6a119150610e68908a9085908b908b908b908b908b90600401614c5a565b6000546001600160a01b03163314612b265760405162461bcd60e51b815260206004820181905260248201527f4f776e61626c653a2063616c6c6572206973206e6f7420746865206f776e65726044820152606401611437565b600080546001600160a01b038381166001600160a01b0319831681178455604051919092169283917f8be0079c531659141344cd1fd0a4f28419497f9722a3daafe3b4186f6b6457e09190a35050565b6001600160401b038116811461412657600080fd5b6000602082840312156147c357600080fd5b81356147ce8161479c565b9392505050565b63ffffffff8116811461412657600080fd5b6000602082840312156147f957600080fd5b81356147ce816147d5565b6001600160601b038116811461412657600080fd5b60006020828403121561482b57600080fd5b81356147ce81614804565b60006020828403121561484857600080fd5b5035919050565b80356001600160a01b038116811461486657600080fd5b919050565b6000806040838503121561487e57600080fd5b6148878361484f565b91506020830135801515811461489c57600080fd5b809150509250929050565b6000602082840312156148b957600080fd5b6147ce8261484f565b61ffff8116811461412657600080fd5b6000602082840312156148e457600080fd5b81356147ce816148c2565b8051614866816147d5565b805161486681614804565b60008060008060008060008060008060006101608c8e03121561492757600080fd5b8b516149328161479c565b60208d0151909b506149438161479c565b60408d0151909a50614954816147d5565b60608d0151909950614965816147d5565b60808d015190985061497681614804565b60a08d0151909750614987816147d5565b60c08d0151909650614998816148c2565b60e08d01519095506149a98161479c565b6101008d01519094506149bb816147d5565b92506149ca6101208d016148fa565b91506149d96101408d016148ef565b90509295989b509295989b9093969950565b6001600160401b039b8c168152998b1660208b015263ffffffff98891660408b015296881660608a01526001600160601b0395861660808a015293871660a089015261ffff9290921660c088015290961660e086015294831661010085015293909316610120830152919091166101408201526101600190565b600080600080600080600060e0888a031215614a8057600080fd5b8751614a8b8161479c565b6020890151909750614a9c8161479c565b6040890151909650614aad8161479c565b6060890151909550614abe8161479c565b6080890151909450614acf816147d5565b60a0890151909350614ae081614804565b60c0890151909250614af1816147d5565b8091505092959891949750929550565b6001600160401b0397881681529587166020870152938616604086015291909416606084015263ffffffff93841660808401526001600160601b031660a083015290911660c082015260e00190565b60008060008060808587031215614b6657600080fd5b8451614b7181614804565b6020860151909450614b82816147d5565b6040860151909350614b9381614804565b6060860151909250614ba4816147d5565b939692955090935050565b6001600160601b03948516815263ffffffff93841660208201529190931660408201529116606082015260800190565b600080600080600080600060e0888a031215614bfa57600080fd5b8751614c05816147d5565b6020890151909750614c168161479c565b6040890151909650614c278161479c565b6060890151909550614c388161479c565b6080890151909450614c49816147d5565b60a0890151909350614ae08161479c565b63ffffffff97881681526001600160401b03968716602082015294861660408601529285166060850152908516608084015290921660a0820152911660c082015260e00190565b81810381811115614cc257634e487b7160e01b600052601160045260246000fd5b92915050565b60008060008060808587031215614cde57600080fd5b8451614ce98161479c565b6020860151909450614cfa8161479c565b6040860151909350614b938161479c565b6001600160401b03948516815292841660208401529216604082015263ffffffff90911660608201526080019056fea2646970667358221220597074011b61786877b463bcae22c6d0e1ec931800ef5364f1b7fe976b1d340164736f6c63430008110033",
  "deployedBytecode": "0x608060405234801561001057600080fd5b506004361061048b5760003560e01c806368fcf2a811610262578063be26ebad11610151578063dc46f09d116100ce578063f2fde38b11610092578063f2fde38b146108c9578063f44c0f33146108dc578063f604f5d3146108e4578063f9f06a9a146108ec578063fabcb8fa146108f4578063fcbf9be71461090757600080fd5b8063dc46f09d14610880578063dd6d0e6814610893578063e7c7c8c81461089b578063f00b17d4146108ae578063f039ee9a146108b657600080fd5b8063ca73c46211610115578063ca73c4621461082c578063caf0bc8f1461083f578063d1234d9514610852578063d25cb94614610865578063da7767981461087857600080fd5b8063be26ebad146107ee578063c1104a2d14610801578063c63cba4614610814578063c789663b1461081c578063c79fb0111461082457600080fd5b80638c382a53116101df57806397fd27fc116101a357806397fd27fc1461079a5780639b64dab8146107ad578063a8550725146107b5578063aa4d9ccc146107c8578063b372e403146107db57600080fd5b80638c382a53146107535780638da5cb5b1461075c57806390464a4414610777578063961312ce1461078a57806397845cc41461079257600080fd5b80637256fde9116102265780637256fde91461070a5780637318814c1461071257806380b2f2db1461072557806385082d2c1461072d5780638b18a5051461074057600080fd5b806368fcf2a8146106ae5780636a57a28b146106d4578063715018a6146106e757806371c96758146106ef57806371e7b693146106f757600080fd5b80634078dde01161037e578063541d6987116102fb578063605da053116102bf578063605da0531461067057806360d712fc14610678578063625391f91461068b5780636263b883146106935780636636b655146106a657600080fd5b8063541d6987146106325780635e3ef2c7146106455780635f2b2d0d1461064d5780635faa6fa0146106605780636015124b1461066857600080fd5b806348dd7d661161034257806348dd7d66146105d35780634abef7d4146105e65780634cf19dde146105f95780634e216f5f1461060c5780634f5bfd2a1461061f57600080fd5b80634078dde01461058a57806340c9ac421461059d57806343b327c3146105b0578063471c169f146105c357806348075367146105cb57600080fd5b806324d6fa9d1161040c5780632eb97687116103d05780632eb976871461054c5780632f65b50f1461055457806337fa5d511461055c5780633860c3571461056f5780633a1e363d1461057757600080fd5b806324d6fa9d1461051957806326825a9d1461052157806326c23dda1461052957806329d8c91d146105315780632df793c71461054457600080fd5b8063128643371161045357806312864337146104d057806315566135146104e35780631b3d4e63146104eb5780631fb738bb146104f357806322f1d80a1461050657600080fd5b806301a1f86f146104905780630403ac24146104a557806305a1d322146104ad5780630a303cd2146104b557806311f08c3e146104c8575b600080fd5b6104a361049e3660046147b1565b61090f565b005b6104a361098d565b6104a3610b49565b6104a36104c33660046147e7565b610cc6565b6104a3610d12565b6104a36104de366004614819565b610ea3565b6104a3610ef2565b6104a3611072565b6104a3610501366004614819565b6111f6565b6104a36105143660046147b1565b611245565b6104a3611294565b6104a36113ed565b6104a36114af565b6104a361053f3660046147e7565b61160a565b6104a3611656565b6104a361179b565b6104a361191b565b6104a361056a366004614836565b611a79565b6104a3611a8a565b6104a36105853660046147b1565b611bd6565b6104a36105983660046147b1565b611c25565b6104a36105ab3660046147b1565b611c74565b6104a36105be3660046147b1565b611cc3565b6104a3611d11565b6104a3611e6b565b6104a36105e13660046147b1565b611fb0565b6104a36105f43660046147e7565b611fff565b6104a36106073660046147e7565b61204b565b6104a361061a3660046147b1565b612097565b6104a361062d3660046147e7565b6120e6565b6104a36106403660046147e7565b612132565b6104a361217e565b6104a361065b36600461486b565b6122f9565b6104a361236d565b6104a36124c8565b6104a3612645565b6104a361068636600461486b565b61276c565b6104a36127ae565b6104a36106a13660046147b1565b612904565b6104a3612953565b6106c16106bc366004614836565b612aae565b6040519081526020015b60405180910390f35b6104a36106e23660046147b1565b612ac5565b6104a3612b14565b6104a3612b28565b6104a36107053660046147e7565b612c6d565b6104a3612cb9565b6104a36107203660046147e7565b612e36565b6104a3612e82565b6104a361073b366004614819565b612fcb565b6104a361074e3660046148a7565b61301a565b6106c160495481565b6000546040516001600160a01b0390911681526020016106cb565b6104a36107853660046148d2565b613083565b6104a36130cd565b6104a3613215565b6104a36107a83660046147e7565b613370565b6104a36133bc565b6104a36107c33660046147e7565b61353c565b6104a36107d63660046147e7565b613588565b6104a36107e93660046147b1565b6135d3565b6104a36107fc3660046148a7565b613622565b6104a361080f3660046147b1565b613686565b6104a36136d5565b6104a3613855565b6104a36139af565b6104a361083a3660046148a7565b613b2f565b6104a361084d3660046148a7565b613b69565b6104a3610860366004614819565b613bb8565b6104a36108733660046147b1565b613c07565b6104a3613c56565b6104a361088e3660046147e7565b613d17565b6104a3613d63565b6104a36108a93660046147e7565b613ebc565b6104a3613f08565b6104a36108c4366004614819565b614061565b6104a36108d73660046148a7565b6140b0565b6104a3614129565b6104a36142a6565b6104a36143ef565b6104a36109023660046147b1565b61454a565b6104a3614599565b6109176146f2565b6040516340834c5960e11b8152600160048201526001600160401b038216602482015273__$a76fe959a16b0ef92b5d2bd739d5cb0318$__9063810698b2906044015b60006040518083038186803b15801561097257600080fd5b505af4158015610986573d6000803e3d6000fd5b5050505050565b6109956146f2565b600080600080600080600080600080604560009054906101000a90046001600160a01b03166001600160a01b031663be05abe36040518163ffffffff1660e01b815260040161016060405180830381865afa1580156109f8573d6000803e3d6000fd5b505050506040513d601f19601f82011682018060405250810190610a1c9190614905565b5099509950995099509950995099509950995099506000601760140160009054906101000a900463ffffffff169050601773__$a76fe959a16b0ef92b5d2bd739d5cb0318$__637d105c799091610a7260465490565b6040516001600160e01b031960e085901b1681526004810192909252602482015260440160006040518083038186803b158015610aae57600080fd5b505af4158015610ac2573d6000803e3d6000fd5b505060455460405163c3b5ffc960e01b81526001600160a01b03909116925063c3b5ffc99150610b0a908e908e908e908e908e908e908e908e908e908e908e906004016149eb565b600060405180830381600087803b158015610b2457600080fd5b505af1158015610b38573d6000803e3d6000fd5b505050505050505050505050505050565b610b516146f2565b600080600080600080600080600080604560009054906101000a90046001600160a01b03166001600160a01b031663be05abe36040518163ffffffff1660e01b815260040161016060405180830381865afa158015610bb4573d6000803e3d6000fd5b505050506040513d601f19601f82011682018060405250810190610bd89190614905565b9a509a5050995099509950995099509950995099506000601760100160009054906101000a900463ffffffff169050601773__$a76fe959a16b0ef92b5d2bd739d5cb0318$__638c0fc65a9091610c2e60465490565b6040516001600160e01b031960e085901b1681526004810192909252602482015260440160006040518083038186803b158015610c6a57600080fd5b505af4158015610c7e573d6000803e3d6000fd5b505060455460405163c3b5ffc960e01b81526001600160a01b03909116925063c3b5ffc99150610b0a908e908e908e908e908e908e908e908e908c908f908f906004016149eb565b610cce6146f2565b604051630587584360e21b8152602d600482015263ffffffff8216602482015273__$a76fe959a16b0ef92b5d2bd739d5cb0318$__9063161d610c9060440161095a565b610d1a6146f2565b600080600080600080604560009054906101000a90046001600160a01b03166001600160a01b0316636e70ce416040518163ffffffff1660e01b815260040160e060405180830381865afa158015610d76573d6000803e3d6000fd5b505050506040513d601f19601f82011682018060405250810190610d9a9190614a65565b50601554959b5093995091975095509350915063ffffffff1673__$a76fe959a16b0ef92b5d2bd739d5cb0318$__63728bd45d6009610dd860465490565b6040516001600160e01b031960e085901b1681526004810192909252602482015260440160006040518083038186803b158015610e1457600080fd5b505af4158015610e28573d6000803e3d6000fd5b505060455460405163b5da217160e01b81526001600160a01b03909116925063b5da21719150610e68908a908a908a908a908a908a908a90600401614b01565b600060405180830381600087803b158015610e8257600080fd5b505af1158015610e96573d6000803e3d6000fd5b5050505050505050505050565b610eab6146f2565b604051632fc22b3f60e21b8152603b60048201526001600160601b038216602482015273__$a76fe959a16b0ef92b5d2bd739d5cb0318$__9063bf08acfc9060440161095a565b610efa6146f2565b600080600080600080600080600080604560009054906101000a90046001600160a01b03166001600160a01b031663be05abe36040518163ffffffff1660e01b815260040161016060405180830381865afa158015610f5d573d6000803e3d6000fd5b505050506040513d601f19601f82011682018060405250810190610f819190614905565b9a509a509a5050995099509950995099509950995060006017600e0160009054906101000a90046001600160401b03169050601773__$a76fe959a16b0ef92b5d2bd739d5cb0318$__634569ab889091610fda60465490565b6040516001600160e01b031960e085901b1681526004810192909252602482015260440160006040518083038186803b15801561101657600080fd5b505af415801561102a573d6000803e3d6000fd5b505060455460405163c3b5ffc960e01b81526001600160a01b03909116925063c3b5ffc99150610b0a908e908e908e908e908e908e908e908b908f908f908f906004016149eb565b61107a6146f2565b6000806000604560009054906101000a90046001600160a01b03166001600160a01b03166375b922d16040518163ffffffff1660e01b8152600401608060405180830381865afa1580156110d2573d6000803e3d6000fd5b505050506040513d601f19601f820116820180604052508101906110f69190614b50565b603b805493975091955093506001600160601b03909116915073__$a76fe959a16b0ef92b5d2bd739d5cb0318$__90638f2ca6459061113460465490565b6040516001600160e01b031960e085901b1681526004810192909252602482015260440160006040518083038186803b15801561117057600080fd5b505af4158015611184573d6000803e3d6000fd5b505060455460405163dc49117b60e01b81526001600160a01b03909116925063dc49117b91506111be908490889088908890600401614baf565b600060405180830381600087803b1580156111d857600080fd5b505af11580156111ec573d6000803e3d6000fd5b5050505050505050565b6111fe6146f2565b604051632eed92d760e21b8152600960048201526001600160601b038216602482015273__$a76fe959a16b0ef92b5d2bd739d5cb0318$__9063bbb64b5c9060440161095a565b61124d6146f2565b6040516374b0fecf60e11b8152602d60048201526001600160401b038216602482015273__$a76fe959a16b0ef92b5d2bd739d5cb0318$__9063e961fd9e9060440161095a565b61129c6146f2565b600080600080600080604560009054906101000a90046001600160a01b03166001600160a01b03166361ccf97a6040518163ffffffff1660e01b815260040160e060405180830381865afa1580156112f8573d6000803e3d6000fd5b505050506040513d601f19601f8201168201806040525081019061131c9190614bdf565b603554969c50949a509298509096509094509092505063ffffffff1673__$a76fe959a16b0ef92b5d2bd739d5cb0318$__6305be330f602d61135d60465490565b6040516001600160e01b031960e085901b1681526004810192909252602482015260440160006040518083038186803b15801561139957600080fd5b505af41580156113ad573d6000803e3d6000fd5b505060455460405163883d6a1160e01b81526001600160a01b03909116925063883d6a119150610e68908a908a908a908a9088908b908b90600401614c5a565b6113f56146f2565b6048546114405760405162461bcd60e51b815260206004820152601460248201527310da185b99d9481b9bdd081a5b9a5d1a585d195960621b60448201526064015b60405180910390fd5b6046546048546114509042614ca1565b1161149d5760405162461bcd60e51b815260206004820181905260248201527f476f7665726e616e63652064656c617920686173206e6f7420656c61707365646044820152606401611437565b60478054604655600090819055604855565b6114b76146f2565b600080600080600080604560009054906101000a90046001600160a01b03166001600160a01b03166361ccf97a6040518163ffffffff1660e01b815260040160e060405180830381865afa158015611513573d6000803e3d6000fd5b505050506040513d601f19601f820116820180604052508101906115379190614bdf565b603354969c50949a509298509650909450909250506001600160401b031673__$a76fe959a16b0ef92b5d2bd739d5cb0318$__633861f138602d61157a60465490565b6040516001600160e01b031960e085901b1681526004810192909252602482015260440160006040518083038186803b1580156115b657600080fd5b505af41580156115ca573d6000803e3d6000fd5b505060455460405163883d6a1160e01b81526001600160a01b03909116925063883d6a119150610e68908a908a908a9087908b908b908b90600401614c5a565b6116126146f2565b604051639707e9ad60e01b81526017600482015263ffffffff8216602482015273__$a76fe959a16b0ef92b5d2bd739d5cb0318$__90639707e9ad9060440161095a565b61165e6146f2565b6000806000604560009054906101000a90046001600160a01b03166001600160a01b031663c42b64d06040518163ffffffff1660e01b8152600401608060405180830381865afa1580156116b6573d6000803e3d6000fd5b505050506040513d601f19601f820116820180604052508101906116da9190614cc8565b50600754929550909350915063ffffffff1673__$a76fe959a16b0ef92b5d2bd739d5cb0318$__632520e8bf600161171160465490565b6040516001600160e01b031960e085901b1681526004810192909252602482015260440160006040518083038186803b15801561174d57600080fd5b505af4158015611761573d6000803e3d6000fd5b5050604554604051633832650760e01b81526001600160a01b039091169250633832650791506111be908790879087908790600401614d0b565b6117a36146f2565b600080600080600080600080600080604560009054906101000a90046001600160a01b03166001600160a01b031663be05abe36040518163ffffffff1660e01b815260040161016060405180830381865afa158015611806573d6000803e3d6000fd5b505050506040513d601f19601f8201168201806040525081019061182a9190614905565b9a509a509a509a509a509a509a509a509a505099506000601760020160009054906101000a90046001600160401b03169050601773__$a76fe959a16b0ef92b5d2bd739d5cb0318$__63d6964b97909161188360465490565b6040516001600160e01b031960e085901b1681526004810192909252602482015260440160006040518083038186803b1580156118bf57600080fd5b505af41580156118d3573d6000803e3d6000fd5b505060455460405163c3b5ffc960e01b81526001600160a01b03909116925063c3b5ffc99150610b0a908e9085908f908f908f908f908f908f908f908f908f906004016149eb565b6119236146f2565b600080600080600080604560009054906101000a90046001600160a01b03166001600160a01b0316636e70ce416040518163ffffffff1660e01b815260040160e060405180830381865afa15801561197f573d6000803e3d6000fd5b505050506040513d601f19601f820116820180604052508101906119a39190614a65565b60098054969d50949b50929950909750955093506001600160401b03909116915073__$a76fe959a16b0ef92b5d2bd739d5cb0318$__9063ec9f4760906119e960465490565b6040516001600160e01b031960e085901b1681526004810192909252602482015260440160006040518083038186803b158015611a2557600080fd5b505af4158015611a39573d6000803e3d6000fd5b505060455460405163b5da217160e01b81526001600160a01b03909116925063b5da21719150610e689084908b908b908b908b908b908b90600401614b01565b611a816146f2565b60475542604855565b611a926146f2565b6000806000604560009054906101000a90046001600160a01b03166001600160a01b031663c42b64d06040518163ffffffff1660e01b8152600401608060405180830381865afa158015611aea573d6000803e3d6000fd5b505050506040513d601f19601f82011682018060405250810190611b0e9190614cc8565b6001805493975091955093506001600160401b03909116915073__$a76fe959a16b0ef92b5d2bd739d5cb0318$__9063ae25638390611b4c60465490565b6040516001600160e01b031960e085901b1681526004810192909252602482015260440160006040518083038186803b158015611b8857600080fd5b505af4158015611b9c573d6000803e3d6000fd5b5050604554604051633832650760e01b81526001600160a01b039091169250633832650791506111be908490889088908890600401614d0b565b611bde6146f2565b6040516368af502160e01b8152600960048201526001600160401b038216602482015273__$a76fe959a16b0ef92b5d2bd739d5cb0318$__906368af50219060440161095a565b611c2d6146f2565b604051630ac6330760e11b8152600160048201526001600160401b038216602482015273__$a76fe959a16b0ef92b5d2bd739d5cb0318$__9063158c660e9060440161095a565b611c7c6146f2565b6040516319de06fb60e31b8152600160048201526001600160401b038216602482015273__$a76fe959a16b0ef92b5d2bd739d5cb0318$__9063cef037d89060440161095a565b611ccb6146f2565b604051620f049d60ea1b8152600960048201526001600160401b038216602482015273__$a76fe959a16b0ef92b5d2bd739d5cb0318$__90633c1274009060440161095a565b611d196146f2565b600080600080600080604560009054906101000a90046001600160a01b03166001600160a01b0316636e70ce416040518163ffffffff1660e01b815260040160e060405180830381865afa158015611d75573d6000803e3d6000fd5b505050506040513d601f19601f82011682018060405250810190611d999190614a65565b600d54969c50949a5091985096509450909250506001600160401b031673__$a76fe959a16b0ef92b5d2bd739d5cb0318$__639232db3f6009611ddb60465490565b6040516001600160e01b031960e085901b1681526004810192909252602482015260440160006040518083038186803b158015611e1757600080fd5b505af4158015611e2b573d6000803e3d6000fd5b505060455460405163b5da217160e01b81526001600160a01b03909116925063b5da21719150610e68908a908a9086908b908b908b908b90600401614b01565b611e736146f2565b6000806000604560009054906101000a90046001600160a01b03166001600160a01b03166375b922d16040518163ffffffff1660e01b8152600401608060405180830381865afa158015611ecb573d6000803e3d6000fd5b505050506040513d601f19601f82011682018060405250810190611eef9190614b50565b50604154929550909350915063ffffffff1673__$a76fe959a16b0ef92b5d2bd739d5cb0318$__630c4e5686603b611f2660465490565b6040516001600160e01b031960e085901b1681526004810192909252602482015260440160006040518083038186803b158015611f6257600080fd5b505af4158015611f76573d6000803e3d6000fd5b505060455460405163dc49117b60e01b81526001600160a01b03909116925063dc49117b91506111be908790879087908790600401614baf565b611fb86146f2565b604051633964f6cb60e11b8152601760048201526001600160401b038216602482015273__$a76fe959a16b0ef92b5d2bd739d5cb0318$__906372c9ed969060440161095a565b6120076146f2565b604051636312276d60e11b81526017600482015263ffffffff8216602482015273__$a76fe959a16b0ef92b5d2bd739d5cb0318$__9063c6244eda9060440161095a565b6120536146f2565b604051632d453d5760e01b8152603b600482015263ffffffff8216602482015273__$a76fe959a16b0ef92b5d2bd739d5cb0318$__90632d453d579060440161095a565b61209f6146f2565b6040516377b3952360e11b8152600960048201526001600160401b038216602482015273__$a76fe959a16b0ef92b5d2bd739d5cb0318$__9063ef672a469060440161095a565b6120ee6146f2565b60405163382c42c560e11b8152603b600482015263ffffffff8216602482015273__$a76fe959a16b0ef92b5d2bd739d5cb0318$__90637058858a9060440161095a565b61213a6146f2565b60405163730d3c4360e11b81526009600482015263ffffffff8216602482015273__$a76fe959a16b0ef92b5d2bd739d5cb0318$__9063e61a78869060440161095a565b6121866146f2565b600080600080600080600080600080604560009054906101000a90046001600160a01b03166001600160a01b031663be05abe36040518163ffffffff1660e01b815260040161016060405180830381865afa1580156121e9573d6000803e3d6000fd5b505050506040513d601f19601f8201168201806040525081019061220d9190614905565b9a509a509a509a505099509950995099509950995060006017600c0160009054906101000a900461ffff169050601773__$a76fe959a16b0ef92b5d2bd739d5cb0318$__63d7e1b317909161226160465490565b6040516001600160e01b031960e085901b1681526004810192909252602482015260440160006040518083038186803b15801561229d57600080fd5b505af41580156122b1573d6000803e3d6000fd5b505060455460405163c3b5ffc960e01b81526001600160a01b03909116925063c3b5ffc99150610b0a908e908e908e908e908e908e908a908f908f908f908f906004016149eb565b6123016146f2565b604554604051635f2b2d0d60e01b81526001600160a01b038481166004830152831515602483015290911690635f2b2d0d906044015b600060405180830381600087803b15801561235157600080fd5b505af1158015612365573d6000803e3d6000fd5b505050505050565b6123756146f2565b600080600080600080604560009054906101000a90046001600160a01b03166001600160a01b0316636e70ce416040518163ffffffff1660e01b815260040160e060405180830381865afa1580156123d1573d6000803e3d6000fd5b505050506040513d601f19601f820116820180604052508101906123f59190614a65565b600f54969c50949a509298509650909450909250506001600160401b031673__$a76fe959a16b0ef92b5d2bd739d5cb0318$__638a346d4d600961243860465490565b6040516001600160e01b031960e085901b1681526004810192909252602482015260440160006040518083038186803b15801561247457600080fd5b505af4158015612488573d6000803e3d6000fd5b505060455460405163b5da217160e01b81526001600160a01b03909116925063b5da21719150610e68908a908a908a9087908b908b908b90600401614b01565b6124d06146f2565b600080600080600080600080600080604560009054906101000a90046001600160a01b03166001600160a01b031663be05abe36040518163ffffffff1660e01b815260040161016060405180830381865afa158015612533573d6000803e3d6000fd5b505050506040513d601f19601f820116820180604052508101906125579190614905565b9a509a509a509a509a50509950995099509950995060006017600a0160009054906101000a900463ffffffff169050601773__$a76fe959a16b0ef92b5d2bd739d5cb0318$__631b3f064f90916125ad60465490565b6040516001600160e01b031960e085901b1681526004810192909252602482015260440160006040518083038186803b1580156125e957600080fd5b505af41580156125fd573d6000803e3d6000fd5b505060455460405163c3b5ffc960e01b81526001600160a01b03909116925063c3b5ffc99150610b0a908e908e908e908e908e9089908f908f908f908f908f906004016149eb565b61264d6146f2565b6000604954116126965760405162461bcd60e51b815260206004820152601460248201527310da185b99d9481b9bdd081a5b9a5d1a585d195960621b6044820152606401611437565b6046546049546126a69042614ca1565b10156126f45760405162461bcd60e51b815260206004820181905260248201527f476f7665726e616e63652064656c617920686173206e6f7420656c61707365646044820152606401611437565b604554604a546040516334e2fffd60e21b81526001600160a01b03918216600482015291169063d38bfff490602401600060405180830381600087803b15801561273d57600080fd5b505af1158015612751573d6000803e3d6000fd5b505060006049555050604a80546001600160a01b0319169055565b6127746146f2565b604554604051631835c4bf60e21b81526001600160a01b0384811660048301528315156024830152909116906360d712fc90604401612337565b6127b66146f2565b600080600080600080604560009054906101000a90046001600160a01b03166001600160a01b03166361ccf97a6040518163ffffffff1660e01b815260040160e060405180830381865afa158015612812573d6000803e3d6000fd5b505050506040513d601f19601f820116820180604052508101906128369190614bdf565b50603954959b5093995091975095509350915063ffffffff1673__$a76fe959a16b0ef92b5d2bd739d5cb0318$__63dbf83803602d61287460465490565b6040516001600160e01b031960e085901b1681526004810192909252602482015260440160006040518083038186803b1580156128b057600080fd5b505af41580156128c4573d6000803e3d6000fd5b505060455460405163883d6a1160e01b81526001600160a01b03909116925063883d6a119150610e68908a908a908a908a908a908a908a90600401614c5a565b61290c6146f2565b6040516323d4f60160e21b8152601760048201526001600160401b038216602482015273__$a76fe959a16b0ef92b5d2bd739d5cb0318$__90638f53d8049060440161095a565b61295b6146f2565b600080600080600080604560009054906101000a90046001600160a01b03166001600160a01b0316636e70ce416040518163ffffffff1660e01b815260040160e060405180830381865afa1580156129b7573d6000803e3d6000fd5b505050506040513d601f19601f820116820180604052508101906129db9190614a65565b601354969c50949a509298509096509450909250506001600160601b031673__$a76fe959a16b0ef92b5d2bd739d5cb0318$__63f818e43c6009612a1e60465490565b6040516001600160e01b031960e085901b1681526004810192909252602482015260440160006040518083038186803b158015612a5a57600080fd5b505af4158015612a6e573d6000803e3d6000fd5b505060455460405163b5da217160e01b81526001600160a01b03909116925063b5da21719150610e68908a908a908a908a908a9089908b90600401614b01565b60468160038110612abe57600080fd5b0154905081565b612acd6146f2565b60405163f543e37d60e01b8152602d60048201526001600160401b038216602482015273__$a76fe959a16b0ef92b5d2bd739d5cb0318$__9063f543e37d9060440161095a565b612b1c6146f2565b612b26600061474c565b565b612b306146f2565b6000806000604560009054906101000a90046001600160a01b03166001600160a01b03166375b922d16040518163ffffffff1660e01b8152600401608060405180830381865afa158015612b88573d6000803e3d6000fd5b505050506040513d601f19601f82011682018060405250810190612bac9190614b50565b603d5493965090945092505063ffffffff1673__$a76fe959a16b0ef92b5d2bd739d5cb0318$__63d2a27c33603b612be360465490565b6040516001600160e01b031960e085901b1681526004810192909252602482015260440160006040518083038186803b158015612c1f57600080fd5b505af4158015612c33573d6000803e3d6000fd5b505060455460405163dc49117b60e01b81526001600160a01b03909116925063dc49117b91506111be908790859088908890600401614baf565b612c756146f2565b6040516353cf6f6560e01b81526001600482015263ffffffff8216602482015273__$a76fe959a16b0ef92b5d2bd739d5cb0318$__906353cf6f659060440161095a565b612cc16146f2565b600080600080600080600080600080604560009054906101000a90046001600160a01b03166001600160a01b031663be05abe36040518163ffffffff1660e01b815260040161016060405180830381865afa158015612d24573d6000803e3d6000fd5b505050506040513d601f19601f82011682018060405250810190612d489190614905565b9a509a509a509a509a509a509a509a5050995099506000601760040160009054906101000a900463ffffffff169050601773__$a76fe959a16b0ef92b5d2bd739d5cb0318$__6351a3d06e9091612d9e60465490565b6040516001600160e01b031960e085901b1681526004810192909252602482015260440160006040518083038186803b158015612dda57600080fd5b505af4158015612dee573d6000803e3d6000fd5b505060455460405163c3b5ffc960e01b81526001600160a01b03909116925063c3b5ffc99150610b0a908e908e9086908f908f908f908f908f908f908f908f906004016149eb565b612e3e6146f2565b60405163126e077960e31b81526017600482015263ffffffff8216602482015273__$a76fe959a16b0ef92b5d2bd739d5cb0318$__906393703bc89060440161095a565b612e8a6146f2565b6000806000604560009054906101000a90046001600160a01b03166001600160a01b031663c42b64d06040518163ffffffff1660e01b8152600401608060405180830381865afa158015612ee2573d6000803e3d6000fd5b505050506040513d601f19601f82011682018060405250810190612f069190614cc8565b600554939650919450909250506001600160401b031673__$a76fe959a16b0ef92b5d2bd739d5cb0318$__6368decba26001612f4160465490565b6040516001600160e01b031960e085901b1681526004810192909252602482015260440160006040518083038186803b158015612f7d57600080fd5b505af4158015612f91573d6000803e3d6000fd5b5050604554604051633832650760e01b81526001600160a01b039091169250633832650791506111be908790879086908890600401614d0b565b612fd36146f2565b6040516322b8310d60e21b8152601760048201526001600160601b038216602482015273__$a76fe959a16b0ef92b5d2bd739d5cb0318$__90638ae0c4349060440161095a565b6130226146f2565b604a80546001600160a01b0319166001600160a01b0383169081179091554260498190556040805192835260208301919091527f24973178c1aef0f16b3490f7b45109bb38df71d627a7ed575597447150837881910160405180910390a150565b61308b6146f2565b6040516336cdaf1960e11b81526017600482015261ffff8216602482015273__$a76fe959a16b0ef92b5d2bd739d5cb0318$__90636d9b5e329060440161095a565b6130d56146f2565b6000806000604560009054906101000a90046001600160a01b03166001600160a01b031663c42b64d06040518163ffffffff1660e01b8152600401608060405180830381865afa15801561312d573d6000803e3d6000fd5b505050506040513d601f19601f820116820180604052508101906131519190614cc8565b6003549396509094509250506001600160401b031673__$a76fe959a16b0ef92b5d2bd739d5cb0318$__63362c2372600161318b60465490565b6040516001600160e01b031960e085901b1681526004810192909252602482015260440160006040518083038186803b1580156131c757600080fd5b505af41580156131db573d6000803e3d6000fd5b5050604554604051633832650760e01b81526001600160a01b039091169250633832650791506111be908790859088908890600401614d0b565b61321d6146f2565b600080600080600080604560009054906101000a90046001600160a01b03166001600160a01b03166361ccf97a6040518163ffffffff1660e01b815260040160e060405180830381865afa158015613279573d6000803e3d6000fd5b505050506040513d601f19601f8201168201806040525081019061329d9190614bdf565b602d8054969d50949b509299509097509550935063ffffffff909116915073__$a76fe959a16b0ef92b5d2bd739d5cb0318$__9063a62029f6906132e060465490565b6040516001600160e01b031960e085901b1681526004810192909252602482015260440160006040518083038186803b15801561331c57600080fd5b505af4158015613330573d6000803e3d6000fd5b505060455460405163883d6a1160e01b81526001600160a01b03909116925063883d6a119150610e689084908b908b908b908b908b908b90600401614c5a565b6133786146f2565b604051631323ffb160e11b81526017600482015263ffffffff8216602482015273__$a76fe959a16b0ef92b5d2bd739d5cb0318$__90632647ff629060440161095a565b6133c46146f2565b600080600080600080600080600080604560009054906101000a90046001600160a01b03166001600160a01b031663be05abe36040518163ffffffff1660e01b815260040161016060405180830381865afa158015613427573d6000803e3d6000fd5b505050506040513d601f19601f8201168201806040525081019061344b9190614905565b9a50509950995099509950995099509950995099506000601760120160009054906101000a90046001600160601b03169050601773__$a76fe959a16b0ef92b5d2bd739d5cb0318$__636d5be9be90916134a460465490565b6040516001600160e01b031960e085901b1681526004810192909252602482015260440160006040518083038186803b1580156134e057600080fd5b505af41580156134f4573d6000803e3d6000fd5b505060455460405163c3b5ffc960e01b81526001600160a01b03909116925063c3b5ffc99150610b0a908e908e908e908e908e908e908e908e908e908d908f906004016149eb565b6135446146f2565b60405163a6b0e7bd60e01b81526017600482015263ffffffff8216602482015273__$a76fe959a16b0ef92b5d2bd739d5cb0318$__9063a6b0e7bd9060440161095a565b6135906146f2565b604051620c4fa760ea1b8152602d600482015263ffffffff8216602482015273__$a76fe959a16b0ef92b5d2bd739d5cb0318$__9063313e9c009060440161095a565b6135db6146f2565b6040516391346cbb60e01b8152602d60048201526001600160401b038216602482015273__$a76fe959a16b0ef92b5d2bd739d5cb0318$__906391346cbb9060440161095a565b61362a6146f2565b60455460405163be26ebad60e01b81526001600160a01b0383811660048301529091169063be26ebad906024015b600060405180830381600087803b15801561367257600080fd5b505af1158015610986573d6000803e3d6000fd5b61368e6146f2565b6040516304b8e2eb60e01b8152602d60048201526001600160401b038216602482015273__$a76fe959a16b0ef92b5d2bd739d5cb0318$__906304b8e2eb9060440161095a565b6136dd6146f2565b600080600080600080600080600080604560009054906101000a90046001600160a01b03166001600160a01b031663be05abe36040518163ffffffff1660e01b815260040161016060405180830381865afa158015613740573d6000803e3d6000fd5b505050506040513d601f19601f820116820180604052508101906137649190614905565b9a509a509a509a509a509a509a509a509a509a50506000601760000160009054906101000a90046001600160401b03169050601773__$a76fe959a16b0ef92b5d2bd739d5cb0318$__630b5a08ed90916137bd60465490565b6040516001600160e01b031960e085901b1681526004810192909252602482015260440160006040518083038186803b1580156137f957600080fd5b505af415801561380d573d6000803e3d6000fd5b505060455460405163c3b5ffc960e01b81526001600160a01b03909116925063c3b5ffc99150610b0a9084908f908f908f908f908f908f908f908f908f908f906004016149eb565b61385d6146f2565b600080600080600080604560009054906101000a90046001600160a01b03166001600160a01b03166361ccf97a6040518163ffffffff1660e01b815260040160e060405180830381865afa1580156138b9573d6000803e3d6000fd5b505050506040513d601f19601f820116820180604052508101906138dd9190614bdf565b603154969c50949a5091985096509450909250506001600160401b031673__$a76fe959a16b0ef92b5d2bd739d5cb0318$__63f08cac39602d61391f60465490565b6040516001600160e01b031960e085901b1681526004810192909252602482015260440160006040518083038186803b15801561395b57600080fd5b505af415801561396f573d6000803e3d6000fd5b505060455460405163883d6a1160e01b81526001600160a01b03909116925063883d6a119150610e68908a908a9086908b908b908b908b90600401614c5a565b6139b76146f2565b600080600080600080600080600080604560009054906101000a90046001600160a01b03166001600160a01b031663be05abe36040518163ffffffff1660e01b815260040161016060405180830381865afa158015613a1a573d6000803e3d6000fd5b505050506040513d601f19601f82011682018060405250810190613a3e9190614905565b9a509a509a509a509a509a505099509950995099506000601760080160009054906101000a90046001600160601b03169050601773__$a76fe959a16b0ef92b5d2bd739d5cb0318$__63ffbe06279091613a9760465490565b6040516001600160e01b031960e085901b1681526004810192909252602482015260440160006040518083038186803b158015613ad357600080fd5b505af4158015613ae7573d6000803e3d6000fd5b505060455460405163c3b5ffc960e01b81526001600160a01b03909116925063c3b5ffc99150610b0a908e908e908e908e9088908f908f908f908f908f908f906004016149eb565b613b376146f2565b604554604051636539e23160e11b81526001600160a01b0383811660048301529091169063ca73c46290602401613658565b613b716146f2565b604051630b56b11560e41b8152604360048201526001600160a01b038216602482015273__$a76fe959a16b0ef92b5d2bd739d5cb0318$__9063b56b11509060440161095a565b613bc06146f2565b604051638a397dd760e01b8152603b60048201526001600160601b038216602482015273__$a76fe959a16b0ef92b5d2bd739d5cb0318$__90638a397dd79060440161095a565b613c0f6146f2565b6040516301d2d6f160e51b8152601760048201526001600160401b038216602482015273__$a76fe959a16b0ef92b5d2bd739d5cb0318$__90633a5ade209060440161095a565b613c5e6146f2565b604380546001600160a01b03169073__$a76fe959a16b0ef92b5d2bd739d5cb0318$__90634a46b83390613c9160465490565b6040516001600160e01b031960e085901b1681526004810192909252602482015260440160006040518083038186803b158015613ccd57600080fd5b505af4158015613ce1573d6000803e3d6000fd5b5050604554604051637f51bb1f60e01b81526001600160a01b0385811660048301529091169250637f51bb1f9150602401613658565b613d1f6146f2565b60405163e37b9e1b60e01b8152602d600482015263ffffffff8216602482015273__$a76fe959a16b0ef92b5d2bd739d5cb0318$__9063e37b9e1b9060440161095a565b613d6b6146f2565b600080600080600080604560009054906101000a90046001600160a01b03166001600160a01b0316636e70ce416040518163ffffffff1660e01b815260040160e060405180830381865afa158015613dc7573d6000803e3d6000fd5b505050506040513d601f19601f82011682018060405250810190613deb9190614a65565b601154969c50949a509298509096509094509092505063ffffffff1673__$a76fe959a16b0ef92b5d2bd739d5cb0318$__63a48814a56009613e2c60465490565b6040516001600160e01b031960e085901b1681526004810192909252602482015260440160006040518083038186803b158015613e6857600080fd5b505af4158015613e7c573d6000803e3d6000fd5b505060455460405163b5da217160e01b81526001600160a01b03909116925063b5da21719150610e68908a908a908a908a9088908b908b90600401614b01565b613ec46146f2565b6040516383eb9c5960e01b81526009600482015263ffffffff8216602482015273__$a76fe959a16b0ef92b5d2bd739d5cb0318$__906383eb9c599060440161095a565b613f106146f2565b600080600080600080604560009054906101000a90046001600160a01b03166001600160a01b0316636e70ce416040518163ffffffff1660e01b815260040160e060405180830381865afa158015613f6c573d6000803e3d6000fd5b505050506040513d601f19601f82011682018060405250810190613f909190614a65565b600b54969c50939a50919850965094509250506001600160401b031673__$a76fe959a16b0ef92b5d2bd739d5cb0318$__63c4faa8676009613fd160465490565b6040516001600160e01b031960e085901b1681526004810192909252602482015260440160006040518083038186803b15801561400d57600080fd5b505af4158015614021573d6000803e3d6000fd5b505060455460405163b5da217160e01b81526001600160a01b03909116925063b5da21719150610e68908a9085908b908b908b908b908b90600401614b01565b6140696146f2565b60405163128c836760e21b8152601760048201526001600160601b038216602482015273__$a76fe959a16b0ef92b5d2bd739d5cb0318$__90634a320d9c9060440161095a565b6140b86146f2565b6001600160a01b03811661411d5760405162461bcd60e51b815260206004820152602660248201527f4f776e61626c653a206e6577206f776e657220697320746865207a65726f206160448201526564647265737360d01b6064820152608401611437565b6141268161474c565b50565b6141316146f2565b600080600080600080600080600080604560009054906101000a90046001600160a01b03166001600160a01b031663be05abe36040518163ffffffff1660e01b815260040161016060405180830381865afa158015614194573d6000803e3d6000fd5b505050506040513d601f19601f820116820180604052508101906141b89190614905565b9a509a509a509a509a509a509a50509950995099506000601760060160009054906101000a900463ffffffff169050601773__$a76fe959a16b0ef92b5d2bd739d5cb0318$__63dcce6cc8909161420e60465490565b6040516001600160e01b031960e085901b1681526004810192909252602482015260440160006040518083038186803b15801561424a57600080fd5b505af415801561425e573d6000803e3d6000fd5b505060455460405163c3b5ffc960e01b81526001600160a01b03909116925063c3b5ffc99150610b0a908e908e908e9087908f908f908f908f908f908f908f906004016149eb565b6142ae6146f2565b6000806000604560009054906101000a90046001600160a01b03166001600160a01b03166375b922d16040518163ffffffff1660e01b8152600401608060405180830381865afa158015614306573d6000803e3d6000fd5b505050506040513d601f19601f8201168201806040525081019061432a9190614b50565b603f54939650919450909250506001600160601b031673__$a76fe959a16b0ef92b5d2bd739d5cb0318$__63a9e31763603b61436560465490565b6040516001600160e01b031960e085901b1681526004810192909252602482015260440160006040518083038186803b1580156143a157600080fd5b505af41580156143b5573d6000803e3d6000fd5b505060455460405163dc49117b60e01b81526001600160a01b03909116925063dc49117b91506111be908790879086908890600401614baf565b6143f76146f2565b600080600080600080604560009054906101000a90046001600160a01b03166001600160a01b03166361ccf97a6040518163ffffffff1660e01b815260040160e060405180830381865afa158015614453573d6000803e3d6000fd5b505050506040513d601f19601f820116820180604052508101906144779190614bdf565b603754969c50949a509298509096509450909250506001600160401b031673__$a76fe959a16b0ef92b5d2bd739d5cb0318$__63af11623a602d6144ba60465490565b6040516001600160e01b031960e085901b1681526004810192909252602482015260440160006040518083038186803b1580156144f657600080fd5b505af415801561450a573d6000803e3d6000fd5b505060455460405163883d6a1160e01b81526001600160a01b03909116925063883d6a119150610e68908a908a908a908a908a9089908b90600401614c5a565b6145526146f2565b60405163baa9397360e01b8152600960048201526001600160401b038216602482015273__$a76fe959a16b0ef92b5d2bd739d5cb0318$__9063baa939739060440161095a565b6145a16146f2565b600080600080600080604560009054906101000a90046001600160a01b03166001600160a01b03166361ccf97a6040518163ffffffff1660e01b815260040160e060405180830381865afa1580156145fd573d6000803e3d6000fd5b505050506040513d601f19601f820116820180604052508101906146219190614bdf565b602f54969c50939a50919850965094509250506001600160401b031673__$a76fe959a16b0ef92b5d2bd739d5cb0318$__6381f5c03a602d61466260465490565b6040516001600160e01b031960e085901b1681526004810192909252602482015260440160006040518083038186803b15801561469e57600080fd5b505af41580156146b2573d6000803e3d6000fd5b505060455460405163883d6a1160e01b81526001600160a01b03909116925063883d6a119150610e68908a9085908b908b908b908b908b90600401614c5a565b6000546001600160a01b03163314612b265760405162461bcd60e51b815260206004820181905260248201527f4f776e61626c653a2063616c6c6572206973206e6f7420746865206f776e65726044820152606401611437565b600080546001600160a01b038381166001600160a01b0319831681178455604051919092169283917f8be0079c531659141344cd1fd0a4f28419497f9722a3daafe3b4186f6b6457e09190a35050565b6001600160401b038116811461412657600080fd5b6000602082840312156147c357600080fd5b81356147ce8161479c565b9392505050565b63ffffffff8116811461412657600080fd5b6000602082840312156147f957600080fd5b81356147ce816147d5565b6001600160601b038116811461412657600080fd5b60006020828403121561482b57600080fd5b81356147ce81614804565b60006020828403121561484857600080fd5b5035919050565b80356001600160a01b038116811461486657600080fd5b919050565b6000806040838503121561487e57600080fd5b6148878361484f565b91506020830135801515811461489c57600080fd5b809150509250929050565b6000602082840312156148b957600080fd5b6147ce8261484f565b61ffff8116811461412657600080fd5b6000602082840312156148e457600080fd5b81356147ce816148c2565b8051614866816147d5565b805161486681614804565b60008060008060008060008060008060006101608c8e03121561492757600080fd5b8b516149328161479c565b60208d0151909b506149438161479c565b60408d0151909a50614954816147d5565b60608d0151909950614965816147d5565b60808d015190985061497681614804565b60a08d0151909750614987816147d5565b60c08d0151909650614998816148c2565b60e08d01519095506149a98161479c565b6101008d01519094506149bb816147d5565b92506149ca6101208d016148fa565b91506149d96101408d016148ef565b90509295989b509295989b9093969950565b6001600160401b039b8c168152998b1660208b015263ffffffff98891660408b015296881660608a01526001600160601b0395861660808a015293871660a089015261ffff9290921660c088015290961660e086015294831661010085015293909316610120830152919091166101408201526101600190565b600080600080600080600060e0888a031215614a8057600080fd5b8751614a8b8161479c565b6020890151909750614a9c8161479c565b6040890151909650614aad8161479c565b6060890151909550614abe8161479c565b6080890151909450614acf816147d5565b60a0890151909350614ae081614804565b60c0890151909250614af1816147d5565b8091505092959891949750929550565b6001600160401b0397881681529587166020870152938616604086015291909416606084015263ffffffff93841660808401526001600160601b031660a083015290911660c082015260e00190565b60008060008060808587031215614b6657600080fd5b8451614b7181614804565b6020860151909450614b82816147d5565b6040860151909350614b9381614804565b6060860151909250614ba4816147d5565b939692955090935050565b6001600160601b03948516815263ffffffff93841660208201529190931660408201529116606082015260800190565b600080600080600080600060e0888a031215614bfa57600080fd5b8751614c05816147d5565b6020890151909750614c168161479c565b6040890151909650614c278161479c565b6060890151909550614c388161479c565b6080890151909450614c49816147d5565b60a0890151909350614ae08161479c565b63ffffffff97881681526001600160401b03968716602082015294861660408601529285166060850152908516608084015290921660a0820152911660c082015260e00190565b81810381811115614cc257634e487b7160e01b600052601160045260246000fd5b92915050565b60008060008060808587031215614cde57600080fd5b8451614ce98161479c565b6020860151909450614cfa8161479c565b6040860151909350614b938161479c565b6001600160401b03948516815292841660208401529216604082015263ffffffff90911660608201526080019056fea2646970667358221220597074011b61786877b463bcae22c6d0e1ec931800ef5364f1b7fe976b1d340164736f6c63430008110033",
  "libraries": {
    "BridgeGovernanceParameters": "0xce4b16b81A28d785FEEB7b1D56a9B97d450D3443"
  }
}