{
  "address": "0x25aAF04229f77A9AE80430b3C89E3455Ab2ec22F",
  "abi": [
    {
      "inputs": [],
      "stateMutability": "nonpayable",
      "type": "constructor"
    },
    {
      "inputs": [],
      "name": "AddressAlreadyTaken",
      "type": "error"
    },
    {
      "inputs": [],
      "name": "AmountCannotBeZero",
      "type": "error"
    },
    {
      "inputs": [],
      "name": "AmountTooBig",
      "type": "error"
    },
    {
      "inputs": [],
      "name": "CallerNotBridge",
      "type": "error"
    },
    {
      "inputs": [],
      "name": "NoUnstakingProcess",
      "type": "error"
    },
    {
      "inputs": [],
      "name": "NotAStaker",
      "type": "error"
    },
    {
      "inputs": [],
      "name": "ParametersCannotBeZero",
      "type": "error"
    },
    {
      "inputs": [],
      "name": "RollingWindowCannotBeZero",
      "type": "error"
    },
    {
      "inputs": [],
      "name": "UnstakingAlreadyStarted",
      "type": "error"
    },
    {
      "inputs": [],
      "name": "UnstakingNotFinished",
      "type": "error"
    },
    {
      "inputs": [],
      "name": "WrongDelegatee",
      "type": "error"
    },
    {
      "inputs": [],
      "name": "ZeroAddress",
      "type": "error"
    },
    {
      "anonymous": false,
      "inputs": [
        {
          "indexed": false,
          "internalType": "address",
          "name": "staker",
          "type": "address"
        },
        {
          "indexed": false,
          "internalType": "address",
          "name": "delegatee",
          "type": "address"
        }
      ],
      "name": "DelegateeSet",
      "type": "event"
    },
    {
      "anonymous": false,
      "inputs": [
        {
          "indexed": false,
          "internalType": "uint8",
          "name": "version",
          "type": "uint8"
        }
      ],
      "name": "Initialized",
      "type": "event"
    },
    {
      "anonymous": false,
      "inputs": [
        {
          "indexed": true,
          "internalType": "address",
          "name": "previousOwner",
          "type": "address"
        },
        {
          "indexed": true,
          "internalType": "address",
          "name": "newOwner",
          "type": "address"
        }
      ],
      "name": "OwnershipTransferred",
      "type": "event"
    },
    {
      "anonymous": false,
      "inputs": [
        {
          "indexed": false,
          "internalType": "address",
          "name": "staker",
          "type": "address"
        },
        {
          "indexed": false,
          "internalType": "uint256",
          "name": "requestedAt",
          "type": "uint256"
        }
      ],
      "name": "RebateCanceled",
      "type": "event"
    },
    {
      "anonymous": false,
      "inputs": [
        {
          "indexed": false,
          "internalType": "uint256",
          "name": "rebatePerToken",
          "type": "uint256"
        }
      ],
      "name": "RebatePerTokenUpdated",
      "type": "event"
    },
    {
      "anonymous": false,
      "inputs": [
        {
          "indexed": false,
          "internalType": "address",
          "name": "staker",
          "type": "address"
        },
        {
          "indexed": false,
          "internalType": "uint64",
          "name": "rebate",
          "type": "uint64"
        }
      ],
      "name": "RebateReceived",
      "type": "event"
    },
    {
      "anonymous": false,
      "inputs": [
        {
          "indexed": true,
          "internalType": "address",
          "name": "staker",
          "type": "address"
        },
        {
          "indexed": false,
          "internalType": "enum RebateStaking.RebateTreasuryFeeMode",
          "name": "rebateTreasuryFeeMode",
          "type": "uint8"
        }
      ],
      "name": "RebateTreasuryFeeModeUpdated",
      "type": "event"
    },
    {
      "anonymous": false,
      "inputs": [
        {
          "indexed": false,
          "internalType": "uint256",
          "name": "rollingWindow",
          "type": "uint256"
        }
      ],
      "name": "RollingWindowUpdated",
      "type": "event"
    },
    {
      "anonymous": false,
      "inputs": [
        {
          "indexed": false,
          "internalType": "address",
          "name": "staker",
          "type": "address"
        },
        {
          "indexed": false,
          "internalType": "uint256",
          "name": "amount",
          "type": "uint256"
        }
      ],
      "name": "Staked",
      "type": "event"
    },
    {
      "anonymous": false,
      "inputs": [
        {
          "indexed": false,
          "internalType": "address",
          "name": "oldStaker",
          "type": "address"
        },
        {
          "indexed": false,
          "internalType": "address",
          "name": "newStaker",
          "type": "address"
        }
      ],
      "name": "TransferFinished",
      "type": "event"
    },
    {
      "anonymous": false,
      "inputs": [
        {
          "indexed": false,
          "internalType": "address",
          "name": "staker",
          "type": "address"
        },
        {
          "indexed": false,
          "internalType": "uint256",
          "name": "amount",
          "type": "uint256"
        }
      ],
      "name": "UnstakeFinished",
      "type": "event"
    },
    {
      "anonymous": false,
      "inputs": [
        {
          "indexed": false,
          "internalType": "address",
          "name": "staker",
          "type": "address"
        },
        {
          "indexed": false,
          "internalType": "uint256",
          "name": "amount",
          "type": "uint256"
        }
      ],
      "name": "UnstakeStarted",
      "type": "event"
    },
    {
      "anonymous": false,
      "inputs": [
        {
          "indexed": false,
          "internalType": "uint256",
          "name": "unstakingPeriod",
          "type": "uint256"
        }
      ],
      "name": "UnstakingPeriodUpdated",
      "type": "event"
    },
    {
      "inputs": [
        {
          "internalType": "address",
          "name": "user",
          "type": "address"
        },
        {
          "internalType": "uint64",
          "name": "treasuryFee",
          "type": "uint64"
        },
        {
          "internalType": "enum RebateStaking.TreasuryFeeType",
          "name": "treasuryFeeType",
          "type": "uint8"
        }
      ],
      "name": "applyForRebate",
      "outputs": [
        {
          "internalType": "uint64",
          "name": "",
          "type": "uint64"
        }
      ],
      "stateMutability": "nonpayable",
      "type": "function"
    },
    {
      "inputs": [],
      "name": "bridge",
      "outputs": [
        {
          "internalType": "address",
          "name": "",
          "type": "address"
        }
      ],
      "stateMutability": "view",
      "type": "function"
    },
    {
      "inputs": [
        {
          "internalType": "address",
          "name": "user",
          "type": "address"
        },
        {
          "internalType": "uint256",
          "name": "requestedAt",
          "type": "uint256"
        }
      ],
      "name": "cancelRebate",
      "outputs": [],
      "stateMutability": "nonpayable",
      "type": "function"
    },
    {
      "inputs": [
        {
          "internalType": "address",
          "name": "",
          "type": "address"
        }
      ],
      "name": "delegates",
      "outputs": [
        {
          "internalType": "address",
          "name": "",
          "type": "address"
        }
      ],
      "stateMutability": "view",
      "type": "function"
    },
    {
      "inputs": [
        {
          "internalType": "address",
          "name": "receiver",
          "type": "address"
        }
      ],
      "name": "finalizeUnstaking",
      "outputs": [],
      "stateMutability": "nonpayable",
      "type": "function"
    },
    {
      "inputs": [
        {
          "internalType": "address",
          "name": "oldStaker",
          "type": "address"
        },
        {
          "internalType": "address",
          "name": "newStaker",
          "type": "address"
        }
      ],
      "name": "forceStakeTransfer",
      "outputs": [],
      "stateMutability": "nonpayable",
      "type": "function"
    },
    {
      "inputs": [
        {
          "internalType": "address",
          "name": "user",
          "type": "address"
        }
      ],
      "name": "getAvailableRebate",
      "outputs": [
        {
          "internalType": "uint64",
          "name": "rebateInWindow",
          "type": "uint64"
        }
      ],
      "stateMutability": "view",
      "type": "function"
    },
    {
      "inputs": [
        {
          "internalType": "address",
          "name": "user",
          "type": "address"
        }
      ],
      "name": "getDelegatee",
      "outputs": [
        {
          "internalType": "address",
          "name": "delegatee",
          "type": "address"
        }
      ],
      "stateMutability": "view",
      "type": "function"
    },
    {
      "inputs": [
        {
          "internalType": "address",
          "name": "user",
          "type": "address"
        },
        {
          "internalType": "uint256",
          "name": "index",
          "type": "uint256"
        }
      ],
      "name": "getRebate",
      "outputs": [
        {
          "internalType": "uint32",
          "name": "timestamp",
          "type": "uint32"
        },
        {
          "internalType": "uint64",
          "name": "feeRebate",
          "type": "uint64"
        }
      ],
      "stateMutability": "view",
      "type": "function"
    },
    {
      "inputs": [
        {
          "internalType": "address",
          "name": "user",
          "type": "address"
        }
      ],
      "name": "getRebateCap",
      "outputs": [
        {
          "internalType": "uint64",
          "name": "",
          "type": "uint64"
        }
      ],
      "stateMutability": "view",
      "type": "function"
    },
    {
      "inputs": [
        {
          "internalType": "address",
          "name": "user",
          "type": "address"
        }
      ],
      "name": "getRebateLength",
      "outputs": [
        {
          "internalType": "uint256",
          "name": "",
          "type": "uint256"
        }
      ],
      "stateMutability": "view",
      "type": "function"
    },
    {
      "inputs": [
        {
          "internalType": "address",
          "name": "user",
          "type": "address"
        }
      ],
      "name": "getRebateTreasuryFeeMode",
      "outputs": [
        {
          "internalType": "enum RebateStaking.RebateTreasuryFeeMode",
          "name": "rebateTreasuryFeeMode",
          "type": "uint8"
        }
      ],
      "stateMutability": "view",
      "type": "function"
    },
    {
      "inputs": [
        {
          "internalType": "address",
          "name": "user",
          "type": "address"
        }
      ],
      "name": "getStake",
      "outputs": [
        {
          "internalType": "uint96",
          "name": "stakedAmount",
          "type": "uint96"
        }
      ],
      "stateMutability": "view",
      "type": "function"
    },
    {
      "inputs": [
        {
          "internalType": "address",
          "name": "user",
          "type": "address"
        }
      ],
      "name": "getUnstakingAmount",
      "outputs": [
        {
          "internalType": "uint96",
          "name": "unstakingAmount",
          "type": "uint96"
        },
        {
          "internalType": "uint32",
          "name": "unstakingTimestamp",
          "type": "uint32"
        }
      ],
      "stateMutability": "view",
      "type": "function"
    },
    {
      "inputs": [
        {
          "internalType": "address",
          "name": "_bridge",
          "type": "address"
        },
        {
          "internalType": "address",
          "name": "_token",
          "type": "address"
        },
        {
          "internalType": "uint256",
          "name": "_rollingWindow",
          "type": "uint256"
        },
        {
          "internalType": "uint256",
          "name": "_unstakingPeriod",
          "type": "uint256"
        },
        {
          "internalType": "uint256",
          "name": "_rebatePerToken",
          "type": "uint256"
        }
      ],
      "name": "initialize",
      "outputs": [],
      "stateMutability": "nonpayable",
      "type": "function"
    },
    {
      "inputs": [],
      "name": "owner",
      "outputs": [
        {
          "internalType": "address",
          "name": "",
          "type": "address"
        }
      ],
      "stateMutability": "view",
      "type": "function"
    },
    {
      "inputs": [],
      "name": "rebatePerToken",
      "outputs": [
        {
          "internalType": "uint256",
          "name": "",
          "type": "uint256"
        }
      ],
      "stateMutability": "view",
      "type": "function"
    },
    {
      "inputs": [],
      "name": "renounceOwnership",
      "outputs": [],
      "stateMutability": "nonpayable",
      "type": "function"
    },
    {
      "inputs": [],
      "name": "rollingWindow",
      "outputs": [
        {
          "internalType": "uint256",
          "name": "",
          "type": "uint256"
        }
      ],
      "stateMutability": "view",
      "type": "function"
    },
    {
      "inputs": [
        {
          "internalType": "address",
          "name": "_delegatee",
          "type": "address"
        }
      ],
      "name": "setDelegatee",
      "outputs": [],
      "stateMutability": "nonpayable",
      "type": "function"
    },
    {
      "inputs": [
        {
          "internalType": "enum RebateStaking.RebateTreasuryFeeMode",
          "name": "_rebateTreasuryFeeMode",
          "type": "uint8"
        }
      ],
      "name": "setRebateTreasuryFeeMode",
      "outputs": [],
      "stateMutability": "nonpayable",
      "type": "function"
    },
    {
      "inputs": [
        {
          "internalType": "uint96",
          "name": "amount",
          "type": "uint96"
        }
      ],
      "name": "stake",
      "outputs": [],
      "stateMutability": "nonpayable",
      "type": "function"
    },
    {
      "inputs": [
        {
          "internalType": "address",
          "name": "",
          "type": "address"
        }
      ],
      "name": "stakes",
      "outputs": [
        {
          "internalType": "uint96",
          "name": "stakedAmount",
          "type": "uint96"
        },
        {
          "internalType": "uint96",
          "name": "unstakingAmount",
          "type": "uint96"
        },
        {
          "internalType": "uint32",
          "name": "unstakingTimestamp",
          "type": "uint32"
        },
        {
          "internalType": "uint256",
          "name": "rollingWindowStartIndex",
          "type": "uint256"
        },
        {
          "internalType": "enum RebateStaking.RebateTreasuryFeeMode",
          "name": "rebateTreasuryFeeMode",
          "type": "uint8"
        },
        {
          "internalType": "address",
          "name": "delegatee",
          "type": "address"
        }
      ],
      "stateMutability": "view",
      "type": "function"
    },
    {
      "inputs": [
        {
          "internalType": "uint96",
          "name": "amount",
          "type": "uint96"
        }
      ],
      "name": "startUnstaking",
      "outputs": [],
      "stateMutability": "nonpayable",
      "type": "function"
    },
    {
      "inputs": [],
      "name": "token",
      "outputs": [
        {
          "internalType": "contract IERC20Upgradeable",
          "name": "",
          "type": "address"
        }
      ],
      "stateMutability": "view",
      "type": "function"
    },
    {
      "inputs": [
        {
          "internalType": "address",
          "name": "newOwner",
          "type": "address"
        }
      ],
      "name": "transferOwnership",
      "outputs": [],
      "stateMutability": "nonpayable",
      "type": "function"
    },
    {
      "inputs": [],
      "name": "unstakingPeriod",
      "outputs": [
        {
          "internalType": "uint256",
          "name": "",
          "type": "uint256"
        }
      ],
      "stateMutability": "view",
      "type": "function"
    },
    {
      "inputs": [
        {
          "internalType": "uint256",
          "name": "_newRebatePerToken",
          "type": "uint256"
        }
      ],
      "name": "updateRebatePerToken",
      "outputs": [],
      "stateMutability": "nonpayable",
      "type": "function"
    },
    {
      "inputs": [
        {
          "internalType": "uint256",
          "name": "_newRollingWindow",
          "type": "uint256"
        }
      ],
      "name": "updateRollingWindow",
      "outputs": [],
      "stateMutability": "nonpayable",
      "type": "function"
    },
    {
      "inputs": [
        {
          "internalType": "uint256",
          "name": "_newUnstakingPeriod",
          "type": "uint256"
        }
      ],
      "name": "updateUnstakingPeriod",
      "outputs": [],
      "stateMutability": "nonpayable",
      "type": "function"
    }
  ],
  "transactionHash": "0xab5f113e089f8ab64e67cf705dbe5929b02a242117fff3d961e5c50d0c0ff71c",
  "args": [],
  "numDeployments": 1,
  "solcInputHash": "fdfcfa749bbd3f353e9daad25642005b",
  "bytecode": "0x608060405234801561001057600080fd5b5061001961001e565b6100de565b600054610100900460ff161561008a5760405162461bcd60e51b815260206004820152602760248201527f496e697469616c697a61626c653a20636f6e747261637420697320696e697469604482015266616c697a696e6760c81b606482015260840160405180910390fd5b60005460ff90811610156100dc576000805460ff191660ff9081179091556040519081527f7f26b83ff96e1f2b6a682f133852f6798a09c465da95921460cefb38474024989060200160405180910390a15b565b6124b880620000ee6000396000f3fe608060405234801561001057600080fd5b50600436106101da5760003560e01c80639b4e735f11610104578063ddb0f90c116100a2578063f21c783b11610071578063f21c783b1461052e578063f2fde38b14610537578063fc0c546a1461054a578063fc1332db1461055d57600080fd5b8063ddb0f90c146104bd578063e700ed35146104d0578063e78cea9214610508578063e842a64b1461051b57600080fd5b8063c7abd594116100de578063c7abd5941461047b578063cd2387f614610484578063d13f90b414610497578063d5874a02146104aa57600080fd5b80639b4e735f14610421578063aabd792a14610455578063b3b27d7e1461046857600080fd5b8063715018a61161017c5780637b3c9d1a1161014b5780637b3c9d1a146103ae5780638741d9b4146103c15780638da5cb5b146103d4578063942b020e146103e557600080fd5b8063715018a61461031d57806376b640321461032557806377a1ab33146103515780637a7664601461036457600080fd5b806351c1df8b116101b857806351c1df8b1461028a578063587cde1e146102b657806361f129ad146102f7578063656498711461030a57600080fd5b806316934fc4146101df57806320bb2e811461025e57806326f8c95214610273575b600080fd5b6102436101ed3660046120bd565b606a602052600090815260409020805460018201546003909201546001600160601b0380831693600160601b840490911692600160c01b900463ffffffff169160ff81169061010090046001600160a01b031686565b60405161025596959493929190612110565b60405180910390f35b61027161026c366004612162565b6105c9565b005b61027c60675481565b604051908152602001610255565b61029d6102983660046120bd565b610641565b60405167ffffffffffffffff9091168152602001610255565b6102df6102c43660046120bd565b606b602052600090815260409020546001600160a01b031681565b6040516001600160a01b039091168152602001610255565b610271610305366004612183565b610739565b6102716103183660046121ac565b6108ad565b610271610c9f565b61027c6103333660046120bd565b6001600160a01b03166000908152606a602052604090206002015490565b61029d61035f3660046120bd565b610cb3565b6103966103723660046120bd565b6001600160a01b03166000908152606a60205260409020546001600160601b031690565b6040516001600160601b039091168152602001610255565b6102716103bc3660046121df565b610cdb565b6102716103cf3660046121f8565b610d1f565b6033546001600160a01b03166102df565b6104146103f33660046120bd565b6001600160a01b03166000908152606a602052604090206003015460ff1690565b6040516102559190612222565b6102df61042f3660046120bd565b6001600160a01b039081166000908152606a602052604090206003015461010090041690565b610271610463366004612183565b610e9a565b6102716104763660046121df565b61100c565b61027c60695481565b61029d610492366004612230565b611049565b6102716104a536600461228a565b6111f6565b6102716104b83660046120bd565b6113bb565b6102716104cb3660046121df565b6115cc565b6104e36104de3660046121f8565b611643565b6040805163ffffffff909316835267ffffffffffffffff909116602083015201610255565b6066546102df906001600160a01b031681565b6102716105293660046120bd565b6116a9565b61027c60685481565b6102716105453660046120bd565b611881565b6065546102df906001600160a01b031681565b6105a561056b3660046120bd565b6001600160a01b03166000908152606a6020526040902054600160601b81046001600160601b031691600160c01b90910463ffffffff1690565b604080516001600160601b03909316835263ffffffff909116602083015201610255565b336000908152606a60205260409020600301805482919060ff191660018360028111156105f8576105f86120d8565b0217905550336001600160a01b03167f21a64160a2588667a740363ac0b5c3ef399e432550baf4f163e2519282e2baea826040516106369190612222565b60405180910390a250565b6001600160a01b0381166000908152606a602052604081208161066382611911565b90508067ffffffffffffffff16600003610681575060009392505050565b6002820154600003610694579392505050565b6000606754426106a491906122ed565b60018401549091505b60028401548110156107255760008460020182815481106106d0576106d0612300565b60009182526020909120603390910201805490915063ffffffff16831161071257805461070f90640100000000900467ffffffffffffffff1687612316565b95505b508061071d8161233e565b9150506106ad565b506107308483612357565b95945050505050565b806001600160601b03166000036107635760405163d11b25af60e01b815260040160405180910390fd5b336000908152606b60205260409020546001600160a01b03168015610800576001600160a01b0381166000818152606a602090815260408083206003018054610100600160a81b0319169055338352606b82529182902080546001600160a01b03191690558151838152908101929092527ff25bb056171d38943fa57831cb70cbbdd82c34313ff8cfca06d41596856e33cf910160405180910390a15b336000908152606a6020526040812080549091849183919061082c9084906001600160601b0316612378565b82546101009290920a6001600160601b038181021990931691831602179091556040805133815291861660208301527f9e71bc8eea02a63969f509818f2dafb9254532904319f9dbda79b67bd34a5f3d92500160405180910390a16065546108a8906001600160a01b031633306001600160601b038716611969565b505050565b6108b5611a20565b6001600160a01b0382166108dc5760405163d92e233d60e01b815260040160405180910390fd5b6001600160a01b0381166109035760405163d92e233d60e01b815260040160405180910390fd5b6001600160a01b0382166000908152606a60205260408120805490916001600160601b03909116900361094957604051637bc743c560e01b815260040160405180910390fd5b6001600160a01b0382166000908152606a6020526040902080546001600160601b0316156109a3576040517f3f324e3200000000000000000000000000000000000000000000000000000000815260040160405180910390fd5b6001600160a01b038381166000908152606b602052604090205416156109dc5760405163db2c064360e01b815260040160405180910390fd5b815481546001600160601b039182166bffffffffffffffffffffffff1982168117845584547fffffffffffffffff00000000000000000000000000000000000000000000000090921617600160601b91829004909216021780825582547fffffffff00000000ffffffffffffffffffffffffffffffffffffffffffffffff909116600160c01b9182900463ffffffff16909102178155600380830154908201805460ff9092169160ff19166001836002811115610a9b57610a9b6120d8565b02179055506001808301549082015560005b6002830154811015610b6d5781600201836002018281548110610ad257610ad2612300565b60009182526020808320845460018181018755958552919093206033928302909301805491909202909201805463ffffffff19811663ffffffff9094169384178255825467ffffffffffffffff6401000000009182900416026bffffffffffffffffffffffff1990911690931792909217825591610b5790828101908401603261205a565b5050508080610b659061233e565b915050610aad565b50600382015461010090046001600160a01b031615610c1d576003828101805491830180546001600160a01b03610100948590048116948502610100600160a81b0319928316179092556000848152606b60209081526040918290208054948a166001600160a01b0319909516851790558454909216909355825191825281018390527ff25bb056171d38943fa57831cb70cbbdd82c34313ff8cfca06d41596856e33cf910160405180910390a1505b81547fffffffff0000000000000000000000000000000000000000000000000000000016825560038201805460ff1916905560006001830155604080516001600160a01b038681168252851660208201527f9481fdd641220c65115212834b9169c3b7254ba8df934cc94557a139051bcc0c910160405180910390a150505050565b610ca7611a20565b610cb16000611a7a565b565b6001600160a01b0381166000908152606a60205260408120610cd481611911565b9392505050565b610ce3611a20565b60688190556040518181527f25c99a0119c3fb36cd24461dd1b8cff937972aa2ce86b3f5e4efb47a9015b0f2906020015b60405180910390a150565b6066546001600160a01b03163314610d4a5760405163356a0b3d60e21b815260040160405180910390fd5b610d5382611acc565b6001600160a01b0381166000908152606a602052604081208054929450916001600160601b03169003610d8557505050565b600060675442610d9591906122ed565b60028301546001840154919250905b81811015610e92576000846002018281548110610dc357610dc3612300565b60009182526020909120603390910201805490915063ffffffff16861015610deb5750610e92565b805463ffffffff16841115610e1657600185018054906000610e0c8361233e565b9190505550610e7f565b805463ffffffff168603610e7f5780546bffffffffffffffff0000000019168155604080516001600160a01b0389168152602081018890527fb4b5b5684e992a98557bd35baf25674e01c0315e306e008a137a1051f0db7b23910160405180910390a150610e92565b5080610e8a8161233e565b915050610da4565b505050505050565b806001600160601b0316600003610ec45760405163d11b25af60e01b815260040160405180910390fd5b336000908152606a602052604090208054600160c01b900463ffffffff1615610f19576040517f8fa4513c00000000000000000000000000000000000000000000000000000000815260040160405180910390fd5b80546001600160601b039081169083161115610f61576040517f6b2f218300000000000000000000000000000000000000000000000000000000815260040160405180910390fd5b80547fffffffff00000000000000000000000000000000ffffffffffffffffffffffff16600160c01b4263ffffffff16027fffffffffffffffff000000000000000000000000ffffffffffffffffffffffff1617600160601b6001600160601b0384169081029190911782556040805133815260208101929092527f8dc99017bbc3e43adb345ab51be913750c7a9122ad67841b0f97b12ef3241e7491015b60405180910390a15050565b611014611a20565b60698190556040518181527f4d2199d69d6eeaaf6ff17312c20d0a408fc2c9df5698a87da4b1c9bdfeea8a7090602001610d14565b6066546000906001600160a01b031633146110775760405163356a0b3d60e21b815260040160405180910390fd5b61108084611acc565b6001600160a01b0381166000908152606a602052604090209094506110a58584611b25565b6110b25783915050610cd4565b60006110bd82611911565b90508067ffffffffffffffff166000036110db578492505050610cd4565b60006110e683611bd0565b90508067ffffffffffffffff168267ffffffffffffffff161161110e57859350505050610cd4565b600061111a8284612357565b90508667ffffffffffffffff168167ffffffffffffffff16111561113b5750855b60028401805460018101825560009182526020909120603390910201805467ffffffffffffffff8316640100000000026bffffffffffffffffffffffff1990911663ffffffff4216171781556040517f9c91e7e9f8f891850b80895e36d53ebba2d9558dc606eb310e6750ddb05445d5906111d7908b9085906001600160a01b0392909216825267ffffffffffffffff16602082015260400190565b60405180910390a16111e98289612357565b9998505050505050505050565b600054610100900460ff16158080156112165750600054600160ff909116105b806112305750303b158015611230575060005460ff166001145b6112a75760405162461bcd60e51b815260206004820152602e60248201527f496e697469616c697a61626c653a20636f6e747261637420697320616c72656160448201527f647920696e697469616c697a656400000000000000000000000000000000000060648201526084015b60405180910390fd5b6000805460ff1916600117905580156112ca576000805461ff0019166101001790555b6001600160a01b03861615806112e757506001600160a01b038516155b806112f0575083155b15611327576040517f5b7c9ace00000000000000000000000000000000000000000000000000000000815260040160405180910390fd5b606680546001600160a01b038089166001600160a01b031992831617909255606580549288169290911691909117905560678490556068839055606982905561136e611c9e565b8015610e92576000805461ff0019169055604051600181527f7f26b83ff96e1f2b6a682f133852f6798a09c465da95921460cefb38474024989060200160405180910390a1505050505050565b6001600160a01b0381166113e25760405163d92e233d60e01b815260040160405180910390fd5b336000908152606a6020526040812080549091600160c01b90910463ffffffff16900361143b576040517f46f333f500000000000000000000000000000000000000000000000000000000815260040160405180910390fd5b6068548154429161145891600160c01b900463ffffffff16612398565b1115611490576040517f3c0d48b800000000000000000000000000000000000000000000000000000000815260040160405180910390fd5b80546001600160601b03600160601b820481169183916000916114b5918591166123ab565b82546101009290920a6001600160601b0381810219909316918316021790915582547fffffffff00000000000000000000000000000000ffffffffffffffffffffffff81168455600160601b810482169250161580156115265750600382015461010090046001600160a01b031615155b1561156b5760038201805461010090046001600160a01b03166000908152606b6020526040902080546001600160a01b03191690558054610100600160a81b03191690555b604080513381526001600160601b03831660208201527fce1a25e80f3ff7c01363501765d22d8c1e6a01dd7a29b161ab5991c7bce33933910160405180910390a16065546108a8906001600160a01b0316846001600160601b038416611d11565b6115d4611a20565b8060000361160e576040517fef3be9d600000000000000000000000000000000000000000000000000000000815260040160405180910390fd5b60678190556040518181527f5bf49171ec21a2225ebd540f888d4c4c23845e503a0af5c533a99ff874a7617a90602001610d14565b6001600160a01b0382166000908152606a602052604081206002018054829182918590811061167457611674612300565b600091825260209091206033909102015463ffffffff81169664010000000090910467ffffffffffffffff1695509350505050565b336000908152606a60205260408120805490916001600160601b0390911690036116e657604051637bc743c560e01b815260040160405180910390fd5b600381015461010090046001600160a01b03161561172e57600381015461010090046001600160a01b03166000908152606b6020526040902080546001600160a01b03191690555b6001600160a01b038216158061174c57506001600160a01b03821633145b1561179957600381018054610100600160a81b0319169055604080513380825260208201527ff25bb056171d38943fa57831cb70cbbdd82c34313ff8cfca06d41596856e33cf9101611000565b6001600160a01b038281166000908152606b6020526040902054161515806117e157506001600160a01b0382166000908152606a60205260409020546001600160601b031615155b156117ff5760405163db2c064360e01b815260040160405180910390fd5b600381018054610100600160a81b0319166101006001600160a01b038516908102919091179091556000818152606b60209081526040918290208054336001600160a01b031990911681179091558251908152908101929092527ff25bb056171d38943fa57831cb70cbbdd82c34313ff8cfca06d41596856e33cf9101611000565b611889611a20565b6001600160a01b0381166119055760405162461bcd60e51b815260206004820152602660248201527f4f776e61626c653a206e6577206f776e657220697320746865207a65726f206160448201527f6464726573730000000000000000000000000000000000000000000000000000606482015260840161129e565b61190e81611a7a565b50565b600060695460000361192557506000919050565b6069548254611963919061194b906001600160601b03600160601b8204811691166123ab565b6001600160601b031661195e91906123cb565b611d5a565b92915050565b6040516001600160a01b0380851660248301528316604482015260648101829052611a1a9085907f23b872dd00000000000000000000000000000000000000000000000000000000906084015b60408051601f198184030181529190526020810180517bffffffffffffffffffffffffffffffffffffffffffffffffffffffff167fffffffff0000000000000000000000000000000000000000000000000000000090931692909217909152611dde565b50505050565b6033546001600160a01b03163314610cb15760405162461bcd60e51b815260206004820181905260248201527f4f776e61626c653a2063616c6c6572206973206e6f7420746865206f776e6572604482015260640161129e565b603380546001600160a01b038381166001600160a01b0319831681179093556040519116919082907f8be0079c531659141344cd1fd0a4f28419497f9722a3daafe3b4186f6b6457e090600090a35050565b6001600160a01b038082166000908152606b6020908152604080832054606a909252822054919216906001600160601b0316158015611b1357506001600160a01b03811615155b15611b1e5792915050565b5090919050565b6001600160a01b0382166000908152606a602052604081206003015460ff1681816002811115611b5757611b576120d8565b1480611b9057506001816002811115611b7257611b726120d8565b148015611b9057506000836001811115611b8e57611b8e6120d8565b145b80611bc857506002816002811115611baa57611baa6120d8565b148015611bc857506001836001811115611bc657611bc66120d8565b145b949350505050565b60028101546000908103611be657506000919050565b600060675442611bf691906122ed565b60028401546001850154919250905b81811015611c96576000856002018281548110611c2457611c24612300565b60009182526020909120603390910201805490915063ffffffff16841115611c6257600186018054906000611c588361233e565b9190505550611c83565b8054611c8090640100000000900467ffffffffffffffff1686612316565b94505b5080611c8e8161233e565b915050611c05565b505050919050565b600054610100900460ff16611d095760405162461bcd60e51b815260206004820152602b60248201527f496e697469616c697a61626c653a20636f6e7472616374206973206e6f74206960448201526a6e697469616c697a696e6760a81b606482015260840161129e565b610cb1611ec3565b6040516001600160a01b0383166024820152604481018290526108a89084907fa9059cbb00000000000000000000000000000000000000000000000000000000906064016119b6565b600067ffffffffffffffff821115611dda5760405162461bcd60e51b815260206004820152602660248201527f53616665436173743a2076616c756520646f65736e27742066697420696e203660448201527f3420626974730000000000000000000000000000000000000000000000000000606482015260840161129e565b5090565b6000611e33826040518060400160405280602081526020017f5361666545524332303a206c6f772d6c6576656c2063616c6c206661696c6564815250856001600160a01b0316611f379092919063ffffffff16565b8051909150156108a85780806020019051810190611e5191906123ed565b6108a85760405162461bcd60e51b815260206004820152602a60248201527f5361666545524332303a204552433230206f7065726174696f6e20646964206e60448201527f6f74207375636365656400000000000000000000000000000000000000000000606482015260840161129e565b600054610100900460ff16611f2e5760405162461bcd60e51b815260206004820152602b60248201527f496e697469616c697a61626c653a20636f6e7472616374206973206e6f74206960448201526a6e697469616c697a696e6760a81b606482015260840161129e565b610cb133611a7a565b6060611bc8848460008585600080866001600160a01b03168587604051611f5e9190612433565b60006040518083038185875af1925050503d8060008114611f9b576040519150601f19603f3d011682016040523d82523d6000602084013e611fa0565b606091505b5091509150611fb187838387611fbc565b979650505050505050565b6060831561202b578251600003612024576001600160a01b0385163b6120245760405162461bcd60e51b815260206004820152601d60248201527f416464726573733a2063616c6c20746f206e6f6e2d636f6e7472616374000000604482015260640161129e565b5081611bc8565b611bc883838151156120405781518083602001fd5b8060405162461bcd60e51b815260040161129e919061244f565b8260328101928215612085579182015b8281111561208557825482559160010191906001019061206a565b50611dda9291505b80821115611dda576000815560010161208d565b80356001600160a01b03811681146120b857600080fd5b919050565b6000602082840312156120cf57600080fd5b610cd4826120a1565b634e487b7160e01b600052602160045260246000fd5b6003811061210c57634e487b7160e01b600052602160045260246000fd5b9052565b6001600160601b0387811682528616602082015263ffffffff851660408201526060810184905260c0810161214860808301856120ee565b6001600160a01b03831660a0830152979650505050505050565b60006020828403121561217457600080fd5b813560038110610cd457600080fd5b60006020828403121561219557600080fd5b81356001600160601b0381168114610cd457600080fd5b600080604083850312156121bf57600080fd5b6121c8836120a1565b91506121d6602084016120a1565b90509250929050565b6000602082840312156121f157600080fd5b5035919050565b6000806040838503121561220b57600080fd5b612214836120a1565b946020939093013593505050565b6020810161196382846120ee565b60008060006060848603121561224557600080fd5b61224e846120a1565b9250602084013567ffffffffffffffff8116811461226b57600080fd5b915060408401356002811061227f57600080fd5b809150509250925092565b600080600080600060a086880312156122a257600080fd5b6122ab866120a1565b94506122b9602087016120a1565b94979496505050506040830135926060810135926080909101359150565b634e487b7160e01b600052601160045260246000fd5b81810381811115611963576119636122d7565b634e487b7160e01b600052603260045260246000fd5b67ffffffffffffffff818116838216019080821115612337576123376122d7565b5092915050565b600060018201612350576123506122d7565b5060010190565b67ffffffffffffffff828116828216039080821115612337576123376122d7565b6001600160601b03818116838216019080821115612337576123376122d7565b80820180821115611963576119636122d7565b6001600160601b03828116828216039080821115612337576123376122d7565b6000826123e857634e487b7160e01b600052601260045260246000fd5b500490565b6000602082840312156123ff57600080fd5b81518015158114610cd457600080fd5b60005b8381101561242a578181015183820152602001612412565b50506000910152565b6000825161244581846020870161240f565b9190910192915050565b602081526000825180602084015261246e81604085016020870161240f565b601f01601f1916919091016040019291505056fea2646970667358221220531a3dd283b9d4e82d1816e5087875f6976eaf63f7c0f88967bb295eecf05d4764736f6c63430008110033",
  "devdoc": {
    "kind": "dev",
    "methods": {
      "applyForRebate(address,uint64,uint8)": {
        "details": "Requirements:      - The caller must be the bridge contract",
        "params": {
          "treasuryFee": "Original fees",
          "treasuryFeeType": "Type of treasury fee:        - 0: deposit treasury fee,        - 1: redemption treasury fee.",
          "user": "Address of depositor or redeemer"
        },
        "returns": {
          "_0": "Updated fees considering rebate if applicable"
        }
      },
      "cancelRebate(address,uint256)": {
        "details": "Requirements:      - The caller must be the bridge contract",
        "params": {
          "requestedAt": "Timestamp when redeem was requested",
          "user": "Address of depositor or redeemer"
        }
      },
      "constructor": {
        "custom:oz-upgrades-unsafe-allow": "constructor"
      },
      "finalizeUnstaking(address)": {
        "params": {
          "receiver": "Address of stake receiver"
        }
      },
      "forceStakeTransfer(address,address)": {
        "params": {
          "newStaker": "New staker address",
          "oldStaker": "Old staker address"
        }
      },
      "getAvailableRebate(address)": {
        "params": {
          "user": "Address of depositor or redeemer"
        }
      },
      "getDelegatee(address)": {
        "params": {
          "user": "Address of depositor or redeemer"
        },
        "returns": {
          "delegatee": "Delegatee address."
        }
      },
      "getRebate(address,uint256)": {
        "params": {
          "index": "Index of the element in the array",
          "user": "Address of depositor or redeemer"
        },
        "returns": {
          "feeRebate": "Amount of rebate",
          "timestamp": "Timestamp of rebate"
        }
      },
      "getRebateCap(address)": {
        "params": {
          "user": "Address of depositor or redeemer"
        }
      },
      "getRebateLength(address)": {
        "params": {
          "user": "Address of depositor or redeemer"
        }
      },
      "getRebateTreasuryFeeMode(address)": {
        "params": {
          "user": "Address of the staker"
        },
        "returns": {
          "rebateTreasuryFeeMode": "Current mode:         - 0: rebates for both deposits and redemptions,         - 1: rebates for deposits only,         - 2: rebates for redemptions only."
        }
      },
      "getStake(address)": {
        "params": {
          "user": "Address of depositor or redeemer"
        },
        "returns": {
          "stakedAmount": "Amount of stake"
        }
      },
      "getUnstakingAmount(address)": {
        "params": {
          "user": "Address of depositor or redeemer"
        },
        "returns": {
          "unstakingAmount": "Amount that is currently unstaking",
          "unstakingTimestamp": "Amount of rebate"
        }
      },
      "initialize(address,address,uint256,uint256,uint256)": {
        "details": "Initializes upgradable contract on deployment."
      },
      "owner()": {
        "details": "Returns the address of the current owner."
      },
      "renounceOwnership()": {
        "details": "Leaves the contract without owner. It will not be possible to call `onlyOwner` functions anymore. Can only be called by the current owner. NOTE: Renouncing ownership will leave the contract without an owner, thereby removing any functionality that is only available to the owner."
      },
      "setDelegatee(address)": {
        "params": {
          "_delegatee": "Delegatee address."
        }
      },
      "setRebateTreasuryFeeMode(uint8)": {
        "params": {
          "_rebateTreasuryFeeMode": "New rebate treasury fee mode:        - 0: rebates for both deposits and redemptions,        - 1: rebates for deposits only,        - 2: rebates for redemptions only."
        }
      },
      "stake(uint96)": {
        "params": {
          "amount": "Amount of tokens to stake"
        }
      },
      "startUnstaking(uint96)": {
        "params": {
          "amount": "Amount of tokens to unstake"
        }
      },
      "transferOwnership(address)": {
        "details": "Transfers ownership of the contract to a new account (`newOwner`). Can only be called by the current owner."
      },
      "updateRebatePerToken(uint256)": {
        "details": "Requirements:      - The caller must be the contract owner",
        "params": {
          "_newRebatePerToken": "Rebate coefficient."
        }
      },
      "updateRollingWindow(uint256)": {
        "details": "Requirements:      - The caller must be the contract owner,      - The new rolling window cannot be zero",
        "params": {
          "_newRollingWindow": "Duration of the rolling window."
        }
      },
      "updateUnstakingPeriod(uint256)": {
        "details": "Requirements:      - The caller must be the contract owner",
        "params": {
          "_newUnstakingPeriod": "Duration of the unstaking period."
        }
      }
    },
    "title": "Contract for staking T token to get rebate on minting/redemption fees",
    "version": 1
  },
  "userdoc": {
    "kind": "user",
    "methods": {
      "applyForRebate(address,uint64,uint8)": {
        "notice": "Checks if user is eligible for rebate"
      },
      "cancelRebate(address,uint256)": {
        "notice": "Cancels rebate in case of reedem request was timed out"
      },
      "finalizeUnstaking(address)": {
        "notice": "Finalize unstaking and withdraw tokens"
      },
      "forceStakeTransfer(address,address)": {
        "notice": "Transfers ownership of stake from one address to another"
      },
      "getAvailableRebate(address)": {
        "notice": "Calculates available rebate for the specified user."
      },
      "getDelegatee(address)": {
        "notice": "Returns information about stake"
      },
      "getRebate(address,uint256)": {
        "notice": "Returns timestamp and amount of rebate"
      },
      "getRebateCap(address)": {
        "notice": "Calculates cap for rebate for the specified user."
      },
      "getRebateLength(address)": {
        "notice": "Returns size of rebate array"
      },
      "getRebateTreasuryFeeMode(address)": {
        "notice": "Returns the rebate treasury fee mode for a user."
      },
      "getStake(address)": {
        "notice": "Returns information about stake"
      },
      "getUnstakingAmount(address)": {
        "notice": "Returns information about unstaking"
      },
      "setDelegatee(address)": {
        "notice": "Sets a delegatee for a rebate."
      },
      "setRebateTreasuryFeeMode(uint8)": {
        "notice": "Sets the rebate treasury fee mode for caller."
      },
      "stake(uint96)": {
        "notice": "Stake T token to be eligible for rebate"
      },
      "startUnstaking(uint96)": {
        "notice": "Start unstaking process"
      },
      "updateRebatePerToken(uint256)": {
        "notice": "Updates the rebate per token."
      },
      "updateRollingWindow(uint256)": {
        "notice": "Updates the rolling window."
      },
      "updateUnstakingPeriod(uint256)": {
        "notice": "Updates the unstaking period."
      }
    },
    "version": 1
  },
  "storageLayout": {
    "storage": [
      {
        "astId": 11994,
        "contract": "contracts/bridge/RebateStaking.sol:RebateStaking",
        "label": "_initialized",
        "offset": 0,
        "slot": "0",
        "type": "t_uint8"
      },
      {
        "astId": 11997,
        "contract": "contracts/bridge/RebateStaking.sol:RebateStaking",
        "label": "_initializing",
        "offset": 1,
        "slot": "0",
        "type": "t_bool"
      },
      {
        "astId": 14084,
        "contract": "contracts/bridge/RebateStaking.sol:RebateStaking",
        "label": "__gap",
        "offset": 0,
        "slot": "1",
        "type": "t_array(t_uint256)50_storage"
      },
      {
        "astId": 11866,
        "contract": "contracts/bridge/RebateStaking.sol:RebateStaking",
        "label": "_owner",
        "offset": 0,
        "slot": "51",
        "type": "t_address"
      },
      {
        "astId": 11986,
        "contract": "contracts/bridge/RebateStaking.sol:RebateStaking",
        "label": "__gap",
        "offset": 0,
        "slot": "52",
        "type": "t_array(t_uint256)49_storage"
      },
      {
        "astId": 35002,
        "contract": "contracts/bridge/RebateStaking.sol:RebateStaking",
        "label": "token",
        "offset": 0,
        "slot": "101",
        "type": "t_contract(IERC20Upgradeable)13046"
      },
      {
        "astId": 35004,
        "contract": "contracts/bridge/RebateStaking.sol:RebateStaking",
        "label": "bridge",
        "offset": 0,
        "slot": "102",
        "type": "t_address"
      },
      {
        "astId": 35006,
        "contract": "contracts/bridge/RebateStaking.sol:RebateStaking",
        "label": "rollingWindow",
        "offset": 0,
        "slot": "103",
        "type": "t_uint256"
      },
      {
        "astId": 35008,
        "contract": "contracts/bridge/RebateStaking.sol:RebateStaking",
        "label": "unstakingPeriod",
        "offset": 0,
        "slot": "104",
        "type": "t_uint256"
      },
      {
        "astId": 35010,
        "contract": "contracts/bridge/RebateStaking.sol:RebateStaking",
        "label": "rebatePerToken",
        "offset": 0,
        "slot": "105",
        "type": "t_uint256"
      },
      {
        "astId": 35015,
        "contract": "contracts/bridge/RebateStaking.sol:RebateStaking",
        "label": "stakes",
        "offset": 0,
        "slot": "106",
        "type": "t_mapping(t_address,t_struct(Stake)34999_storage)"
      },
      {
        "astId": 35019,
        "contract": "contracts/bridge/RebateStaking.sol:RebateStaking",
        "label": "delegates",
        "offset": 0,
        "slot": "107",
        "type": "t_mapping(t_address,t_address)"
      },
      {
        "astId": 35023,
        "contract": "contracts/bridge/RebateStaking.sol:RebateStaking",
        "label": "__gap",
        "offset": 0,
        "slot": "108",
        "type": "t_array(t_uint256)49_storage"
      }
    ],
    "types": {
      "t_address": {
        "encoding": "inplace",
        "label": "address",
        "numberOfBytes": "20"
      },
      "t_array(t_struct(Rebate)34981_storage)dyn_storage": {
        "base": "t_struct(Rebate)34981_storage",
        "encoding": "dynamic_array",
        "label": "struct RebateStaking.Rebate[]",
        "numberOfBytes": "32"
      },
      "t_array(t_uint256)49_storage": {
        "base": "t_uint256",
        "encoding": "inplace",
        "label": "uint256[49]",
        "numberOfBytes": "1568"
      },
      "t_array(t_uint256)50_storage": {
        "base": "t_uint256",
        "encoding": "inplace",
        "label": "uint256[50]",
        "numberOfBytes": "1600"
      },
      "t_bool": {
        "encoding": "inplace",
        "label": "bool",
        "numberOfBytes": "1"
      },
      "t_contract(IERC20Upgradeable)13046": {
        "encoding": "inplace",
        "label": "contract IERC20Upgradeable",
        "numberOfBytes": "20"
      },
      "t_enum(RebateTreasuryFeeMode)34969": {
        "encoding": "inplace",
        "label": "enum RebateStaking.RebateTreasuryFeeMode",
        "numberOfBytes": "1"
      },
      "t_mapping(t_address,t_address)": {
        "encoding": "mapping",
        "key": "t_address",
        "label": "mapping(address => address)",
        "numberOfBytes": "32",
        "value": "t_address"
      },
      "t_mapping(t_address,t_struct(Stake)34999_storage)": {
        "encoding": "mapping",
        "key": "t_address",
        "label": "mapping(address => struct RebateStaking.Stake)",
        "numberOfBytes": "32",
        "value": "t_struct(Stake)34999_storage"
      },
      "t_struct(Rebate)34981_storage": {
        "encoding": "inplace",
        "label": "struct RebateStaking.Rebate",
        "members": [
          {
            "astId": 34974,
            "contract": "contracts/bridge/RebateStaking.sol:RebateStaking",
            "label": "timestamp",
            "offset": 0,
            "slot": "0",
            "type": "t_uint32"
          },
          {
            "astId": 34976,
            "contract": "contracts/bridge/RebateStaking.sol:RebateStaking",
            "label": "feeRebate",
            "offset": 4,
            "slot": "0",
            "type": "t_uint64"
          },
          {
            "astId": 34980,
            "contract": "contracts/bridge/RebateStaking.sol:RebateStaking",
            "label": "__gap",
            "offset": 0,
            "slot": "1",
            "type": "t_array(t_uint256)50_storage"
          }
        ],
        "numberOfBytes": "1632"
      },
      "t_struct(Stake)34999_storage": {
        "encoding": "inplace",
        "label": "struct RebateStaking.Stake",
        "members": [
          {
            "astId": 34983,
            "contract": "contracts/bridge/RebateStaking.sol:RebateStaking",
            "label": "stakedAmount",
            "offset": 0,
            "slot": "0",
            "type": "t_uint96"
          },
          {
            "astId": 34985,
            "contract": "contracts/bridge/RebateStaking.sol:RebateStaking",
            "label": "unstakingAmount",
            "offset": 12,
            "slot": "0",
            "type": "t_uint96"
          },
          {
            "astId": 34987,
            "contract": "contracts/bridge/RebateStaking.sol:RebateStaking",
            "label": "unstakingTimestamp",
            "offset": 24,
            "slot": "0",
            "type": "t_uint32"
          },
          {
            "astId": 34989,
            "contract": "contracts/bridge/RebateStaking.sol:RebateStaking",
            "label": "rollingWindowStartIndex",
            "offset": 0,
            "slot": "1",
            "type": "t_uint256"
          },
          {
            "astId": 34993,
            "contract": "contracts/bridge/RebateStaking.sol:RebateStaking",
            "label": "rebates",
            "offset": 0,
            "slot": "2",
            "type": "t_array(t_struct(Rebate)34981_storage)dyn_storage"
          },
          {
            "astId": 34996,
            "contract": "contracts/bridge/RebateStaking.sol:RebateStaking",
            "label": "rebateTreasuryFeeMode",
            "offset": 0,
            "slot": "3",
            "type": "t_enum(RebateTreasuryFeeMode)34969"
          },
          {
            "astId": 34998,
            "contract": "contracts/bridge/RebateStaking.sol:RebateStaking",
            "label": "delegatee",
            "offset": 1,
            "slot": "3",
            "type": "t_address"
          }
        ],
        "numberOfBytes": "128"
      },
      "t_uint256": {
        "encoding": "inplace",
        "label": "uint256",
        "numberOfBytes": "32"
      },
      "t_uint32": {
        "encoding": "inplace",
        "label": "uint32",
        "numberOfBytes": "4"
      },
      "t_uint64": {
        "encoding": "inplace",
        "label": "uint64",
        "numberOfBytes": "8"
      },
      "t_uint8": {
        "encoding": "inplace",
        "label": "uint8",
        "numberOfBytes": "1"
      },
      "t_uint96": {
        "encoding": "inplace",
        "label": "uint96",
        "numberOfBytes": "12"
      }
    }
  }
}