{
  "_format": "hh-sol-artifact-1",
  "contractName": "L2TBTC",
  "sourceName": "contracts/L2TBTC.sol",
  "abi": [
    {
      "anonymous": false,
      "inputs": [
        {
          "indexed": true,
          "internalType": "address",
          "name": "owner",
          "type": "address"
        },
        {
          "indexed": true,
          "internalType": "address",
          "name": "spender",
          "type": "address"
        },
        {
          "indexed": false,
          "internalType": "uint256",
          "name": "value",
          "type": "uint256"
        }
      ],
      "name": "Approval",
      "type": "event"
    },
    {
      "anonymous": false,
      "inputs": [],
      "name": "EIP712DomainChanged",
      "type": "event"
    },
    {
      "anonymous": false,
      "inputs": [
        {
          "indexed": true,
          "internalType": "address",
          "name": "guardian",
          "type": "address"
        }
      ],
      "name": "GuardianAdded",
      "type": "event"
    },
    {
      "anonymous": false,
      "inputs": [
        {
          "indexed": true,
          "internalType": "address",
          "name": "guardian",
          "type": "address"
        }
      ],
      "name": "GuardianRemoved",
      "type": "event"
    },
    {
      "anonymous": false,
      "inputs": [
        {
          "indexed": false,
          "internalType": "uint8",
          "name": "version",
          "type": "uint8"
        }
      ],
      "name": "Initialized",
      "type": "event"
    },
    {
      "anonymous": false,
      "inputs": [
        {
          "indexed": true,
          "internalType": "address",
          "name": "minter",
          "type": "address"
        }
      ],
      "name": "MinterAdded",
      "type": "event"
    },
    {
      "anonymous": false,
      "inputs": [
        {
          "indexed": true,
          "internalType": "address",
          "name": "minter",
          "type": "address"
        }
      ],
      "name": "MinterRemoved",
      "type": "event"
    },
    {
      "anonymous": false,
      "inputs": [
        {
          "indexed": true,
          "internalType": "address",
          "name": "previousOwner",
          "type": "address"
        },
        {
          "indexed": true,
          "internalType": "address",
          "name": "newOwner",
          "type": "address"
        }
      ],
      "name": "OwnershipTransferred",
      "type": "event"
    },
    {
      "anonymous": false,
      "inputs": [
        {
          "indexed": false,
          "internalType": "address",
          "name": "account",
          "type": "address"
        }
      ],
      "name": "Paused",
      "type": "event"
    },
    {
      "anonymous": false,
      "inputs": [
        {
          "indexed": true,
          "internalType": "address",
          "name": "from",
          "type": "address"
        },
        {
          "indexed": true,
          "internalType": "address",
          "name": "to",
          "type": "address"
        },
        {
          "indexed": false,
          "internalType": "uint256",
          "name": "value",
          "type": "uint256"
        }
      ],
      "name": "Transfer",
      "type": "event"
    },
    {
      "anonymous": false,
      "inputs": [
        {
          "indexed": false,
          "internalType": "address",
          "name": "account",
          "type": "address"
        }
      ],
      "name": "Unpaused",
      "type": "event"
    },
    {
      "inputs": [],
      "name": "DOMAIN_SEPARATOR",
      "outputs": [
        {
          "internalType": "bytes32",
          "name": "",
          "type": "bytes32"
        }
      ],
      "stateMutability": "view",
      "type": "function"
    },
    {
      "inputs": [
        {
          "internalType": "address",
          "name": "guardian",
          "type": "address"
        }
      ],
      "name": "addGuardian",
      "outputs": [],
      "stateMutability": "nonpayable",
      "type": "function"
    },
    {
      "inputs": [
        {
          "internalType": "address",
          "name": "minter",
          "type": "address"
        }
      ],
      "name": "addMinter",
      "outputs": [],
      "stateMutability": "nonpayable",
      "type": "function"
    },
    {
      "inputs": [
        {
          "internalType": "address",
          "name": "owner",
          "type": "address"
        },
        {
          "internalType": "address",
          "name": "spender",
          "type": "address"
        }
      ],
      "name": "allowance",
      "outputs": [
        {
          "internalType": "uint256",
          "name": "",
          "type": "uint256"
        }
      ],
      "stateMutability": "view",
      "type": "function"
    },
    {
      "inputs": [
        {
          "internalType": "address",
          "name": "spender",
          "type": "address"
        },
        {
          "internalType": "uint256",
          "name": "amount",
          "type": "uint256"
        }
      ],
      "name": "approve",
      "outputs": [
        {
          "internalType": "bool",
          "name": "",
          "type": "bool"
        }
      ],
      "stateMutability": "nonpayable",
      "type": "function"
    },
    {
      "inputs": [
        {
          "internalType": "address",
          "name": "account",
          "type": "address"
        }
      ],
      "name": "balanceOf",
      "outputs": [
        {
          "internalType": "uint256",
          "name": "",
          "type": "uint256"
        }
      ],
      "stateMutability": "view",
      "type": "function"
    },
    {
      "inputs": [
        {
          "internalType": "uint256",
          "name": "amount",
          "type": "uint256"
        }
      ],
      "name": "burn",
      "outputs": [],
      "stateMutability": "nonpayable",
      "type": "function"
    },
    {
      "inputs": [
        {
          "internalType": "address",
          "name": "account",
          "type": "address"
        },
        {
          "internalType": "uint256",
          "name": "amount",
          "type": "uint256"
        }
      ],
      "name": "burnFrom",
      "outputs": [],
      "stateMutability": "nonpayable",
      "type": "function"
    },
    {
      "inputs": [],
      "name": "decimals",
      "outputs": [
        {
          "internalType": "uint8",
          "name": "",
          "type": "uint8"
        }
      ],
      "stateMutability": "view",
      "type": "function"
    },
    {
      "inputs": [
        {
          "internalType": "address",
          "name": "spender",
          "type": "address"
        },
        {
          "internalType": "uint256",
          "name": "subtractedValue",
          "type": "uint256"
        }
      ],
      "name": "decreaseAllowance",
      "outputs": [
        {
          "internalType": "bool",
          "name": "",
          "type": "bool"
        }
      ],
      "stateMutability": "nonpayable",
      "type": "function"
    },
    {
      "inputs": [],
      "name": "eip712Domain",
      "outputs": [
        {
          "internalType": "bytes1",
          "name": "fields",
          "type": "bytes1"
        },
        {
          "internalType": "string",
          "name": "name",
          "type": "string"
        },
        {
          "internalType": "string",
          "name": "version",
          "type": "string"
        },
        {
          "internalType": "uint256",
          "name": "chainId",
          "type": "uint256"
        },
        {
          "internalType": "address",
          "name": "verifyingContract",
          "type": "address"
        },
        {
          "internalType": "bytes32",
          "name": "salt",
          "type": "bytes32"
        },
        {
          "internalType": "uint256[]",
          "name": "extensions",
          "type": "uint256[]"
        }
      ],
      "stateMutability": "view",
      "type": "function"
    },
    {
      "inputs": [],
      "name": "getGuardians",
      "outputs": [
        {
          "internalType": "address[]",
          "name": "",
          "type": "address[]"
        }
      ],
      "stateMutability": "view",
      "type": "function"
    },
    {
      "inputs": [],
      "name": "getMinters",
      "outputs": [
        {
          "internalType": "address[]",
          "name": "",
          "type": "address[]"
        }
      ],
      "stateMutability": "view",
      "type": "function"
    },
    {
      "inputs": [
        {
          "internalType": "uint256",
          "name": "",
          "type": "uint256"
        }
      ],
      "name": "guardians",
      "outputs": [
        {
          "internalType": "address",
          "name": "",
          "type": "address"
        }
      ],
      "stateMutability": "view",
      "type": "function"
    },
    {
      "inputs": [
        {
          "internalType": "address",
          "name": "spender",
          "type": "address"
        },
        {
          "internalType": "uint256",
          "name": "addedValue",
          "type": "uint256"
        }
      ],
      "name": "increaseAllowance",
      "outputs": [
        {
          "internalType": "bool",
          "name": "",
          "type": "bool"
        }
      ],
      "stateMutability": "nonpayable",
      "type": "function"
    },
    {
      "inputs": [
        {
          "internalType": "string",
          "name": "_name",
          "type": "string"
        },
        {
          "internalType": "string",
          "name": "_symbol",
          "type": "string"
        }
      ],
      "name": "initialize",
      "outputs": [],
      "stateMutability": "nonpayable",
      "type": "function"
    },
    {
      "inputs": [
        {
          "internalType": "address",
          "name": "",
          "type": "address"
        }
      ],
      "name": "isGuardian",
      "outputs": [
        {
          "internalType": "bool",
          "name": "",
          "type": "bool"
        }
      ],
      "stateMutability": "view",
      "type": "function"
    },
    {
      "inputs": [
        {
          "internalType": "address",
          "name": "",
          "type": "address"
        }
      ],
      "name": "isMinter",
      "outputs": [
        {
          "internalType": "bool",
          "name": "",
          "type": "bool"
        }
      ],
      "stateMutability": "view",
      "type": "function"
    },
    {
      "inputs": [
        {
          "internalType": "address",
          "name": "account",
          "type": "address"
        },
        {
          "internalType": "uint256",
          "name": "amount",
          "type": "uint256"
        }
      ],
      "name": "mint",
      "outputs": [],
      "stateMutability": "nonpayable",
      "type": "function"
    },
    {
      "inputs": [
        {
          "internalType": "uint256",
          "name": "",
          "type": "uint256"
        }
      ],
      "name": "minters",
      "outputs": [
        {
          "internalType": "address",
          "name": "",
          "type": "address"
        }
      ],
      "stateMutability": "view",
      "type": "function"
    },
    {
      "inputs": [],
      "name": "name",
      "outputs": [
        {
          "internalType": "string",
          "name": "",
          "type": "string"
        }
      ],
      "stateMutability": "view",
      "type": "function"
    },
    {
      "inputs": [
        {
          "internalType": "address",
          "name": "owner",
          "type": "address"
        }
      ],
      "name": "nonces",
      "outputs": [
        {
          "internalType": "uint256",
          "name": "",
          "type": "uint256"
        }
      ],
      "stateMutability": "view",
      "type": "function"
    },
    {
      "inputs": [],
      "name": "owner",
      "outputs": [
        {
          "internalType": "address",
          "name": "",
          "type": "address"
        }
      ],
      "stateMutability": "view",
      "type": "function"
    },
    {
      "inputs": [],
      "name": "pause",
      "outputs": [],
      "stateMutability": "nonpayable",
      "type": "function"
    },
    {
      "inputs": [],
      "name": "paused",
      "outputs": [
        {
          "internalType": "bool",
          "name": "",
          "type": "bool"
        }
      ],
      "stateMutability": "view",
      "type": "function"
    },
    {
      "inputs": [
        {
          "internalType": "address",
          "name": "owner",
          "type": "address"
        },
        {
          "internalType": "address",
          "name": "spender",
          "type": "address"
        },
        {
          "internalType": "uint256",
          "name": "value",
          "type": "uint256"
        },
        {
          "internalType": "uint256",
          "name": "deadline",
          "type": "uint256"
        },
        {
          "internalType": "uint8",
          "name": "v",
          "type": "uint8"
        },
        {
          "internalType": "bytes32",
          "name": "r",
          "type": "bytes32"
        },
        {
          "internalType": "bytes32",
          "name": "s",
          "type": "bytes32"
        }
      ],
      "name": "permit",
      "outputs": [],
      "stateMutability": "nonpayable",
      "type": "function"
    },
    {
      "inputs": [
        {
          "internalType": "contract IERC20Upgradeable",
          "name": "token",
          "type": "address"
        },
        {
          "internalType": "address",
          "name": "recipient",
          "type": "address"
        },
        {
          "internalType": "uint256",
          "name": "amount",
          "type": "uint256"
        }
      ],
      "name": "recoverERC20",
      "outputs": [],
      "stateMutability": "nonpayable",
      "type": "function"
    },
    {
      "inputs": [
        {
          "internalType": "contract IERC721Upgradeable",
          "name": "token",
          "type": "address"
        },
        {
          "internalType": "address",
          "name": "recipient",
          "type": "address"
        },
        {
          "internalType": "uint256",
          "name": "tokenId",
          "type": "uint256"
        },
        {
          "internalType": "bytes",
          "name": "data",
          "type": "bytes"
        }
      ],
      "name": "recoverERC721",
      "outputs": [],
      "stateMutability": "nonpayable",
      "type": "function"
    },
    {
      "inputs": [
        {
          "internalType": "address",
          "name": "guardian",
          "type": "address"
        }
      ],
      "name": "removeGuardian",
      "outputs": [],
      "stateMutability": "nonpayable",
      "type": "function"
    },
    {
      "inputs": [
        {
          "internalType": "address",
          "name": "minter",
          "type": "address"
        }
      ],
      "name": "removeMinter",
      "outputs": [],
      "stateMutability": "nonpayable",
      "type": "function"
    },
    {
      "inputs": [],
      "name": "renounceOwnership",
      "outputs": [],
      "stateMutability": "nonpayable",
      "type": "function"
    },
    {
      "inputs": [],
      "name": "symbol",
      "outputs": [
        {
          "internalType": "string",
          "name": "",
          "type": "string"
        }
      ],
      "stateMutability": "view",
      "type": "function"
    },
    {
      "inputs": [],
      "name": "totalSupply",
      "outputs": [
        {
          "internalType": "uint256",
          "name": "",
          "type": "uint256"
        }
      ],
      "stateMutability": "view",
      "type": "function"
    },
    {
      "inputs": [
        {
          "internalType": "address",
          "name": "to",
          "type": "address"
        },
        {
          "internalType": "uint256",
          "name": "amount",
          "type": "uint256"
        }
      ],
      "name": "transfer",
      "outputs": [
        {
          "internalType": "bool",
          "name": "",
          "type": "bool"
        }
      ],
      "stateMutability": "nonpayable",
      "type": "function"
    },
    {
      "inputs": [
        {
          "internalType": "address",
          "name": "from",
          "type": "address"
        },
        {
          "internalType": "address",
          "name": "to",
          "type": "address"
        },
        {
          "internalType": "uint256",
          "name": "amount",
          "type": "uint256"
        }
      ],
      "name": "transferFrom",
      "outputs": [
        {
          "internalType": "bool",
          "name": "",
          "type": "bool"
        }
      ],
      "stateMutability": "nonpayable",
      "type": "function"
    },
    {
      "inputs": [
        {
          "internalType": "address",
          "name": "newOwner",
          "type": "address"
        }
      ],
      "name": "transferOwnership",
      "outputs": [],
      "stateMutability": "nonpayable",
      "type": "function"
    },
    {
      "inputs": [],
      "name": "unpause",
      "outputs": [],
      "stateMutability": "nonpayable",
      "type": "function"
    }
  ],
  "bytecode": "0x608060405234801561001057600080fd5b50612ebe806100206000396000f3fe608060405234801561001057600080fd5b50600436106102775760003560e01c80637140415611610160578063983b2d56116100d8578063d505accf1161008c578063f2fde38b11610071578063f2fde38b1461054f578063f560c73414610562578063fc4e51f61461057557600080fd5b8063d505accf14610503578063dd62ed3e1461051657600080fd5b8063a526d83b116100bd578063a526d83b146104b9578063a9059cbb146104cc578063aa271e1a146104df57600080fd5b8063983b2d5614610493578063a457c2d7146104a657600080fd5b80638456cb591161012f5780638623ec7b116101145780638623ec7b1461044f5780638da5cb5b1461047a57806395d89b411461048b57600080fd5b80638456cb591461042c57806384b0196e1461043457600080fd5b806371404156146103eb578063715018a6146103fe57806379cc6790146104065780637ecebe001461041957600080fd5b80633644e515116101f357806342966c68116101c25780635c975abb116101a75780635c975abb146103ae5780636b32810b146103ba57806370a08231146103c257600080fd5b806342966c68146103885780634cd88b761461039b57600080fd5b80633644e51514610352578063395093511461035a5780633f4ba83a1461036d57806340c10f191461037557600080fd5b80631171bda91161024a57806323b872dd1161022f57806323b872dd1461031d5780633092afd514610330578063313ce5671461034357600080fd5b80631171bda9146102f657806318160ddd1461030b57600080fd5b80630665f04b1461027c57806306fdde031461029a578063095ea7b3146102af5780630c68ba21146102d2575b600080fd5b610284610588565b6040516102919190612795565b60405180910390f35b6102a26105eb565b604051610291919061283a565b6102c26102bd366004612869565b610674565b6040519015158152602001610291565b6102c26102e0366004612895565b6101646020526000908152604090205460ff1681565b6103096103043660046128b2565b61068c565b005b6035545b604051908152602001610291565b6102c261032b3660046128b2565b6106ad565b61030961033e366004612895565b6106d1565b60405160128152602001610291565b61030f6108ab565b6102c2610368366004612869565b6108ba565b6103096108f9565b610309610383366004612869565b61090b565b6103096103963660046128f3565b610981565b6103096103a93660046129af565b610995565b6101305460ff166102c2565b610284610ad9565b61030f6103d0366004612895565b6001600160a01b031660009081526033602052604090205490565b6103096103f9366004612895565b610b3a565b610309610d0f565b610309610414366004612869565b610d21565b61030f610427366004612895565b610d33565b610309610d53565b61043c610dbb565b6040516102919796959493929190612a13565b61046261045d3660046128f3565b610e7d565b6040516001600160a01b039091168152602001610291565b60fe546001600160a01b0316610462565b6102a2610ea8565b6103096104a1366004612895565b610eb7565b6102c26104b4366004612869565b610fb7565b6103096104c7366004612895565b611061565b6102c26104da366004612869565b611187565b6102c26104ed366004612895565b6101626020526000908152604090205460ff1681565b610309610511366004612ac5565b611195565b61030f610524366004612b3c565b6001600160a01b03918216600090815260346020908152604080832093909416825291909152205490565b61030961055d366004612895565b6112f9565b6104626105703660046128f3565b611386565b610309610583366004612b75565b611397565b60606101658054806020026020016040519081016040528092919081815260200182805480156105e157602002820191906000526020600020905b81546001600160a01b031681526001909101906020018083116105c3575b5050505050905090565b6060603680546105fa90612c14565b80601f016020809104026020016040519081016040528092919081815260200182805461062690612c14565b80156105e15780601f10610648576101008083540402835291602001916105e1565b820191906000526020600020905b81548152906001019060200180831161065657509395945050505050565b600033610682818585611425565b5060019392505050565b61069461157d565b6106a86001600160a01b03841683836115d7565b505050565b6000336106bb858285611657565b6106c68585856116e9565b506001949350505050565b6106d961157d565b6001600160a01b0381166000908152610162602052604090205460ff166107475760405162461bcd60e51b815260206004820152601c60248201527f546869732061646472657373206973206e6f742061206d696e7465720000000060448201526064015b60405180910390fd5b6001600160a01b038116600090815261016260205260408120805460ff191690555b6101635481101561087357816001600160a01b0316610163828154811061079257610792612c48565b6000918252602090912001546001600160a01b0316036108615761016380546107bd90600190612c74565b815481106107cd576107cd612c48565b60009182526020909120015461016380546001600160a01b0390921691839081106107fa576107fa612c48565b9060005260206000200160006101000a8154816001600160a01b0302191690836001600160a01b0316021790555061016380548061083a5761083a612c8b565b600082815260209020810160001990810180546001600160a01b0319169055019055610873565b8061086b81612ca1565b915050610769565b506040516001600160a01b038216907fe94479a9f7e1952cc78f2d6baab678adc1b772d936c6583def489e524cb6669290600090a250565b60006108b56118dd565b905090565b3360008181526034602090815260408083206001600160a01b038716845290915281205490919061068290829086906108f4908790612cba565b611425565b61090161157d565b6109096118e7565b565b61091361193a565b336000908152610162602052604090205460ff166109735760405162461bcd60e51b815260206004820152601660248201527f43616c6c6572206973206e6f742061206d696e74657200000000000000000000604482015260640161073e565b61097d828261198e565b5050565b61098961193a565b61099281611a4f565b50565b600054610100900460ff16158080156109b55750600054600160ff909116105b806109cf5750303b1580156109cf575060005460ff166001145b610a415760405162461bcd60e51b815260206004820152602e60248201527f496e697469616c697a61626c653a20636f6e747261637420697320616c72656160448201527f647920696e697469616c697a6564000000000000000000000000000000000000606482015260840161073e565b6000805460ff191660011790558015610a64576000805461ff0019166101001790555b610a6e8383611a59565b610a76611ace565b610a7f83611b39565b610a87611be3565b610a8f611c56565b80156106a8576000805461ff0019169055604051600181527f7f26b83ff96e1f2b6a682f133852f6798a09c465da95921460cefb38474024989060200160405180910390a1505050565b60606101638054806020026020016040519081016040528092919081815260200182805480156105e1576020028201919060005260206000209081546001600160a01b031681526001909101906020018083116105c3575050505050905090565b610b4261157d565b6001600160a01b0381166000908152610164602052604090205460ff16610bab5760405162461bcd60e51b815260206004820152601e60248201527f546869732061646472657373206973206e6f74206120677561726469616e0000604482015260640161073e565b6001600160a01b038116600090815261016460205260408120805460ff191690555b61016554811015610cd757816001600160a01b03166101658281548110610bf657610bf6612c48565b6000918252602090912001546001600160a01b031603610cc5576101658054610c2190600190612c74565b81548110610c3157610c31612c48565b60009182526020909120015461016580546001600160a01b039092169183908110610c5e57610c5e612c48565b9060005260206000200160006101000a8154816001600160a01b0302191690836001600160a01b03160217905550610165805480610c9e57610c9e612c8b565b600082815260209020810160001990810180546001600160a01b0319169055019055610cd7565b80610ccf81612ca1565b915050610bcd565b506040516001600160a01b038216907fb8107d0c6b40be480ce3172ee66ba6d64b71f6b1685a851340036e6e2e3e3c5290600090a250565b610d1761157d565b6109096000611cc9565b610d2961193a565b61097d8282611d1b565b6001600160a01b038116600090815260cb60205260408120545b92915050565b336000908152610164602052604090205460ff16610db35760405162461bcd60e51b815260206004820152601860248201527f43616c6c6572206973206e6f74206120677561726469616e0000000000000000604482015260640161073e565b610909611d30565b6000606080600080600060606097546000801b148015610ddb5750609854155b610e275760405162461bcd60e51b815260206004820152601560248201527f4549503731323a20556e696e697469616c697a65640000000000000000000000604482015260640161073e565b610e2f611d6e565b610e37611d7d565b604080516000808252602082019092527f0f000000000000000000000000000000000000000000000000000000000000009b939a50919850469750309650945092509050565b6101638181548110610e8e57600080fd5b6000918252602090912001546001600160a01b0316905081565b6060603780546105fa90612c14565b610ebf61157d565b6001600160a01b0381166000908152610162602052604090205460ff1615610f295760405162461bcd60e51b815260206004820181905260248201527f54686973206164647265737320697320616c72656164792061206d696e746572604482015260640161073e565b6001600160a01b03811660008181526101626020526040808220805460ff191660019081179091556101638054918201815583527fb0f3e90519fd0de3100ca1a24094c0a25e5cbf467d74a2603172b5a5204555b30180546001600160a01b03191684179055517f6ae172837ea30b801fbfcdd4108aa1d5bf8ff775444fd70256b44e6bf3dfc3f69190a250565b3360008181526034602090815260408083206001600160a01b0387168452909152812054909190838110156110545760405162461bcd60e51b815260206004820152602560248201527f45524332303a2064656372656173656420616c6c6f77616e63652062656c6f7760448201527f207a65726f000000000000000000000000000000000000000000000000000000606482015260840161073e565b6106c68286868403611425565b61106961157d565b6001600160a01b0381166000908152610164602052604090205460ff16156110f95760405162461bcd60e51b815260206004820152602260248201527f54686973206164647265737320697320616c726561647920612067756172646960448201527f616e000000000000000000000000000000000000000000000000000000000000606482015260840161073e565b6001600160a01b03811660008181526101646020526040808220805460ff191660019081179091556101658054918201815583527fd91ca5e44fa96a1732bfaed7fe33fc20ed69a9895cde1f18c7dcabca39d6a78b0180546001600160a01b03191684179055517f038596bb31e2e7d3d9f184d4c98b310103f6d7f5830e5eec32bffe6f1728f9699190a250565b6000336106828185856116e9565b834211156111e55760405162461bcd60e51b815260206004820152601d60248201527f45524332305065726d69743a206578706972656420646561646c696e65000000604482015260640161073e565b60007f6e71edae12b1b97f4d1f60370fef10105fa2faae0126114a169c64845d6126c98888886112148c611d8c565b6040805160208101969096526001600160a01b0394851690860152929091166060840152608083015260a082015260c0810186905260e001604051602081830303815290604052805190602001209050600061126f82611db4565b9050600061127f82878787611dfc565b9050896001600160a01b0316816001600160a01b0316146112e25760405162461bcd60e51b815260206004820152601e60248201527f45524332305065726d69743a20696e76616c6964207369676e61747572650000604482015260640161073e565b6112ed8a8a8a611425565b50505050505050505050565b61130161157d565b6001600160a01b03811661137d5760405162461bcd60e51b815260206004820152602660248201527f4f776e61626c653a206e6577206f776e657220697320746865207a65726f206160448201527f6464726573730000000000000000000000000000000000000000000000000000606482015260840161073e565b61099281611cc9565b6101658181548110610e8e57600080fd5b61139f61157d565b6040517fb88d4fde0000000000000000000000000000000000000000000000000000000081526001600160a01b0386169063b88d4fde906113ec9030908890889088908890600401612cd2565b600060405180830381600087803b15801561140657600080fd5b505af115801561141a573d6000803e3d6000fd5b505050505050505050565b6001600160a01b0383166114a05760405162461bcd60e51b8152602060048201526024808201527f45524332303a20617070726f76652066726f6d20746865207a65726f2061646460448201527f7265737300000000000000000000000000000000000000000000000000000000606482015260840161073e565b6001600160a01b03821661151c5760405162461bcd60e51b815260206004820152602260248201527f45524332303a20617070726f766520746f20746865207a65726f20616464726560448201527f7373000000000000000000000000000000000000000000000000000000000000606482015260840161073e565b6001600160a01b0383811660008181526034602090815260408083209487168084529482529182902085905590518481527f8c5be1e5ebec7d5bd14f71427d1e84f3dd0314c0f7b2291e5b200ac8c7c3b925910160405180910390a3505050565b60fe546001600160a01b031633146109095760405162461bcd60e51b815260206004820181905260248201527f4f776e61626c653a2063616c6c6572206973206e6f7420746865206f776e6572604482015260640161073e565b604080516001600160a01b038416602482015260448082018490528251808303909101815260649091019091526020810180517bffffffffffffffffffffffffffffffffffffffffffffffffffffffff167fa9059cbb000000000000000000000000000000000000000000000000000000001790526106a8908490611e26565b6001600160a01b0383811660009081526034602090815260408083209386168352929052205460001981146116e357818110156116d65760405162461bcd60e51b815260206004820152601d60248201527f45524332303a20696e73756666696369656e7420616c6c6f77616e6365000000604482015260640161073e565b6116e38484848403611425565b50505050565b6001600160a01b0383166117655760405162461bcd60e51b815260206004820152602560248201527f45524332303a207472616e736665722066726f6d20746865207a65726f20616460448201527f6472657373000000000000000000000000000000000000000000000000000000606482015260840161073e565b6001600160a01b0382166117e15760405162461bcd60e51b815260206004820152602360248201527f45524332303a207472616e7366657220746f20746865207a65726f206164647260448201527f6573730000000000000000000000000000000000000000000000000000000000606482015260840161073e565b6001600160a01b038316600090815260336020526040902054818110156118705760405162461bcd60e51b815260206004820152602660248201527f45524332303a207472616e7366657220616d6f756e742065786365656473206260448201527f616c616e63650000000000000000000000000000000000000000000000000000606482015260840161073e565b6001600160a01b0380851660008181526033602052604080822086860390559286168082529083902080548601905591517fddf252ad1be2c89b69c2b068fc378daa952ba7f163c4a11628f55a4df523b3ef906118d09086815260200190565b60405180910390a36116e3565b60006108b5611f0e565b6118ef611f82565b610130805460ff191690557f5db9ee0a495bf2e6ff9c91a7834c1ba4fdd244a5e8aa4e537bd38aeae4b073aa335b6040516001600160a01b03909116815260200160405180910390a1565b6101305460ff16156109095760405162461bcd60e51b815260206004820152601060248201527f5061757361626c653a2070617573656400000000000000000000000000000000604482015260640161073e565b6001600160a01b0382166119e45760405162461bcd60e51b815260206004820152601f60248201527f45524332303a206d696e7420746f20746865207a65726f206164647265737300604482015260640161073e565b80603560008282546119f69190612cba565b90915550506001600160a01b0382166000818152603360209081526040808320805486019055518481527fddf252ad1be2c89b69c2b068fc378daa952ba7f163c4a11628f55a4df523b3ef910160405180910390a35050565b6109923382611fd5565b600054610100900460ff16611ac45760405162461bcd60e51b815260206004820152602b60248201527f496e697469616c697a61626c653a20636f6e7472616374206973206e6f74206960448201526a6e697469616c697a696e6760a81b606482015260840161073e565b61097d8282612140565b600054610100900460ff166109095760405162461bcd60e51b815260206004820152602b60248201527f496e697469616c697a61626c653a20636f6e7472616374206973206e6f74206960448201526a6e697469616c697a696e6760a81b606482015260840161073e565b600054610100900460ff16611ba45760405162461bcd60e51b815260206004820152602b60248201527f496e697469616c697a61626c653a20636f6e7472616374206973206e6f74206960448201526a6e697469616c697a696e6760a81b606482015260840161073e565b610992816040518060400160405280600181526020017f31000000000000000000000000000000000000000000000000000000000000008152506121c4565b600054610100900460ff16611c4e5760405162461bcd60e51b815260206004820152602b60248201527f496e697469616c697a61626c653a20636f6e7472616374206973206e6f74206960448201526a6e697469616c697a696e6760a81b606482015260840161073e565b610909612257565b600054610100900460ff16611cc15760405162461bcd60e51b815260206004820152602b60248201527f496e697469616c697a61626c653a20636f6e7472616374206973206e6f74206960448201526a6e697469616c697a696e6760a81b606482015260840161073e565b6109096122cb565b60fe80546001600160a01b038381166001600160a01b0319831681179093556040519116919082907f8be0079c531659141344cd1fd0a4f28419497f9722a3daafe3b4186f6b6457e090600090a35050565b611d26823383611657565b61097d8282611fd5565b611d3861193a565b610130805460ff191660011790557f62e78cea01bee320cd4e420270b5ea74000d11b0c9f74754ebdbfc544b05a25861191d3390565b6060609980546105fa90612c14565b6060609a80546105fa90612c14565b6001600160a01b038116600090815260cb602052604090208054600181018255905b50919050565b6000610d4d611dc16118dd565b836040517f19010000000000000000000000000000000000000000000000000000000000008152600281019290925260228201526042902090565b6000806000611e0d87878787612343565b91509150611e1a81612407565b5090505b949350505050565b6000611e7b826040518060400160405280602081526020017f5361666545524332303a206c6f772d6c6576656c2063616c6c206661696c6564815250856001600160a01b031661256c9092919063ffffffff16565b9050805160001480611e9c575080806020019051810190611e9c9190612d26565b6106a85760405162461bcd60e51b815260206004820152602a60248201527f5361666545524332303a204552433230206f7065726174696f6e20646964206e60448201527f6f74207375636365656400000000000000000000000000000000000000000000606482015260840161073e565b60007f8b73c3c69bb8fe3d512ecc4cf759cc79239f7b179b0ffacaa9a75d522b39400f611f3961257b565b611f416125d4565b60408051602081019490945283019190915260608201524660808201523060a082015260c00160405160208183030381529060405280519060200120905090565b6101305460ff166109095760405162461bcd60e51b815260206004820152601460248201527f5061757361626c653a206e6f7420706175736564000000000000000000000000604482015260640161073e565b6001600160a01b0382166120515760405162461bcd60e51b815260206004820152602160248201527f45524332303a206275726e2066726f6d20746865207a65726f2061646472657360448201527f7300000000000000000000000000000000000000000000000000000000000000606482015260840161073e565b6001600160a01b038216600090815260336020526040902054818110156120e05760405162461bcd60e51b815260206004820152602260248201527f45524332303a206275726e20616d6f756e7420657863656564732062616c616e60448201527f6365000000000000000000000000000000000000000000000000000000000000606482015260840161073e565b6001600160a01b03831660008181526033602090815260408083208686039055603580548790039055518581529192917fddf252ad1be2c89b69c2b068fc378daa952ba7f163c4a11628f55a4df523b3ef910160405180910390a3505050565b600054610100900460ff166121ab5760405162461bcd60e51b815260206004820152602b60248201527f496e697469616c697a61626c653a20636f6e7472616374206973206e6f74206960448201526a6e697469616c697a696e6760a81b606482015260840161073e565b60366121b78382612d96565b5060376106a88282612d96565b600054610100900460ff1661222f5760405162461bcd60e51b815260206004820152602b60248201527f496e697469616c697a61626c653a20636f6e7472616374206973206e6f74206960448201526a6e697469616c697a696e6760a81b606482015260840161073e565b609961223b8382612d96565b50609a6122488282612d96565b50506000609781905560985550565b600054610100900460ff166122c25760405162461bcd60e51b815260206004820152602b60248201527f496e697469616c697a61626c653a20636f6e7472616374206973206e6f74206960448201526a6e697469616c697a696e6760a81b606482015260840161073e565b61090933611cc9565b600054610100900460ff166123365760405162461bcd60e51b815260206004820152602b60248201527f496e697469616c697a61626c653a20636f6e7472616374206973206e6f74206960448201526a6e697469616c697a696e6760a81b606482015260840161073e565b610130805460ff19169055565b6000807f7fffffffffffffffffffffffffffffff5d576e7357a4501ddfe92f46681b20a083111561237a57506000905060036123fe565b6040805160008082526020820180845289905260ff881692820192909252606081018690526080810185905260019060a0016020604051602081039080840390855afa1580156123ce573d6000803e3d6000fd5b5050604051601f1901519150506001600160a01b0381166123f7576000600192509250506123fe565b9150600090505b94509492505050565b600081600481111561241b5761241b612e56565b036124235750565b600181600481111561243757612437612e56565b036124845760405162461bcd60e51b815260206004820152601860248201527f45434453413a20696e76616c6964207369676e61747572650000000000000000604482015260640161073e565b600281600481111561249857612498612e56565b036124e55760405162461bcd60e51b815260206004820152601f60248201527f45434453413a20696e76616c6964207369676e6174757265206c656e67746800604482015260640161073e565b60038160048111156124f9576124f9612e56565b036109925760405162461bcd60e51b815260206004820152602260248201527f45434453413a20696e76616c6964207369676e6174757265202773272076616c60448201527f7565000000000000000000000000000000000000000000000000000000000000606482015260840161073e565b6060611e1e8484600085612605565b600080612586611d6e565b80519091501561259d578051602090910120919050565b60975480156125ac5792915050565b7fc5d2460186f7233c927e7db2dcc703c0e500b653ca82273b7bfad8045d85a4709250505090565b6000806125df611d7d565b8051909150156125f6578051602090910120919050565b60985480156125ac5792915050565b60608247101561267d5760405162461bcd60e51b815260206004820152602660248201527f416464726573733a20696e73756666696369656e742062616c616e636520666f60448201527f722063616c6c0000000000000000000000000000000000000000000000000000606482015260840161073e565b600080866001600160a01b031685876040516126999190612e6c565b60006040518083038185875af1925050503d80600081146126d6576040519150601f19603f3d011682016040523d82523d6000602084013e6126db565b606091505b50915091506126ec878383876126f7565b979650505050505050565b6060831561276657825160000361275f576001600160a01b0385163b61275f5760405162461bcd60e51b815260206004820152601d60248201527f416464726573733a2063616c6c20746f206e6f6e2d636f6e7472616374000000604482015260640161073e565b5081611e1e565b611e1e838381511561277b5781518083602001fd5b8060405162461bcd60e51b815260040161073e919061283a565b6020808252825182820181905260009190848201906040850190845b818110156127d65783516001600160a01b0316835292840192918401916001016127b1565b50909695505050505050565b60005b838110156127fd5781810151838201526020016127e5565b838111156116e35750506000910152565b600081518084526128268160208601602086016127e2565b601f01601f19169290920160200192915050565b60208152600061284d602083018461280e565b9392505050565b6001600160a01b038116811461099257600080fd5b6000806040838503121561287c57600080fd5b823561288781612854565b946020939093013593505050565b6000602082840312156128a757600080fd5b813561284d81612854565b6000806000606084860312156128c757600080fd5b83356128d281612854565b925060208401356128e281612854565b929592945050506040919091013590565b60006020828403121561290557600080fd5b5035919050565b634e487b7160e01b600052604160045260246000fd5b600082601f83011261293357600080fd5b813567ffffffffffffffff8082111561294e5761294e61290c565b604051601f8301601f19908116603f011681019082821181831017156129765761297661290c565b8160405283815286602085880101111561298f57600080fd5b836020870160208301376000602085830101528094505050505092915050565b600080604083850312156129c257600080fd5b823567ffffffffffffffff808211156129da57600080fd5b6129e686838701612922565b935060208501359150808211156129fc57600080fd5b50612a0985828601612922565b9150509250929050565b7fff00000000000000000000000000000000000000000000000000000000000000881681526000602060e081840152612a4f60e084018a61280e565b8381036040850152612a61818a61280e565b606085018990526001600160a01b038816608086015260a0850187905284810360c0860152855180825283870192509083019060005b81811015612ab357835183529284019291840191600101612a97565b50909c9b505050505050505050505050565b600080600080600080600060e0888a031215612ae057600080fd5b8735612aeb81612854565b96506020880135612afb81612854565b95506040880135945060608801359350608088013560ff81168114612b1f57600080fd5b9699959850939692959460a0840135945060c09093013592915050565b60008060408385031215612b4f57600080fd5b8235612b5a81612854565b91506020830135612b6a81612854565b809150509250929050565b600080600080600060808688031215612b8d57600080fd5b8535612b9881612854565b94506020860135612ba881612854565b935060408601359250606086013567ffffffffffffffff80821115612bcc57600080fd5b818801915088601f830112612be057600080fd5b813581811115612bef57600080fd5b896020828501011115612c0157600080fd5b9699959850939650602001949392505050565b600181811c90821680612c2857607f821691505b602082108103611dae57634e487b7160e01b600052602260045260246000fd5b634e487b7160e01b600052603260045260246000fd5b634e487b7160e01b600052601160045260246000fd5b600082821015612c8657612c86612c5e565b500390565b634e487b7160e01b600052603160045260246000fd5b600060018201612cb357612cb3612c5e565b5060010190565b60008219821115612ccd57612ccd612c5e565b500190565b60006001600160a01b03808816835280871660208401525084604083015260806060830152826080830152828460a0840137600060a0848401015260a0601f19601f85011683010190509695505050505050565b600060208284031215612d3857600080fd5b8151801515811461284d57600080fd5b601f8211156106a857600081815260208120601f850160051c81016020861015612d6f5750805b601f850160051c820191505b81811015612d8e57828155600101612d7b565b505050505050565b815167ffffffffffffffff811115612db057612db061290c565b612dc481612dbe8454612c14565b84612d48565b602080601f831160018114612df95760008415612de15750858301515b600019600386901b1c1916600185901b178555612d8e565b600085815260208120601f198616915b82811015612e2857888601518255948401946001909101908401612e09565b5085821015612e465787850151600019600388901b60f8161c191681555b5050505050600190811b01905550565b634e487b7160e01b600052602160045260246000fd5b60008251612e7e8184602087016127e2565b919091019291505056fea26469706673582212201c284d46d922beb5b3dcf194b58f62743ade9293e0bdfa6fe7f2e6bdcc8cbbcf64736f6c634300080f0033",
  "linkReferences": {},
  "deployedLinkReferences": {}
}